{
	"src/contracts/CarbonCredit.sol": {
		"CarbonCredit": {
			"abi": [
				{
					"inputs": [
						{
							"internalType": "string",
							"name": "tokenName",
							"type": "string"
						},
						{
							"internalType": "string",
							"name": "tokenSymbol",
							"type": "string"
						},
						{
							"internalType": "uint8",
							"name": "tokenDecimals",
							"type": "uint8"
						},
						{
							"internalType": "uint256",
							"name": "initialSupply",
							"type": "uint256"
						}
					],
					"stateMutability": "nonpayable",
					"type": "constructor"
				},
				{
					"anonymous": false,
					"inputs": [
						{
							"indexed": true,
							"internalType": "address",
							"name": "owner",
							"type": "address"
						},
						{
							"indexed": true,
							"internalType": "address",
							"name": "spender",
							"type": "address"
						},
						{
							"indexed": false,
							"internalType": "uint256",
							"name": "value",
							"type": "uint256"
						}
					],
					"name": "Approval",
					"type": "event"
				},
				{
					"anonymous": false,
					"inputs": [
						{
							"indexed": true,
							"internalType": "address",
							"name": "account",
							"type": "address"
						},
						{
							"indexed": false,
							"internalType": "uint256",
							"name": "amount",
							"type": "uint256"
						}
					],
					"name": "CarbonCreditIssued",
					"type": "event"
				},
				{
					"anonymous": false,
					"inputs": [
						{
							"indexed": true,
							"internalType": "address",
							"name": "from",
							"type": "address"
						},
						{
							"indexed": true,
							"internalType": "address",
							"name": "to",
							"type": "address"
						},
						{
							"indexed": false,
							"internalType": "uint256",
							"name": "value",
							"type": "uint256"
						}
					],
					"name": "CarbonCreditTransferred",
					"type": "event"
				},
				{
					"anonymous": false,
					"inputs": [
						{
							"indexed": true,
							"internalType": "address",
							"name": "from",
							"type": "address"
						},
						{
							"indexed": true,
							"internalType": "address",
							"name": "to",
							"type": "address"
						},
						{
							"indexed": false,
							"internalType": "uint256",
							"name": "value",
							"type": "uint256"
						}
					],
					"name": "Transfer",
					"type": "event"
				},
				{
					"inputs": [
						{
							"internalType": "address",
							"name": "",
							"type": "address"
						},
						{
							"internalType": "address",
							"name": "",
							"type": "address"
						}
					],
					"name": "allowance",
					"outputs": [
						{
							"internalType": "uint256",
							"name": "",
							"type": "uint256"
						}
					],
					"stateMutability": "view",
					"type": "function"
				},
				{
					"inputs": [
						{
							"internalType": "address",
							"name": "spender",
							"type": "address"
						},
						{
							"internalType": "uint256",
							"name": "value",
							"type": "uint256"
						}
					],
					"name": "approve",
					"outputs": [
						{
							"internalType": "bool",
							"name": "success",
							"type": "bool"
						}
					],
					"stateMutability": "nonpayable",
					"type": "function"
				},
				{
					"inputs": [
						{
							"internalType": "address",
							"name": "",
							"type": "address"
						}
					],
					"name": "balanceOf",
					"outputs": [
						{
							"internalType": "uint256",
							"name": "",
							"type": "uint256"
						}
					],
					"stateMutability": "view",
					"type": "function"
				},
				{
					"inputs": [
						{
							"internalType": "address",
							"name": "",
							"type": "address"
						}
					],
					"name": "carbonCredits",
					"outputs": [
						{
							"internalType": "uint256",
							"name": "",
							"type": "uint256"
						}
					],
					"stateMutability": "view",
					"type": "function"
				},
				{
					"inputs": [],
					"name": "decimals",
					"outputs": [
						{
							"internalType": "uint8",
							"name": "",
							"type": "uint8"
						}
					],
					"stateMutability": "view",
					"type": "function"
				},
				{
					"inputs": [
						{
							"internalType": "address",
							"name": "account",
							"type": "address"
						},
						{
							"internalType": "uint256",
							"name": "amount",
							"type": "uint256"
						}
					],
					"name": "issueCarbonCredits",
					"outputs": [
						{
							"internalType": "bool",
							"name": "success",
							"type": "bool"
						}
					],
					"stateMutability": "nonpayable",
					"type": "function"
				},
				{
					"inputs": [],
					"name": "name",
					"outputs": [
						{
							"internalType": "string",
							"name": "",
							"type": "string"
						}
					],
					"stateMutability": "view",
					"type": "function"
				},
				{
					"inputs": [],
					"name": "symbol",
					"outputs": [
						{
							"internalType": "string",
							"name": "",
							"type": "string"
						}
					],
					"stateMutability": "view",
					"type": "function"
				},
				{
					"inputs": [],
					"name": "totalSupply",
					"outputs": [
						{
							"internalType": "uint256",
							"name": "",
							"type": "uint256"
						}
					],
					"stateMutability": "view",
					"type": "function"
				},
				{
					"inputs": [
						{
							"internalType": "address",
							"name": "to",
							"type": "address"
						},
						{
							"internalType": "uint256",
							"name": "value",
							"type": "uint256"
						}
					],
					"name": "transfer",
					"outputs": [
						{
							"internalType": "bool",
							"name": "success",
							"type": "bool"
						}
					],
					"stateMutability": "nonpayable",
					"type": "function"
				},
				{
					"inputs": [
						{
							"internalType": "address",
							"name": "to",
							"type": "address"
						},
						{
							"internalType": "uint256",
							"name": "value",
							"type": "uint256"
						}
					],
					"name": "transferCarbonCredits",
					"outputs": [
						{
							"internalType": "bool",
							"name": "success",
							"type": "bool"
						}
					],
					"stateMutability": "nonpayable",
					"type": "function"
				},
				{
					"inputs": [
						{
							"internalType": "address",
							"name": "from",
							"type": "address"
						},
						{
							"internalType": "address",
							"name": "to",
							"type": "address"
						},
						{
							"internalType": "uint256",
							"name": "value",
							"type": "uint256"
						}
					],
					"name": "transferFrom",
					"outputs": [
						{
							"internalType": "bool",
							"name": "success",
							"type": "bool"
						}
					],
					"stateMutability": "nonpayable",
					"type": "function"
				}
			],
			"devdoc": {
				"kind": "dev",
				"methods": {},
				"version": 1
			},
			"evm": {
				"assembly": "    /* \"src/contracts/CarbonCredit.sol\":57:2923  contract CarbonCredit {... */\n  mstore(0x40, 0x80)\n    /* \"src/contracts/CarbonCredit.sol\":749:1098  constructor(... */\n  callvalue\n  dup1\n  iszero\n  tag_1\n  jumpi\n  0x00\n  dup1\n  revert\ntag_1:\n  pop\n  mload(0x40)\n  sub(codesize, bytecodeSize)\n  dup1\n  bytecodeSize\n  dup4\n  codecopy\n  dup2\n  dup2\n  add\n  0x40\n  mstore\n  dup2\n  add\n  swap1\n  tag_2\n  swap2\n  swap1\n  tag_3\n  jump\t// in\ntag_2:\n    /* \"src/contracts/CarbonCredit.sol\":912:921  tokenName */\n  dup4\n    /* \"src/contracts/CarbonCredit.sol\":905:909  name */\n  0x00\n    /* \"src/contracts/CarbonCredit.sol\":905:921  name = tokenName */\n  swap1\n  dup2\n  tag_6\n  swap2\n  swap1\n  tag_7\n  jump\t// in\ntag_6:\n  pop\n    /* \"src/contracts/CarbonCredit.sol\":940:951  tokenSymbol */\n  dup3\n    /* \"src/contracts/CarbonCredit.sol\":931:937  symbol */\n  0x01\n    /* \"src/contracts/CarbonCredit.sol\":931:951  symbol = tokenSymbol */\n  swap1\n  dup2\n  tag_8\n  swap2\n  swap1\n  tag_7\n  jump\t// in\ntag_8:\n  pop\n    /* \"src/contracts/CarbonCredit.sol\":972:985  tokenDecimals */\n  dup2\n    /* \"src/contracts/CarbonCredit.sol\":961:969  decimals */\n  0x02\n  0x00\n    /* \"src/contracts/CarbonCredit.sol\":961:985  decimals = tokenDecimals */\n  0x0100\n  exp\n  dup2\n  sload\n  dup2\n  0xff\n  mul\n  not\n  and\n  swap1\n  dup4\n  0xff\n  and\n  mul\n  or\n  swap1\n  sstore\n  pop\n    /* \"src/contracts/CarbonCredit.sol\":1037:1045  decimals */\n  0x02\n  0x00\n  swap1\n  sload\n  swap1\n  0x0100\n  exp\n  swap1\n  div\n  0xff\n  and\n    /* \"src/contracts/CarbonCredit.sol\":1029:1046  uint256(decimals) */\n  0xff\n  and\n    /* \"src/contracts/CarbonCredit.sol\":1025:1027  10 */\n  0x0a\n    /* \"src/contracts/CarbonCredit.sol\":1025:1046  10**uint256(decimals) */\n  tag_9\n  swap2\n  swap1\n  tag_10\n  jump\t// in\ntag_9:\n    /* \"src/contracts/CarbonCredit.sol\":1009:1022  initialSupply */\n  dup2\n    /* \"src/contracts/CarbonCredit.sol\":1009:1046  initialSupply * 10**uint256(decimals) */\n  tag_11\n  swap2\n  swap1\n  tag_12\n  jump\t// in\ntag_11:\n    /* \"src/contracts/CarbonCredit.sol\":995:1006  totalSupply */\n  0x03\n    /* \"src/contracts/CarbonCredit.sol\":995:1046  totalSupply = initialSupply * 10**uint256(decimals) */\n  dup2\n  swap1\n  sstore\n  pop\n    /* \"src/contracts/CarbonCredit.sol\":1080:1091  totalSupply */\n  sload(0x03)\n    /* \"src/contracts/CarbonCredit.sol\":1056:1065  balanceOf */\n  0x04\n    /* \"src/contracts/CarbonCredit.sol\":1056:1077  balanceOf[msg.sender] */\n  0x00\n    /* \"src/contracts/CarbonCredit.sol\":1066:1076  msg.sender */\n  caller\n    /* \"src/contracts/CarbonCredit.sol\":1056:1077  balanceOf[msg.sender] */\n  0xffffffffffffffffffffffffffffffffffffffff\n  and\n  0xffffffffffffffffffffffffffffffffffffffff\n  and\n  dup2\n  mstore\n  0x20\n  add\n  swap1\n  dup2\n  mstore\n  0x20\n  add\n  0x00\n  keccak256\n    /* \"src/contracts/CarbonCredit.sol\":1056:1091  balanceOf[msg.sender] = totalSupply */\n  dup2\n  swap1\n  sstore\n  pop\n    /* \"src/contracts/CarbonCredit.sol\":749:1098  constructor(... */\n  pop\n  pop\n  pop\n  pop\n    /* \"src/contracts/CarbonCredit.sol\":57:2923  contract CarbonCredit {... */\n  jump(tag_13)\n    /* \"#utility.yul\":7:82   */\ntag_14:\n    /* \"#utility.yul\":40:46   */\n  0x00\n    /* \"#utility.yul\":73:75   */\n  0x40\n    /* \"#utility.yul\":67:76   */\n  mload\n    /* \"#utility.yul\":57:76   */\n  swap1\n  pop\n    /* \"#utility.yul\":7:82   */\n  swap1\n  jump\t// out\n    /* \"#utility.yul\":88:205   */\ntag_15:\n    /* \"#utility.yul\":197:198   */\n  0x00\n    /* \"#utility.yul\":194:195   */\n  dup1\n    /* \"#utility.yul\":187:199   */\n  revert\n    /* \"#utility.yul\":211:328   */\ntag_16:\n    /* \"#utility.yul\":320:321   */\n  0x00\n    /* \"#utility.yul\":317:318   */\n  dup1\n    /* \"#utility.yul\":310:322   */\n  revert\n    /* \"#utility.yul\":334:451   */\ntag_17:\n    /* \"#utility.yul\":443:444   */\n  0x00\n    /* \"#utility.yul\":440:441   */\n  dup1\n    /* \"#utility.yul\":433:445   */\n  revert\n    /* \"#utility.yul\":457:574   */\ntag_18:\n    /* \"#utility.yul\":566:567   */\n  0x00\n    /* \"#utility.yul\":563:564   */\n  dup1\n    /* \"#utility.yul\":556:568   */\n  revert\n    /* \"#utility.yul\":580:682   */\ntag_19:\n    /* \"#utility.yul\":621:627   */\n  0x00\n    /* \"#utility.yul\":672:674   */\n  0x1f\n    /* \"#utility.yul\":668:675   */\n  not\n    /* \"#utility.yul\":663:665   */\n  0x1f\n    /* \"#utility.yul\":656:661   */\n  dup4\n    /* \"#utility.yul\":652:666   */\n  add\n    /* \"#utility.yul\":648:676   */\n  and\n    /* \"#utility.yul\":638:676   */\n  swap1\n  pop\n    /* \"#utility.yul\":580:682   */\n  swap2\n  swap1\n  pop\n  jump\t// out\n    /* \"#utility.yul\":688:868   */\ntag_20:\n    /* \"#utility.yul\":736:813   */\n  0x4e487b7100000000000000000000000000000000000000000000000000000000\n    /* \"#utility.yul\":733:734   */\n  0x00\n    /* \"#utility.yul\":726:814   */\n  mstore\n    /* \"#utility.yul\":833:837   */\n  0x41\n    /* \"#utility.yul\":830:831   */\n  0x04\n    /* \"#utility.yul\":823:838   */\n  mstore\n    /* \"#utility.yul\":857:861   */\n  0x24\n    /* \"#utility.yul\":854:855   */\n  0x00\n    /* \"#utility.yul\":847:862   */\n  revert\n    /* \"#utility.yul\":874:1155   */\ntag_21:\n    /* \"#utility.yul\":957:984   */\n  tag_64\n    /* \"#utility.yul\":979:983   */\n  dup3\n    /* \"#utility.yul\":957:984   */\n  tag_19\n  jump\t// in\ntag_64:\n    /* \"#utility.yul\":949:955   */\n  dup2\n    /* \"#utility.yul\":945:985   */\n  add\n    /* \"#utility.yul\":1087:1093   */\n  dup2\n    /* \"#utility.yul\":1075:1085   */\n  dup2\n    /* \"#utility.yul\":1072:1094   */\n  lt\n    /* \"#utility.yul\":1051:1069   */\n  0xffffffffffffffff\n    /* \"#utility.yul\":1039:1049   */\n  dup3\n    /* \"#utility.yul\":1036:1070   */\n  gt\n    /* \"#utility.yul\":1033:1095   */\n  or\n    /* \"#utility.yul\":1030:1118   */\n  iszero\n  tag_65\n  jumpi\n    /* \"#utility.yul\":1098:1116   */\n  tag_66\n  tag_20\n  jump\t// in\ntag_66:\n    /* \"#utility.yul\":1030:1118   */\ntag_65:\n    /* \"#utility.yul\":1138:1148   */\n  dup1\n    /* \"#utility.yul\":1134:1136   */\n  0x40\n    /* \"#utility.yul\":1127:1149   */\n  mstore\n    /* \"#utility.yul\":917:1155   */\n  pop\n    /* \"#utility.yul\":874:1155   */\n  pop\n  pop\n  jump\t// out\n    /* \"#utility.yul\":1161:1290   */\ntag_22:\n    /* \"#utility.yul\":1195:1201   */\n  0x00\n    /* \"#utility.yul\":1222:1242   */\n  tag_68\n  tag_14\n  jump\t// in\ntag_68:\n    /* \"#utility.yul\":1212:1242   */\n  swap1\n  pop\n    /* \"#utility.yul\":1251:1284   */\n  tag_69\n    /* \"#utility.yul\":1279:1283   */\n  dup3\n    /* \"#utility.yul\":1271:1277   */\n  dup3\n    /* \"#utility.yul\":1251:1284   */\n  tag_21\n  jump\t// in\ntag_69:\n    /* \"#utility.yul\":1161:1290   */\n  swap2\n  swap1\n  pop\n  jump\t// out\n    /* \"#utility.yul\":1296:1604   */\ntag_23:\n    /* \"#utility.yul\":1358:1362   */\n  0x00\n    /* \"#utility.yul\":1448:1466   */\n  0xffffffffffffffff\n    /* \"#utility.yul\":1440:1446   */\n  dup3\n    /* \"#utility.yul\":1437:1467   */\n  gt\n    /* \"#utility.yul\":1434:1490   */\n  iszero\n  tag_71\n  jumpi\n    /* \"#utility.yul\":1470:1488   */\n  tag_72\n  tag_20\n  jump\t// in\ntag_72:\n    /* \"#utility.yul\":1434:1490   */\ntag_71:\n    /* \"#utility.yul\":1508:1537   */\n  tag_73\n    /* \"#utility.yul\":1530:1536   */\n  dup3\n    /* \"#utility.yul\":1508:1537   */\n  tag_19\n  jump\t// in\ntag_73:\n    /* \"#utility.yul\":1500:1537   */\n  swap1\n  pop\n    /* \"#utility.yul\":1592:1596   */\n  0x20\n    /* \"#utility.yul\":1586:1590   */\n  dup2\n    /* \"#utility.yul\":1582:1597   */\n  add\n    /* \"#utility.yul\":1574:1597   */\n  swap1\n  pop\n    /* \"#utility.yul\":1296:1604   */\n  swap2\n  swap1\n  pop\n  jump\t// out\n    /* \"#utility.yul\":1610:1856   */\ntag_24:\n    /* \"#utility.yul\":1691:1692   */\n  0x00\n    /* \"#utility.yul\":1701:1814   */\ntag_75:\n    /* \"#utility.yul\":1715:1721   */\n  dup4\n    /* \"#utility.yul\":1712:1713   */\n  dup2\n    /* \"#utility.yul\":1709:1722   */\n  lt\n    /* \"#utility.yul\":1701:1814   */\n  iszero\n  tag_77\n  jumpi\n    /* \"#utility.yul\":1800:1801   */\n  dup1\n    /* \"#utility.yul\":1795:1798   */\n  dup3\n    /* \"#utility.yul\":1791:1802   */\n  add\n    /* \"#utility.yul\":1785:1803   */\n  mload\n    /* \"#utility.yul\":1781:1782   */\n  dup2\n    /* \"#utility.yul\":1776:1779   */\n  dup5\n    /* \"#utility.yul\":1772:1783   */\n  add\n    /* \"#utility.yul\":1765:1804   */\n  mstore\n    /* \"#utility.yul\":1737:1739   */\n  0x20\n    /* \"#utility.yul\":1734:1735   */\n  dup2\n    /* \"#utility.yul\":1730:1740   */\n  add\n    /* \"#utility.yul\":1725:1740   */\n  swap1\n  pop\n    /* \"#utility.yul\":1701:1814   */\n  jump(tag_75)\ntag_77:\n    /* \"#utility.yul\":1848:1849   */\n  0x00\n    /* \"#utility.yul\":1839:1845   */\n  dup5\n    /* \"#utility.yul\":1834:1837   */\n  dup5\n    /* \"#utility.yul\":1830:1846   */\n  add\n    /* \"#utility.yul\":1823:1850   */\n  mstore\n    /* \"#utility.yul\":1672:1856   */\n  pop\n    /* \"#utility.yul\":1610:1856   */\n  pop\n  pop\n  pop\n  jump\t// out\n    /* \"#utility.yul\":1862:2296   */\ntag_25:\n    /* \"#utility.yul\":1951:1956   */\n  0x00\n    /* \"#utility.yul\":1976:2042   */\n  tag_79\n    /* \"#utility.yul\":1992:2041   */\n  tag_80\n    /* \"#utility.yul\":2034:2040   */\n  dup5\n    /* \"#utility.yul\":1992:2041   */\n  tag_23\n  jump\t// in\ntag_80:\n    /* \"#utility.yul\":1976:2042   */\n  tag_22\n  jump\t// in\ntag_79:\n    /* \"#utility.yul\":1967:2042   */\n  swap1\n  pop\n    /* \"#utility.yul\":2065:2071   */\n  dup3\n    /* \"#utility.yul\":2058:2063   */\n  dup2\n    /* \"#utility.yul\":2051:2072   */\n  mstore\n    /* \"#utility.yul\":2103:2107   */\n  0x20\n    /* \"#utility.yul\":2096:2101   */\n  dup2\n    /* \"#utility.yul\":2092:2108   */\n  add\n    /* \"#utility.yul\":2141:2144   */\n  dup5\n    /* \"#utility.yul\":2132:2138   */\n  dup5\n    /* \"#utility.yul\":2127:2130   */\n  dup5\n    /* \"#utility.yul\":2123:2139   */\n  add\n    /* \"#utility.yul\":2120:2145   */\n  gt\n    /* \"#utility.yul\":2117:2229   */\n  iszero\n  tag_81\n  jumpi\n    /* \"#utility.yul\":2148:2227   */\n  tag_82\n  tag_18\n  jump\t// in\ntag_82:\n    /* \"#utility.yul\":2117:2229   */\ntag_81:\n    /* \"#utility.yul\":2238:2290   */\n  tag_83\n    /* \"#utility.yul\":2283:2289   */\n  dup5\n    /* \"#utility.yul\":2278:2281   */\n  dup3\n    /* \"#utility.yul\":2273:2276   */\n  dup6\n    /* \"#utility.yul\":2238:2290   */\n  tag_24\n  jump\t// in\ntag_83:\n    /* \"#utility.yul\":1957:2296   */\n  pop\n    /* \"#utility.yul\":1862:2296   */\n  swap4\n  swap3\n  pop\n  pop\n  pop\n  jump\t// out\n    /* \"#utility.yul\":2316:2671   */\ntag_26:\n    /* \"#utility.yul\":2383:2388   */\n  0x00\n    /* \"#utility.yul\":2432:2435   */\n  dup3\n    /* \"#utility.yul\":2425:2429   */\n  0x1f\n    /* \"#utility.yul\":2417:2423   */\n  dup4\n    /* \"#utility.yul\":2413:2430   */\n  add\n    /* \"#utility.yul\":2409:2436   */\n  slt\n    /* \"#utility.yul\":2399:2521   */\n  tag_85\n  jumpi\n    /* \"#utility.yul\":2440:2519   */\n  tag_86\n  tag_17\n  jump\t// in\ntag_86:\n    /* \"#utility.yul\":2399:2521   */\ntag_85:\n    /* \"#utility.yul\":2550:2556   */\n  dup2\n    /* \"#utility.yul\":2544:2557   */\n  mload\n    /* \"#utility.yul\":2575:2665   */\n  tag_87\n    /* \"#utility.yul\":2661:2664   */\n  dup5\n    /* \"#utility.yul\":2653:2659   */\n  dup3\n    /* \"#utility.yul\":2646:2650   */\n  0x20\n    /* \"#utility.yul\":2638:2644   */\n  dup7\n    /* \"#utility.yul\":2634:2651   */\n  add\n    /* \"#utility.yul\":2575:2665   */\n  tag_25\n  jump\t// in\ntag_87:\n    /* \"#utility.yul\":2566:2665   */\n  swap2\n  pop\n    /* \"#utility.yul\":2389:2671   */\n  pop\n    /* \"#utility.yul\":2316:2671   */\n  swap3\n  swap2\n  pop\n  pop\n  jump\t// out\n    /* \"#utility.yul\":2677:2763   */\ntag_27:\n    /* \"#utility.yul\":2712:2719   */\n  0x00\n    /* \"#utility.yul\":2752:2756   */\n  0xff\n    /* \"#utility.yul\":2745:2750   */\n  dup3\n    /* \"#utility.yul\":2741:2757   */\n  and\n    /* \"#utility.yul\":2730:2757   */\n  swap1\n  pop\n    /* \"#utility.yul\":2677:2763   */\n  swap2\n  swap1\n  pop\n  jump\t// out\n    /* \"#utility.yul\":2769:2887   */\ntag_28:\n    /* \"#utility.yul\":2840:2862   */\n  tag_90\n    /* \"#utility.yul\":2856:2861   */\n  dup2\n    /* \"#utility.yul\":2840:2862   */\n  tag_27\n  jump\t// in\ntag_90:\n    /* \"#utility.yul\":2833:2838   */\n  dup2\n    /* \"#utility.yul\":2830:2863   */\n  eq\n    /* \"#utility.yul\":2820:2881   */\n  tag_91\n  jumpi\n    /* \"#utility.yul\":2877:2878   */\n  0x00\n    /* \"#utility.yul\":2874:2875   */\n  dup1\n    /* \"#utility.yul\":2867:2879   */\n  revert\n    /* \"#utility.yul\":2820:2881   */\ntag_91:\n    /* \"#utility.yul\":2769:2887   */\n  pop\n  jump\t// out\n    /* \"#utility.yul\":2893:3032   */\ntag_29:\n    /* \"#utility.yul\":2948:2953   */\n  0x00\n    /* \"#utility.yul\":2979:2985   */\n  dup2\n    /* \"#utility.yul\":2973:2986   */\n  mload\n    /* \"#utility.yul\":2964:2986   */\n  swap1\n  pop\n    /* \"#utility.yul\":2995:3026   */\n  tag_93\n    /* \"#utility.yul\":3020:3025   */\n  dup2\n    /* \"#utility.yul\":2995:3026   */\n  tag_28\n  jump\t// in\ntag_93:\n    /* \"#utility.yul\":2893:3032   */\n  swap3\n  swap2\n  pop\n  pop\n  jump\t// out\n    /* \"#utility.yul\":3038:3115   */\ntag_30:\n    /* \"#utility.yul\":3075:3082   */\n  0x00\n    /* \"#utility.yul\":3104:3109   */\n  dup2\n    /* \"#utility.yul\":3093:3109   */\n  swap1\n  pop\n    /* \"#utility.yul\":3038:3115   */\n  swap2\n  swap1\n  pop\n  jump\t// out\n    /* \"#utility.yul\":3121:3243   */\ntag_31:\n    /* \"#utility.yul\":3194:3218   */\n  tag_96\n    /* \"#utility.yul\":3212:3217   */\n  dup2\n    /* \"#utility.yul\":3194:3218   */\n  tag_30\n  jump\t// in\ntag_96:\n    /* \"#utility.yul\":3187:3192   */\n  dup2\n    /* \"#utility.yul\":3184:3219   */\n  eq\n    /* \"#utility.yul\":3174:3237   */\n  tag_97\n  jumpi\n    /* \"#utility.yul\":3233:3234   */\n  0x00\n    /* \"#utility.yul\":3230:3231   */\n  dup1\n    /* \"#utility.yul\":3223:3235   */\n  revert\n    /* \"#utility.yul\":3174:3237   */\ntag_97:\n    /* \"#utility.yul\":3121:3243   */\n  pop\n  jump\t// out\n    /* \"#utility.yul\":3249:3392   */\ntag_32:\n    /* \"#utility.yul\":3306:3311   */\n  0x00\n    /* \"#utility.yul\":3337:3343   */\n  dup2\n    /* \"#utility.yul\":3331:3344   */\n  mload\n    /* \"#utility.yul\":3322:3344   */\n  swap1\n  pop\n    /* \"#utility.yul\":3353:3386   */\n  tag_99\n    /* \"#utility.yul\":3380:3385   */\n  dup2\n    /* \"#utility.yul\":3353:3386   */\n  tag_31\n  jump\t// in\ntag_99:\n    /* \"#utility.yul\":3249:3392   */\n  swap3\n  swap2\n  pop\n  pop\n  jump\t// out\n    /* \"#utility.yul\":3398:4560   */\ntag_3:\n    /* \"#utility.yul\":3513:3519   */\n  0x00\n    /* \"#utility.yul\":3521:3527   */\n  dup1\n    /* \"#utility.yul\":3529:3535   */\n  0x00\n    /* \"#utility.yul\":3537:3543   */\n  dup1\n    /* \"#utility.yul\":3586:3589   */\n  0x80\n    /* \"#utility.yul\":3574:3583   */\n  dup6\n    /* \"#utility.yul\":3565:3572   */\n  dup8\n    /* \"#utility.yul\":3561:3584   */\n  sub\n    /* \"#utility.yul\":3557:3590   */\n  slt\n    /* \"#utility.yul\":3554:3674   */\n  iszero\n  tag_101\n  jumpi\n    /* \"#utility.yul\":3593:3672   */\n  tag_102\n  tag_15\n  jump\t// in\ntag_102:\n    /* \"#utility.yul\":3554:3674   */\ntag_101:\n    /* \"#utility.yul\":3734:3735   */\n  0x00\n    /* \"#utility.yul\":3723:3732   */\n  dup6\n    /* \"#utility.yul\":3719:3736   */\n  add\n    /* \"#utility.yul\":3713:3737   */\n  mload\n    /* \"#utility.yul\":3764:3782   */\n  0xffffffffffffffff\n    /* \"#utility.yul\":3756:3762   */\n  dup2\n    /* \"#utility.yul\":3753:3783   */\n  gt\n    /* \"#utility.yul\":3750:3867   */\n  iszero\n  tag_103\n  jumpi\n    /* \"#utility.yul\":3786:3865   */\n  tag_104\n  tag_16\n  jump\t// in\ntag_104:\n    /* \"#utility.yul\":3750:3867   */\ntag_103:\n    /* \"#utility.yul\":3891:3965   */\n  tag_105\n    /* \"#utility.yul\":3957:3964   */\n  dup8\n    /* \"#utility.yul\":3948:3954   */\n  dup3\n    /* \"#utility.yul\":3937:3946   */\n  dup9\n    /* \"#utility.yul\":3933:3955   */\n  add\n    /* \"#utility.yul\":3891:3965   */\n  tag_26\n  jump\t// in\ntag_105:\n    /* \"#utility.yul\":3881:3965   */\n  swap5\n  pop\n    /* \"#utility.yul\":3684:3975   */\n  pop\n    /* \"#utility.yul\":4035:4037   */\n  0x20\n    /* \"#utility.yul\":4024:4033   */\n  dup6\n    /* \"#utility.yul\":4020:4038   */\n  add\n    /* \"#utility.yul\":4014:4039   */\n  mload\n    /* \"#utility.yul\":4066:4084   */\n  0xffffffffffffffff\n    /* \"#utility.yul\":4058:4064   */\n  dup2\n    /* \"#utility.yul\":4055:4085   */\n  gt\n    /* \"#utility.yul\":4052:4169   */\n  iszero\n  tag_106\n  jumpi\n    /* \"#utility.yul\":4088:4167   */\n  tag_107\n  tag_16\n  jump\t// in\ntag_107:\n    /* \"#utility.yul\":4052:4169   */\ntag_106:\n    /* \"#utility.yul\":4193:4267   */\n  tag_108\n    /* \"#utility.yul\":4259:4266   */\n  dup8\n    /* \"#utility.yul\":4250:4256   */\n  dup3\n    /* \"#utility.yul\":4239:4248   */\n  dup9\n    /* \"#utility.yul\":4235:4257   */\n  add\n    /* \"#utility.yul\":4193:4267   */\n  tag_26\n  jump\t// in\ntag_108:\n    /* \"#utility.yul\":4183:4267   */\n  swap4\n  pop\n    /* \"#utility.yul\":3985:4277   */\n  pop\n    /* \"#utility.yul\":4316:4318   */\n  0x40\n    /* \"#utility.yul\":4342:4404   */\n  tag_109\n    /* \"#utility.yul\":4396:4403   */\n  dup8\n    /* \"#utility.yul\":4387:4393   */\n  dup3\n    /* \"#utility.yul\":4376:4385   */\n  dup9\n    /* \"#utility.yul\":4372:4394   */\n  add\n    /* \"#utility.yul\":4342:4404   */\n  tag_29\n  jump\t// in\ntag_109:\n    /* \"#utility.yul\":4332:4404   */\n  swap3\n  pop\n    /* \"#utility.yul\":4287:4414   */\n  pop\n    /* \"#utility.yul\":4453:4455   */\n  0x60\n    /* \"#utility.yul\":4479:4543   */\n  tag_110\n    /* \"#utility.yul\":4535:4542   */\n  dup8\n    /* \"#utility.yul\":4526:4532   */\n  dup3\n    /* \"#utility.yul\":4515:4524   */\n  dup9\n    /* \"#utility.yul\":4511:4533   */\n  add\n    /* \"#utility.yul\":4479:4543   */\n  tag_32\n  jump\t// in\ntag_110:\n    /* \"#utility.yul\":4469:4543   */\n  swap2\n  pop\n    /* \"#utility.yul\":4424:4553   */\n  pop\n    /* \"#utility.yul\":3398:4560   */\n  swap3\n  swap6\n  swap2\n  swap5\n  pop\n  swap3\n  pop\n  jump\t// out\n    /* \"#utility.yul\":4566:4665   */\ntag_33:\n    /* \"#utility.yul\":4618:4624   */\n  0x00\n    /* \"#utility.yul\":4652:4657   */\n  dup2\n    /* \"#utility.yul\":4646:4658   */\n  mload\n    /* \"#utility.yul\":4636:4658   */\n  swap1\n  pop\n    /* \"#utility.yul\":4566:4665   */\n  swap2\n  swap1\n  pop\n  jump\t// out\n    /* \"#utility.yul\":4671:4851   */\ntag_34:\n    /* \"#utility.yul\":4719:4796   */\n  0x4e487b7100000000000000000000000000000000000000000000000000000000\n    /* \"#utility.yul\":4716:4717   */\n  0x00\n    /* \"#utility.yul\":4709:4797   */\n  mstore\n    /* \"#utility.yul\":4816:4820   */\n  0x22\n    /* \"#utility.yul\":4813:4814   */\n  0x04\n    /* \"#utility.yul\":4806:4821   */\n  mstore\n    /* \"#utility.yul\":4840:4844   */\n  0x24\n    /* \"#utility.yul\":4837:4838   */\n  0x00\n    /* \"#utility.yul\":4830:4845   */\n  revert\n    /* \"#utility.yul\":4857:5177   */\ntag_35:\n    /* \"#utility.yul\":4901:4907   */\n  0x00\n    /* \"#utility.yul\":4938:4939   */\n  0x02\n    /* \"#utility.yul\":4932:4936   */\n  dup3\n    /* \"#utility.yul\":4928:4940   */\n  div\n    /* \"#utility.yul\":4918:4940   */\n  swap1\n  pop\n    /* \"#utility.yul\":4985:4986   */\n  0x01\n    /* \"#utility.yul\":4979:4983   */\n  dup3\n    /* \"#utility.yul\":4975:4987   */\n  and\n    /* \"#utility.yul\":5006:5024   */\n  dup1\n    /* \"#utility.yul\":4996:5077   */\n  tag_114\n  jumpi\n    /* \"#utility.yul\":5062:5066   */\n  0x7f\n    /* \"#utility.yul\":5054:5060   */\n  dup3\n    /* \"#utility.yul\":5050:5067   */\n  and\n    /* \"#utility.yul\":5040:5067   */\n  swap2\n  pop\n    /* \"#utility.yul\":4996:5077   */\ntag_114:\n    /* \"#utility.yul\":5124:5126   */\n  0x20\n    /* \"#utility.yul\":5116:5122   */\n  dup3\n    /* \"#utility.yul\":5113:5127   */\n  lt\n    /* \"#utility.yul\":5093:5111   */\n  dup2\n    /* \"#utility.yul\":5090:5128   */\n  sub\n    /* \"#utility.yul\":5087:5171   */\n  tag_115\n  jumpi\n    /* \"#utility.yul\":5143:5161   */\n  tag_116\n  tag_34\n  jump\t// in\ntag_116:\n    /* \"#utility.yul\":5087:5171   */\ntag_115:\n    /* \"#utility.yul\":4908:5177   */\n  pop\n    /* \"#utility.yul\":4857:5177   */\n  swap2\n  swap1\n  pop\n  jump\t// out\n    /* \"#utility.yul\":5183:5324   */\ntag_36:\n    /* \"#utility.yul\":5232:5236   */\n  0x00\n    /* \"#utility.yul\":5255:5258   */\n  dup2\n    /* \"#utility.yul\":5247:5258   */\n  swap1\n  pop\n    /* \"#utility.yul\":5278:5281   */\n  dup2\n    /* \"#utility.yul\":5275:5276   */\n  0x00\n    /* \"#utility.yul\":5268:5282   */\n  mstore\n    /* \"#utility.yul\":5312:5316   */\n  0x20\n    /* \"#utility.yul\":5309:5310   */\n  0x00\n    /* \"#utility.yul\":5299:5317   */\n  keccak256\n    /* \"#utility.yul\":5291:5317   */\n  swap1\n  pop\n    /* \"#utility.yul\":5183:5324   */\n  swap2\n  swap1\n  pop\n  jump\t// out\n    /* \"#utility.yul\":5330:5423   */\ntag_37:\n    /* \"#utility.yul\":5367:5373   */\n  0x00\n    /* \"#utility.yul\":5414:5416   */\n  0x20\n    /* \"#utility.yul\":5409:5411   */\n  0x1f\n    /* \"#utility.yul\":5402:5407   */\n  dup4\n    /* \"#utility.yul\":5398:5412   */\n  add\n    /* \"#utility.yul\":5394:5417   */\n  div\n    /* \"#utility.yul\":5384:5417   */\n  swap1\n  pop\n    /* \"#utility.yul\":5330:5423   */\n  swap2\n  swap1\n  pop\n  jump\t// out\n    /* \"#utility.yul\":5429:5536   */\ntag_38:\n    /* \"#utility.yul\":5473:5481   */\n  0x00\n    /* \"#utility.yul\":5523:5528   */\n  dup3\n    /* \"#utility.yul\":5517:5521   */\n  dup3\n    /* \"#utility.yul\":5513:5529   */\n  shl\n    /* \"#utility.yul\":5492:5529   */\n  swap1\n  pop\n    /* \"#utility.yul\":5429:5536   */\n  swap3\n  swap2\n  pop\n  pop\n  jump\t// out\n    /* \"#utility.yul\":5542:5935   */\ntag_39:\n    /* \"#utility.yul\":5611:5617   */\n  0x00\n    /* \"#utility.yul\":5661:5662   */\n  0x08\n    /* \"#utility.yul\":5649:5659   */\n  dup4\n    /* \"#utility.yul\":5645:5663   */\n  mul\n    /* \"#utility.yul\":5684:5781   */\n  tag_121\n    /* \"#utility.yul\":5714:5780   */\n  0xffffffffffffffffffffffffffffffffffffffffffffffffffffffffffffffff\n    /* \"#utility.yul\":5703:5712   */\n  dup3\n    /* \"#utility.yul\":5684:5781   */\n  tag_38\n  jump\t// in\ntag_121:\n    /* \"#utility.yul\":5802:5841   */\n  tag_122\n    /* \"#utility.yul\":5832:5840   */\n  dup7\n    /* \"#utility.yul\":5821:5830   */\n  dup4\n    /* \"#utility.yul\":5802:5841   */\n  tag_38\n  jump\t// in\ntag_122:\n    /* \"#utility.yul\":5790:5841   */\n  swap6\n  pop\n    /* \"#utility.yul\":5874:5878   */\n  dup1\n    /* \"#utility.yul\":5870:5879   */\n  not\n    /* \"#utility.yul\":5863:5868   */\n  dup5\n    /* \"#utility.yul\":5859:5880   */\n  and\n    /* \"#utility.yul\":5850:5880   */\n  swap4\n  pop\n    /* \"#utility.yul\":5923:5927   */\n  dup1\n    /* \"#utility.yul\":5913:5921   */\n  dup7\n    /* \"#utility.yul\":5909:5928   */\n  and\n    /* \"#utility.yul\":5902:5907   */\n  dup5\n    /* \"#utility.yul\":5899:5929   */\n  or\n    /* \"#utility.yul\":5889:5929   */\n  swap3\n  pop\n    /* \"#utility.yul\":5618:5935   */\n  pop\n  pop\n    /* \"#utility.yul\":5542:5935   */\n  swap4\n  swap3\n  pop\n  pop\n  pop\n  jump\t// out\n    /* \"#utility.yul\":5941:6001   */\ntag_40:\n    /* \"#utility.yul\":5969:5972   */\n  0x00\n    /* \"#utility.yul\":5990:5995   */\n  dup2\n    /* \"#utility.yul\":5983:5995   */\n  swap1\n  pop\n    /* \"#utility.yul\":5941:6001   */\n  swap2\n  swap1\n  pop\n  jump\t// out\n    /* \"#utility.yul\":6007:6149   */\ntag_41:\n    /* \"#utility.yul\":6057:6066   */\n  0x00\n    /* \"#utility.yul\":6090:6143   */\n  tag_125\n    /* \"#utility.yul\":6108:6142   */\n  tag_126\n    /* \"#utility.yul\":6117:6141   */\n  tag_127\n    /* \"#utility.yul\":6135:6140   */\n  dup5\n    /* \"#utility.yul\":6117:6141   */\n  tag_30\n  jump\t// in\ntag_127:\n    /* \"#utility.yul\":6108:6142   */\n  tag_40\n  jump\t// in\ntag_126:\n    /* \"#utility.yul\":6090:6143   */\n  tag_30\n  jump\t// in\ntag_125:\n    /* \"#utility.yul\":6077:6143   */\n  swap1\n  pop\n    /* \"#utility.yul\":6007:6149   */\n  swap2\n  swap1\n  pop\n  jump\t// out\n    /* \"#utility.yul\":6155:6230   */\ntag_42:\n    /* \"#utility.yul\":6198:6201   */\n  0x00\n    /* \"#utility.yul\":6219:6224   */\n  dup2\n    /* \"#utility.yul\":6212:6224   */\n  swap1\n  pop\n    /* \"#utility.yul\":6155:6230   */\n  swap2\n  swap1\n  pop\n  jump\t// out\n    /* \"#utility.yul\":6236:6505   */\ntag_43:\n    /* \"#utility.yul\":6346:6385   */\n  tag_130\n    /* \"#utility.yul\":6377:6384   */\n  dup4\n    /* \"#utility.yul\":6346:6385   */\n  tag_41\n  jump\t// in\ntag_130:\n    /* \"#utility.yul\":6407:6498   */\n  tag_131\n    /* \"#utility.yul\":6456:6497   */\n  tag_132\n    /* \"#utility.yul\":6480:6496   */\n  dup3\n    /* \"#utility.yul\":6456:6497   */\n  tag_42\n  jump\t// in\ntag_132:\n    /* \"#utility.yul\":6448:6454   */\n  dup5\n    /* \"#utility.yul\":6441:6445   */\n  dup5\n    /* \"#utility.yul\":6435:6446   */\n  sload\n    /* \"#utility.yul\":6407:6498   */\n  tag_39\n  jump\t// in\ntag_131:\n    /* \"#utility.yul\":6401:6405   */\n  dup3\n    /* \"#utility.yul\":6394:6499   */\n  sstore\n    /* \"#utility.yul\":6312:6505   */\n  pop\n    /* \"#utility.yul\":6236:6505   */\n  pop\n  pop\n  pop\n  jump\t// out\n    /* \"#utility.yul\":6511:6584   */\ntag_44:\n    /* \"#utility.yul\":6556:6559   */\n  0x00\n    /* \"#utility.yul\":6511:6584   */\n  swap1\n  jump\t// out\n    /* \"#utility.yul\":6590:6779   */\ntag_45:\n    /* \"#utility.yul\":6667:6699   */\n  tag_135\n  tag_44\n  jump\t// in\ntag_135:\n    /* \"#utility.yul\":6708:6773   */\n  tag_136\n    /* \"#utility.yul\":6766:6772   */\n  dup2\n    /* \"#utility.yul\":6758:6764   */\n  dup5\n    /* \"#utility.yul\":6752:6756   */\n  dup5\n    /* \"#utility.yul\":6708:6773   */\n  tag_43\n  jump\t// in\ntag_136:\n    /* \"#utility.yul\":6643:6779   */\n  pop\n    /* \"#utility.yul\":6590:6779   */\n  pop\n  pop\n  jump\t// out\n    /* \"#utility.yul\":6785:6971   */\ntag_46:\n    /* \"#utility.yul\":6845:6965   */\ntag_138:\n    /* \"#utility.yul\":6862:6865   */\n  dup2\n    /* \"#utility.yul\":6855:6860   */\n  dup2\n    /* \"#utility.yul\":6852:6866   */\n  lt\n    /* \"#utility.yul\":6845:6965   */\n  iszero\n  tag_140\n  jumpi\n    /* \"#utility.yul\":6916:6955   */\n  tag_141\n    /* \"#utility.yul\":6953:6954   */\n  0x00\n    /* \"#utility.yul\":6946:6951   */\n  dup3\n    /* \"#utility.yul\":6916:6955   */\n  tag_45\n  jump\t// in\ntag_141:\n    /* \"#utility.yul\":6889:6890   */\n  0x01\n    /* \"#utility.yul\":6882:6887   */\n  dup2\n    /* \"#utility.yul\":6878:6891   */\n  add\n    /* \"#utility.yul\":6869:6891   */\n  swap1\n  pop\n    /* \"#utility.yul\":6845:6965   */\n  jump(tag_138)\ntag_140:\n    /* \"#utility.yul\":6785:6971   */\n  pop\n  pop\n  jump\t// out\n    /* \"#utility.yul\":6977:7520   */\ntag_47:\n    /* \"#utility.yul\":7078:7080   */\n  0x1f\n    /* \"#utility.yul\":7073:7076   */\n  dup3\n    /* \"#utility.yul\":7070:7081   */\n  gt\n    /* \"#utility.yul\":7067:7513   */\n  iszero\n  tag_143\n  jumpi\n    /* \"#utility.yul\":7112:7150   */\n  tag_144\n    /* \"#utility.yul\":7144:7149   */\n  dup2\n    /* \"#utility.yul\":7112:7150   */\n  tag_36\n  jump\t// in\ntag_144:\n    /* \"#utility.yul\":7196:7225   */\n  tag_145\n    /* \"#utility.yul\":7214:7224   */\n  dup5\n    /* \"#utility.yul\":7196:7225   */\n  tag_37\n  jump\t// in\ntag_145:\n    /* \"#utility.yul\":7186:7194   */\n  dup2\n    /* \"#utility.yul\":7182:7226   */\n  add\n    /* \"#utility.yul\":7379:7381   */\n  0x20\n    /* \"#utility.yul\":7367:7377   */\n  dup6\n    /* \"#utility.yul\":7364:7382   */\n  lt\n    /* \"#utility.yul\":7361:7410   */\n  iszero\n  tag_146\n  jumpi\n    /* \"#utility.yul\":7400:7408   */\n  dup2\n    /* \"#utility.yul\":7385:7408   */\n  swap1\n  pop\n    /* \"#utility.yul\":7361:7410   */\ntag_146:\n    /* \"#utility.yul\":7423:7503   */\n  tag_147\n    /* \"#utility.yul\":7479:7501   */\n  tag_148\n    /* \"#utility.yul\":7497:7500   */\n  dup6\n    /* \"#utility.yul\":7479:7501   */\n  tag_37\n  jump\t// in\ntag_148:\n    /* \"#utility.yul\":7469:7477   */\n  dup4\n    /* \"#utility.yul\":7465:7502   */\n  add\n    /* \"#utility.yul\":7452:7463   */\n  dup3\n    /* \"#utility.yul\":7423:7503   */\n  tag_46\n  jump\t// in\ntag_147:\n    /* \"#utility.yul\":7082:7513   */\n  pop\n  pop\n    /* \"#utility.yul\":7067:7513   */\ntag_143:\n    /* \"#utility.yul\":6977:7520   */\n  pop\n  pop\n  pop\n  jump\t// out\n    /* \"#utility.yul\":7526:7643   */\ntag_48:\n    /* \"#utility.yul\":7580:7588   */\n  0x00\n    /* \"#utility.yul\":7630:7635   */\n  dup3\n    /* \"#utility.yul\":7624:7628   */\n  dup3\n    /* \"#utility.yul\":7620:7636   */\n  shr\n    /* \"#utility.yul\":7599:7636   */\n  swap1\n  pop\n    /* \"#utility.yul\":7526:7643   */\n  swap3\n  swap2\n  pop\n  pop\n  jump\t// out\n    /* \"#utility.yul\":7649:7818   */\ntag_49:\n    /* \"#utility.yul\":7693:7699   */\n  0x00\n    /* \"#utility.yul\":7726:7777   */\n  tag_151\n    /* \"#utility.yul\":7774:7775   */\n  0x00\n    /* \"#utility.yul\":7770:7776   */\n  not\n    /* \"#utility.yul\":7762:7767   */\n  dup5\n    /* \"#utility.yul\":7759:7760   */\n  0x08\n    /* \"#utility.yul\":7755:7768   */\n  mul\n    /* \"#utility.yul\":7726:7777   */\n  tag_48\n  jump\t// in\ntag_151:\n    /* \"#utility.yul\":7722:7778   */\n  not\n    /* \"#utility.yul\":7807:7811   */\n  dup1\n    /* \"#utility.yul\":7801:7805   */\n  dup4\n    /* \"#utility.yul\":7797:7812   */\n  and\n    /* \"#utility.yul\":7787:7812   */\n  swap2\n  pop\n    /* \"#utility.yul\":7700:7818   */\n  pop\n    /* \"#utility.yul\":7649:7818   */\n  swap3\n  swap2\n  pop\n  pop\n  jump\t// out\n    /* \"#utility.yul\":7823:8118   */\ntag_50:\n    /* \"#utility.yul\":7899:7903   */\n  0x00\n    /* \"#utility.yul\":8045:8074   */\n  tag_153\n    /* \"#utility.yul\":8070:8073   */\n  dup4\n    /* \"#utility.yul\":8064:8068   */\n  dup4\n    /* \"#utility.yul\":8045:8074   */\n  tag_49\n  jump\t// in\ntag_153:\n    /* \"#utility.yul\":8037:8074   */\n  swap2\n  pop\n    /* \"#utility.yul\":8107:8110   */\n  dup3\n    /* \"#utility.yul\":8104:8105   */\n  0x02\n    /* \"#utility.yul\":8100:8111   */\n  mul\n    /* \"#utility.yul\":8094:8098   */\n  dup3\n    /* \"#utility.yul\":8091:8112   */\n  or\n    /* \"#utility.yul\":8083:8112   */\n  swap1\n  pop\n    /* \"#utility.yul\":7823:8118   */\n  swap3\n  swap2\n  pop\n  pop\n  jump\t// out\n    /* \"#utility.yul\":8123:9518   */\ntag_7:\n    /* \"#utility.yul\":8240:8277   */\n  tag_155\n    /* \"#utility.yul\":8273:8276   */\n  dup3\n    /* \"#utility.yul\":8240:8277   */\n  tag_33\n  jump\t// in\ntag_155:\n    /* \"#utility.yul\":8342:8360   */\n  0xffffffffffffffff\n    /* \"#utility.yul\":8334:8340   */\n  dup2\n    /* \"#utility.yul\":8331:8361   */\n  gt\n    /* \"#utility.yul\":8328:8384   */\n  iszero\n  tag_156\n  jumpi\n    /* \"#utility.yul\":8364:8382   */\n  tag_157\n  tag_20\n  jump\t// in\ntag_157:\n    /* \"#utility.yul\":8328:8384   */\ntag_156:\n    /* \"#utility.yul\":8408:8446   */\n  tag_158\n    /* \"#utility.yul\":8440:8444   */\n  dup3\n    /* \"#utility.yul\":8434:8445   */\n  sload\n    /* \"#utility.yul\":8408:8446   */\n  tag_35\n  jump\t// in\ntag_158:\n    /* \"#utility.yul\":8493:8560   */\n  tag_159\n    /* \"#utility.yul\":8553:8559   */\n  dup3\n    /* \"#utility.yul\":8545:8551   */\n  dup3\n    /* \"#utility.yul\":8539:8543   */\n  dup6\n    /* \"#utility.yul\":8493:8560   */\n  tag_47\n  jump\t// in\ntag_159:\n    /* \"#utility.yul\":8587:8588   */\n  0x00\n    /* \"#utility.yul\":8611:8615   */\n  0x20\n    /* \"#utility.yul\":8598:8615   */\n  swap1\n  pop\n    /* \"#utility.yul\":8643:8645   */\n  0x1f\n    /* \"#utility.yul\":8635:8641   */\n  dup4\n    /* \"#utility.yul\":8632:8646   */\n  gt\n    /* \"#utility.yul\":8660:8661   */\n  0x01\n    /* \"#utility.yul\":8655:9273   */\n  dup2\n  eq\n  tag_161\n  jumpi\n    /* \"#utility.yul\":9317:9318   */\n  0x00\n    /* \"#utility.yul\":9334:9340   */\n  dup5\n    /* \"#utility.yul\":9331:9408   */\n  iszero\n  tag_162\n  jumpi\n    /* \"#utility.yul\":9383:9392   */\n  dup3\n    /* \"#utility.yul\":9378:9381   */\n  dup8\n    /* \"#utility.yul\":9374:9393   */\n  add\n    /* \"#utility.yul\":9368:9394   */\n  mload\n    /* \"#utility.yul\":9359:9394   */\n  swap1\n  pop\n    /* \"#utility.yul\":9331:9408   */\ntag_162:\n    /* \"#utility.yul\":9434:9501   */\n  tag_163\n    /* \"#utility.yul\":9494:9500   */\n  dup6\n    /* \"#utility.yul\":9487:9492   */\n  dup3\n    /* \"#utility.yul\":9434:9501   */\n  tag_50\n  jump\t// in\ntag_163:\n    /* \"#utility.yul\":9428:9432   */\n  dup7\n    /* \"#utility.yul\":9421:9502   */\n  sstore\n    /* \"#utility.yul\":9290:9512   */\n  pop\n    /* \"#utility.yul\":8625:9512   */\n  jump(tag_160)\n    /* \"#utility.yul\":8655:9273   */\ntag_161:\n    /* \"#utility.yul\":8707:8711   */\n  0x1f\n    /* \"#utility.yul\":8703:8712   */\n  not\n    /* \"#utility.yul\":8695:8701   */\n  dup5\n    /* \"#utility.yul\":8691:8713   */\n  and\n    /* \"#utility.yul\":8741:8778   */\n  tag_164\n    /* \"#utility.yul\":8773:8777   */\n  dup7\n    /* \"#utility.yul\":8741:8778   */\n  tag_36\n  jump\t// in\ntag_164:\n    /* \"#utility.yul\":8800:8801   */\n  0x00\n    /* \"#utility.yul\":8814:9022   */\ntag_165:\n    /* \"#utility.yul\":8828:8835   */\n  dup3\n    /* \"#utility.yul\":8825:8826   */\n  dup2\n    /* \"#utility.yul\":8822:8836   */\n  lt\n    /* \"#utility.yul\":8814:9022   */\n  iszero\n  tag_167\n  jumpi\n    /* \"#utility.yul\":8907:8916   */\n  dup5\n    /* \"#utility.yul\":8902:8905   */\n  dup10\n    /* \"#utility.yul\":8898:8917   */\n  add\n    /* \"#utility.yul\":8892:8918   */\n  mload\n    /* \"#utility.yul\":8884:8890   */\n  dup3\n    /* \"#utility.yul\":8877:8919   */\n  sstore\n    /* \"#utility.yul\":8958:8959   */\n  0x01\n    /* \"#utility.yul\":8950:8956   */\n  dup3\n    /* \"#utility.yul\":8946:8960   */\n  add\n    /* \"#utility.yul\":8936:8960   */\n  swap2\n  pop\n    /* \"#utility.yul\":9005:9007   */\n  0x20\n    /* \"#utility.yul\":8994:9003   */\n  dup6\n    /* \"#utility.yul\":8990:9008   */\n  add\n    /* \"#utility.yul\":8977:9008   */\n  swap5\n  pop\n    /* \"#utility.yul\":8851:8855   */\n  0x20\n    /* \"#utility.yul\":8848:8849   */\n  dup2\n    /* \"#utility.yul\":8844:8856   */\n  add\n    /* \"#utility.yul\":8839:8856   */\n  swap1\n  pop\n    /* \"#utility.yul\":8814:9022   */\n  jump(tag_165)\ntag_167:\n    /* \"#utility.yul\":9050:9056   */\n  dup7\n    /* \"#utility.yul\":9041:9048   */\n  dup4\n    /* \"#utility.yul\":9038:9057   */\n  lt\n    /* \"#utility.yul\":9035:9214   */\n  iszero\n  tag_168\n  jumpi\n    /* \"#utility.yul\":9108:9117   */\n  dup5\n    /* \"#utility.yul\":9103:9106   */\n  dup10\n    /* \"#utility.yul\":9099:9118   */\n  add\n    /* \"#utility.yul\":9093:9119   */\n  mload\n    /* \"#utility.yul\":9151:9199   */\n  tag_169\n    /* \"#utility.yul\":9193:9197   */\n  0x1f\n    /* \"#utility.yul\":9185:9191   */\n  dup10\n    /* \"#utility.yul\":9181:9198   */\n  and\n    /* \"#utility.yul\":9170:9179   */\n  dup3\n    /* \"#utility.yul\":9151:9199   */\n  tag_49\n  jump\t// in\ntag_169:\n    /* \"#utility.yul\":9143:9149   */\n  dup4\n    /* \"#utility.yul\":9136:9200   */\n  sstore\n    /* \"#utility.yul\":9058:9214   */\n  pop\n    /* \"#utility.yul\":9035:9214   */\ntag_168:\n    /* \"#utility.yul\":9260:9261   */\n  0x01\n    /* \"#utility.yul\":9256:9257   */\n  0x02\n    /* \"#utility.yul\":9248:9254   */\n  dup9\n    /* \"#utility.yul\":9244:9258   */\n  mul\n    /* \"#utility.yul\":9240:9262   */\n  add\n    /* \"#utility.yul\":9234:9238   */\n  dup9\n    /* \"#utility.yul\":9227:9263   */\n  sstore\n    /* \"#utility.yul\":8662:9273   */\n  pop\n  pop\n  pop\n    /* \"#utility.yul\":8625:9512   */\ntag_160:\n  pop\n    /* \"#utility.yul\":8215:9518   */\n  pop\n  pop\n  pop\n    /* \"#utility.yul\":8123:9518   */\n  pop\n  pop\n  jump\t// out\n    /* \"#utility.yul\":9524:9704   */\ntag_51:\n    /* \"#utility.yul\":9572:9649   */\n  0x4e487b7100000000000000000000000000000000000000000000000000000000\n    /* \"#utility.yul\":9569:9570   */\n  0x00\n    /* \"#utility.yul\":9562:9650   */\n  mstore\n    /* \"#utility.yul\":9669:9673   */\n  0x11\n    /* \"#utility.yul\":9666:9667   */\n  0x04\n    /* \"#utility.yul\":9659:9674   */\n  mstore\n    /* \"#utility.yul\":9693:9697   */\n  0x24\n    /* \"#utility.yul\":9690:9691   */\n  0x00\n    /* \"#utility.yul\":9683:9698   */\n  revert\n    /* \"#utility.yul\":9710:9812   */\ntag_52:\n    /* \"#utility.yul\":9752:9760   */\n  0x00\n    /* \"#utility.yul\":9799:9804   */\n  dup2\n    /* \"#utility.yul\":9796:9797   */\n  0x01\n    /* \"#utility.yul\":9792:9805   */\n  shr\n    /* \"#utility.yul\":9771:9805   */\n  swap1\n  pop\n    /* \"#utility.yul\":9710:9812   */\n  swap2\n  swap1\n  pop\n  jump\t// out\n    /* \"#utility.yul\":9818:10666   */\ntag_53:\n    /* \"#utility.yul\":9879:9884   */\n  0x00\n    /* \"#utility.yul\":9886:9890   */\n  dup1\n    /* \"#utility.yul\":9910:9916   */\n  dup3\n    /* \"#utility.yul\":9901:9916   */\n  swap2\n  pop\n    /* \"#utility.yul\":9934:9939   */\n  dup4\n    /* \"#utility.yul\":9925:9939   */\n  swap1\n  pop\n    /* \"#utility.yul\":9948:10660   */\ntag_173:\n    /* \"#utility.yul\":9969:9970   */\n  0x01\n    /* \"#utility.yul\":9959:9967   */\n  dup6\n    /* \"#utility.yul\":9956:9971   */\n  gt\n    /* \"#utility.yul\":9948:10660   */\n  iszero\n  tag_175\n  jumpi\n    /* \"#utility.yul\":10064:10068   */\n  dup1\n    /* \"#utility.yul\":10059:10062   */\n  dup7\n    /* \"#utility.yul\":10055:10069   */\n  div\n    /* \"#utility.yul\":10049:10053   */\n  dup2\n    /* \"#utility.yul\":10046:10070   */\n  gt\n    /* \"#utility.yul\":10043:10093   */\n  iszero\n  tag_176\n  jumpi\n    /* \"#utility.yul\":10073:10091   */\n  tag_177\n  tag_51\n  jump\t// in\ntag_177:\n    /* \"#utility.yul\":10043:10093   */\ntag_176:\n    /* \"#utility.yul\":10123:10124   */\n  0x01\n    /* \"#utility.yul\":10113:10121   */\n  dup6\n    /* \"#utility.yul\":10109:10125   */\n  and\n    /* \"#utility.yul\":10106:10557   */\n  iszero\n  tag_178\n  jumpi\n    /* \"#utility.yul\":10538:10542   */\n  dup1\n    /* \"#utility.yul\":10531:10536   */\n  dup3\n    /* \"#utility.yul\":10527:10543   */\n  mul\n    /* \"#utility.yul\":10518:10543   */\n  swap2\n  pop\n    /* \"#utility.yul\":10106:10557   */\ntag_178:\n    /* \"#utility.yul\":10588:10592   */\n  dup1\n    /* \"#utility.yul\":10582:10586   */\n  dup2\n    /* \"#utility.yul\":10578:10593   */\n  mul\n    /* \"#utility.yul\":10570:10593   */\n  swap1\n  pop\n    /* \"#utility.yul\":10618:10650   */\n  tag_179\n    /* \"#utility.yul\":10641:10649   */\n  dup6\n    /* \"#utility.yul\":10618:10650   */\n  tag_52\n  jump\t// in\ntag_179:\n    /* \"#utility.yul\":10606:10650   */\n  swap5\n  pop\n    /* \"#utility.yul\":9948:10660   */\n  jump(tag_173)\ntag_175:\n    /* \"#utility.yul\":9818:10666   */\n  swap5\n  pop\n  swap5\n  swap3\n  pop\n  pop\n  pop\n  jump\t// out\n    /* \"#utility.yul\":10672:11745   */\ntag_54:\n    /* \"#utility.yul\":10726:10731   */\n  0x00\n    /* \"#utility.yul\":10917:10925   */\n  dup3\n    /* \"#utility.yul\":10907:10947   */\n  tag_181\n  jumpi\n    /* \"#utility.yul\":10938:10939   */\n  0x01\n    /* \"#utility.yul\":10929:10939   */\n  swap1\n  pop\n    /* \"#utility.yul\":10940:10945   */\n  jump(tag_180)\n    /* \"#utility.yul\":10907:10947   */\ntag_181:\n    /* \"#utility.yul\":10966:10970   */\n  dup2\n    /* \"#utility.yul\":10956:10992   */\n  tag_182\n  jumpi\n    /* \"#utility.yul\":10983:10984   */\n  0x00\n    /* \"#utility.yul\":10974:10984   */\n  swap1\n  pop\n    /* \"#utility.yul\":10985:10990   */\n  jump(tag_180)\n    /* \"#utility.yul\":10956:10992   */\ntag_182:\n    /* \"#utility.yul\":11052:11056   */\n  dup2\n    /* \"#utility.yul\":11100:11101   */\n  0x01\n    /* \"#utility.yul\":11095:11122   */\n  dup2\n  eq\n  tag_184\n  jumpi\n    /* \"#utility.yul\":11136:11137   */\n  0x02\n    /* \"#utility.yul\":11131:11322   */\n  dup2\n  eq\n  tag_185\n  jumpi\n    /* \"#utility.yul\":11045:11322   */\n  jump(tag_183)\n    /* \"#utility.yul\":11095:11122   */\ntag_184:\n    /* \"#utility.yul\":11113:11114   */\n  0x01\n    /* \"#utility.yul\":11104:11114   */\n  swap2\n  pop\n    /* \"#utility.yul\":11115:11120   */\n  pop\n  jump(tag_180)\n    /* \"#utility.yul\":11131:11322   */\ntag_185:\n    /* \"#utility.yul\":11176:11179   */\n  0xff\n    /* \"#utility.yul\":11166:11174   */\n  dup5\n    /* \"#utility.yul\":11163:11180   */\n  gt\n    /* \"#utility.yul\":11160:11203   */\n  iszero\n  tag_186\n  jumpi\n    /* \"#utility.yul\":11183:11201   */\n  tag_187\n  tag_51\n  jump\t// in\ntag_187:\n    /* \"#utility.yul\":11160:11203   */\ntag_186:\n    /* \"#utility.yul\":11232:11240   */\n  dup4\n    /* \"#utility.yul\":11229:11230   */\n  0x02\n    /* \"#utility.yul\":11225:11241   */\n  exp\n    /* \"#utility.yul\":11216:11241   */\n  swap2\n  pop\n    /* \"#utility.yul\":11267:11270   */\n  dup5\n    /* \"#utility.yul\":11260:11265   */\n  dup3\n    /* \"#utility.yul\":11257:11271   */\n  gt\n    /* \"#utility.yul\":11254:11294   */\n  iszero\n  tag_188\n  jumpi\n    /* \"#utility.yul\":11274:11292   */\n  tag_189\n  tag_51\n  jump\t// in\ntag_189:\n    /* \"#utility.yul\":11254:11294   */\ntag_188:\n    /* \"#utility.yul\":11307:11312   */\n  pop\n  jump(tag_180)\n    /* \"#utility.yul\":11045:11322   */\ntag_183:\n  pop\n    /* \"#utility.yul\":11431:11433   */\n  0x20\n    /* \"#utility.yul\":11421:11429   */\n  dup4\n    /* \"#utility.yul\":11418:11434   */\n  lt\n    /* \"#utility.yul\":11412:11415   */\n  0x0133\n    /* \"#utility.yul\":11406:11410   */\n  dup4\n    /* \"#utility.yul\":11403:11416   */\n  lt\n    /* \"#utility.yul\":11399:11435   */\n  and\n    /* \"#utility.yul\":11381:11383   */\n  0x4e\n    /* \"#utility.yul\":11371:11379   */\n  dup5\n    /* \"#utility.yul\":11368:11384   */\n  lt\n    /* \"#utility.yul\":11363:11365   */\n  0x0b\n    /* \"#utility.yul\":11357:11361   */\n  dup5\n    /* \"#utility.yul\":11354:11366   */\n  lt\n    /* \"#utility.yul\":11350:11385   */\n  and\n    /* \"#utility.yul\":11334:11445   */\n  or\n    /* \"#utility.yul\":11331:11577   */\n  iszero\n  tag_190\n  jumpi\n    /* \"#utility.yul\":11487:11495   */\n  dup3\n    /* \"#utility.yul\":11481:11485   */\n  dup3\n    /* \"#utility.yul\":11477:11496   */\n  exp\n    /* \"#utility.yul\":11468:11496   */\n  swap1\n  pop\n    /* \"#utility.yul\":11522:11525   */\n  dup4\n    /* \"#utility.yul\":11515:11520   */\n  dup2\n    /* \"#utility.yul\":11512:11526   */\n  gt\n    /* \"#utility.yul\":11509:11549   */\n  iszero\n  tag_191\n  jumpi\n    /* \"#utility.yul\":11529:11547   */\n  tag_192\n  tag_51\n  jump\t// in\ntag_192:\n    /* \"#utility.yul\":11509:11549   */\ntag_191:\n    /* \"#utility.yul\":11562:11567   */\n  jump(tag_180)\n    /* \"#utility.yul\":11331:11577   */\ntag_190:\n    /* \"#utility.yul\":11602:11644   */\n  tag_193\n    /* \"#utility.yul\":11640:11643   */\n  dup5\n    /* \"#utility.yul\":11630:11638   */\n  dup5\n    /* \"#utility.yul\":11624:11628   */\n  dup5\n    /* \"#utility.yul\":11621:11622   */\n  0x01\n    /* \"#utility.yul\":11602:11644   */\n  tag_53\n  jump\t// in\ntag_193:\n    /* \"#utility.yul\":11587:11644   */\n  swap3\n  pop\n  swap1\n  pop\n    /* \"#utility.yul\":11676:11680   */\n  dup2\n    /* \"#utility.yul\":11671:11674   */\n  dup5\n    /* \"#utility.yul\":11667:11681   */\n  div\n    /* \"#utility.yul\":11660:11665   */\n  dup2\n    /* \"#utility.yul\":11657:11682   */\n  gt\n    /* \"#utility.yul\":11654:11705   */\n  iszero\n  tag_194\n  jumpi\n    /* \"#utility.yul\":11685:11703   */\n  tag_195\n  tag_51\n  jump\t// in\ntag_195:\n    /* \"#utility.yul\":11654:11705   */\ntag_194:\n    /* \"#utility.yul\":11734:11738   */\n  dup2\n    /* \"#utility.yul\":11727:11732   */\n  dup2\n    /* \"#utility.yul\":11723:11739   */\n  mul\n    /* \"#utility.yul\":11714:11739   */\n  swap1\n  pop\n    /* \"#utility.yul\":10672:11745   */\ntag_180:\n  swap4\n  swap3\n  pop\n  pop\n  pop\n  jump\t// out\n    /* \"#utility.yul\":11751:12036   */\ntag_10:\n    /* \"#utility.yul\":11811:11816   */\n  0x00\n    /* \"#utility.yul\":11835:11858   */\n  tag_197\n    /* \"#utility.yul\":11853:11857   */\n  dup3\n    /* \"#utility.yul\":11835:11858   */\n  tag_30\n  jump\t// in\ntag_197:\n    /* \"#utility.yul\":11827:11858   */\n  swap2\n  pop\n    /* \"#utility.yul\":11879:11906   */\n  tag_198\n    /* \"#utility.yul\":11897:11905   */\n  dup4\n    /* \"#utility.yul\":11879:11906   */\n  tag_30\n  jump\t// in\ntag_198:\n    /* \"#utility.yul\":11867:11906   */\n  swap3\n  pop\n    /* \"#utility.yul\":11925:12029   */\n  tag_199\n    /* \"#utility.yul\":11962:12028   */\n  0xffffffffffffffffffffffffffffffffffffffffffffffffffffffffffffffff\n    /* \"#utility.yul\":11952:11960   */\n  dup5\n    /* \"#utility.yul\":11946:11950   */\n  dup5\n    /* \"#utility.yul\":11925:12029   */\n  tag_54\n  jump\t// in\ntag_199:\n    /* \"#utility.yul\":11916:12029   */\n  swap1\n  pop\n    /* \"#utility.yul\":11751:12036   */\n  swap3\n  swap2\n  pop\n  pop\n  jump\t// out\n    /* \"#utility.yul\":12042:12452   */\ntag_12:\n    /* \"#utility.yul\":12082:12089   */\n  0x00\n    /* \"#utility.yul\":12105:12125   */\n  tag_201\n    /* \"#utility.yul\":12123:12124   */\n  dup3\n    /* \"#utility.yul\":12105:12125   */\n  tag_30\n  jump\t// in\ntag_201:\n    /* \"#utility.yul\":12100:12125   */\n  swap2\n  pop\n    /* \"#utility.yul\":12139:12159   */\n  tag_202\n    /* \"#utility.yul\":12157:12158   */\n  dup4\n    /* \"#utility.yul\":12139:12159   */\n  tag_30\n  jump\t// in\ntag_202:\n    /* \"#utility.yul\":12134:12159   */\n  swap3\n  pop\n    /* \"#utility.yul\":12194:12195   */\n  dup3\n    /* \"#utility.yul\":12191:12192   */\n  dup3\n    /* \"#utility.yul\":12187:12196   */\n  mul\n    /* \"#utility.yul\":12216:12246   */\n  tag_203\n    /* \"#utility.yul\":12234:12245   */\n  dup2\n    /* \"#utility.yul\":12216:12246   */\n  tag_30\n  jump\t// in\ntag_203:\n    /* \"#utility.yul\":12205:12246   */\n  swap2\n  pop\n    /* \"#utility.yul\":12395:12396   */\n  dup3\n    /* \"#utility.yul\":12386:12393   */\n  dup3\n    /* \"#utility.yul\":12382:12397   */\n  div\n    /* \"#utility.yul\":12379:12380   */\n  dup5\n    /* \"#utility.yul\":12376:12398   */\n  eq\n    /* \"#utility.yul\":12356:12357   */\n  dup4\n    /* \"#utility.yul\":12349:12358   */\n  iszero\n    /* \"#utility.yul\":12329:12412   */\n  or\n    /* \"#utility.yul\":12306:12445   */\n  tag_204\n  jumpi\n    /* \"#utility.yul\":12425:12443   */\n  tag_205\n  tag_51\n  jump\t// in\ntag_205:\n    /* \"#utility.yul\":12306:12445   */\ntag_204:\n    /* \"#utility.yul\":12090:12452   */\n  pop\n    /* \"#utility.yul\":12042:12452   */\n  swap3\n  swap2\n  pop\n  pop\n  jump\t// out\n    /* \"src/contracts/CarbonCredit.sol\":57:2923  contract CarbonCredit {... */\ntag_13:\n  dataSize(sub_0)\n  dup1\n  dataOffset(sub_0)\n  0x00\n  codecopy\n  0x00\n  return\nstop\n\nsub_0: assembly {\n        /* \"src/contracts/CarbonCredit.sol\":57:2923  contract CarbonCredit {... */\n      mstore(0x40, 0x80)\n      callvalue\n      dup1\n      iszero\n      tag_1\n      jumpi\n      0x00\n      dup1\n      revert\n    tag_1:\n      pop\n      jumpi(tag_2, lt(calldatasize, 0x04))\n      shr(0xe0, calldataload(0x00))\n      dup1\n      0x7aa2bdd4\n      gt\n      tag_15\n      jumpi\n      dup1\n      0x7aa2bdd4\n      eq\n      tag_9\n      jumpi\n      dup1\n      0x95d89b41\n      eq\n      tag_10\n      jumpi\n      dup1\n      0xa9059cbb\n      eq\n      tag_11\n      jumpi\n      dup1\n      0xafcdd813\n      eq\n      tag_12\n      jumpi\n      dup1\n      0xdb52b4ea\n      eq\n      tag_13\n      jumpi\n      dup1\n      0xdd62ed3e\n      eq\n      tag_14\n      jumpi\n      jump(tag_2)\n    tag_15:\n      dup1\n      0x06fdde03\n      eq\n      tag_3\n      jumpi\n      dup1\n      0x095ea7b3\n      eq\n      tag_4\n      jumpi\n      dup1\n      0x18160ddd\n      eq\n      tag_5\n      jumpi\n      dup1\n      0x23b872dd\n      eq\n      tag_6\n      jumpi\n      dup1\n      0x313ce567\n      eq\n      tag_7\n      jumpi\n      dup1\n      0x70a08231\n      eq\n      tag_8\n      jumpi\n    tag_2:\n      0x00\n      dup1\n      revert\n        /* \"src/contracts/CarbonCredit.sol\":85:103  string public name */\n    tag_3:\n      tag_16\n      tag_17\n      jump\t// in\n    tag_16:\n      mload(0x40)\n      tag_18\n      swap2\n      swap1\n      tag_19\n      jump\t// in\n    tag_18:\n      mload(0x40)\n      dup1\n      swap2\n      sub\n      swap1\n      return\n        /* \"src/contracts/CarbonCredit.sol\":1104:1310  function approve(address spender, uint256 value) public returns (bool success) {... */\n    tag_4:\n      tag_20\n      0x04\n      dup1\n      calldatasize\n      sub\n      dup2\n      add\n      swap1\n      tag_21\n      swap2\n      swap1\n      tag_22\n      jump\t// in\n    tag_21:\n      tag_23\n      jump\t// in\n    tag_20:\n      mload(0x40)\n      tag_24\n      swap2\n      swap1\n      tag_25\n      jump\t// in\n    tag_24:\n      mload(0x40)\n      dup1\n      swap2\n      sub\n      swap1\n      return\n        /* \"src/contracts/CarbonCredit.sol\":162:188  uint256 public totalSupply */\n    tag_5:\n      tag_26\n      tag_27\n      jump\t// in\n    tag_26:\n      mload(0x40)\n      tag_28\n      swap2\n      swap1\n      tag_29\n      jump\t// in\n    tag_28:\n      mload(0x40)\n      dup1\n      swap2\n      sub\n      swap1\n      return\n        /* \"src/contracts/CarbonCredit.sol\":1672:2145  function transferFrom(address from, address to, uint256 value) public returns (bool success) {... */\n    tag_6:\n      tag_30\n      0x04\n      dup1\n      calldatasize\n      sub\n      dup2\n      add\n      swap1\n      tag_31\n      swap2\n      swap1\n      tag_32\n      jump\t// in\n    tag_31:\n      tag_33\n      jump\t// in\n    tag_30:\n      mload(0x40)\n      tag_34\n      swap2\n      swap1\n      tag_25\n      jump\t// in\n    tag_34:\n      mload(0x40)\n      dup1\n      swap2\n      sub\n      swap1\n      return\n        /* \"src/contracts/CarbonCredit.sol\":135:156  uint8 public decimals */\n    tag_7:\n      tag_35\n      tag_36\n      jump\t// in\n    tag_35:\n      mload(0x40)\n      tag_37\n      swap2\n      swap1\n      tag_38\n      jump\t// in\n    tag_37:\n      mload(0x40)\n      dup1\n      swap2\n      sub\n      swap1\n      return\n        /* \"src/contracts/CarbonCredit.sol\":195:239  mapping(address => uint256) public balanceOf */\n    tag_8:\n      tag_39\n      0x04\n      dup1\n      calldatasize\n      sub\n      dup2\n      add\n      swap1\n      tag_40\n      swap2\n      swap1\n      tag_41\n      jump\t// in\n    tag_40:\n      tag_42\n      jump\t// in\n    tag_39:\n      mload(0x40)\n      tag_43\n      swap2\n      swap1\n      tag_29\n      jump\t// in\n    tag_43:\n      mload(0x40)\n      dup1\n      swap2\n      sub\n      swap1\n      return\n        /* \"src/contracts/CarbonCredit.sol\":315:363  mapping(address => uint256) public carbonCredits */\n    tag_9:\n      tag_44\n      0x04\n      dup1\n      calldatasize\n      sub\n      dup2\n      add\n      swap1\n      tag_45\n      swap2\n      swap1\n      tag_41\n      jump\t// in\n    tag_45:\n      tag_46\n      jump\t// in\n    tag_44:\n      mload(0x40)\n      tag_47\n      swap2\n      swap1\n      tag_29\n      jump\t// in\n    tag_47:\n      mload(0x40)\n      dup1\n      swap2\n      sub\n      swap1\n      return\n        /* \"src/contracts/CarbonCredit.sol\":109:129  string public symbol */\n    tag_10:\n      tag_48\n      tag_49\n      jump\t// in\n    tag_48:\n      mload(0x40)\n      tag_50\n      swap2\n      swap1\n      tag_19\n      jump\t// in\n    tag_50:\n      mload(0x40)\n      dup1\n      swap2\n      sub\n      swap1\n      return\n        /* \"src/contracts/CarbonCredit.sol\":1316:1666  function transfer(address to, uint256 value) public returns (bool success) {... */\n    tag_11:\n      tag_51\n      0x04\n      dup1\n      calldatasize\n      sub\n      dup2\n      add\n      swap1\n      tag_52\n      swap2\n      swap1\n      tag_22\n      jump\t// in\n    tag_52:\n      tag_53\n      jump\t// in\n    tag_51:\n      mload(0x40)\n      tag_54\n      swap2\n      swap1\n      tag_25\n      jump\t// in\n    tag_54:\n      mload(0x40)\n      dup1\n      swap2\n      sub\n      swap1\n      return\n        /* \"src/contracts/CarbonCredit.sol\":2524:2921  function transferCarbonCredits(address to, uint256 value) public returns (bool success) {... */\n    tag_12:\n      tag_55\n      0x04\n      dup1\n      calldatasize\n      sub\n      dup2\n      add\n      swap1\n      tag_56\n      swap2\n      swap1\n      tag_22\n      jump\t// in\n    tag_56:\n      tag_57\n      jump\t// in\n    tag_55:\n      mload(0x40)\n      tag_58\n      swap2\n      swap1\n      tag_25\n      jump\t// in\n    tag_58:\n      mload(0x40)\n      dup1\n      swap2\n      sub\n      swap1\n      return\n        /* \"src/contracts/CarbonCredit.sol\":2151:2518  function issueCarbonCredits(address account, uint256 amount) public returns (bool success) {... */\n    tag_13:\n      tag_59\n      0x04\n      dup1\n      calldatasize\n      sub\n      dup2\n      add\n      swap1\n      tag_60\n      swap2\n      swap1\n      tag_22\n      jump\t// in\n    tag_60:\n      tag_61\n      jump\t// in\n    tag_59:\n      mload(0x40)\n      tag_62\n      swap2\n      swap1\n      tag_25\n      jump\t// in\n    tag_62:\n      mload(0x40)\n      dup1\n      swap2\n      sub\n      swap1\n      return\n        /* \"src/contracts/CarbonCredit.sol\":245:309  mapping(address => mapping(address => uint256)) public allowance */\n    tag_14:\n      tag_63\n      0x04\n      dup1\n      calldatasize\n      sub\n      dup2\n      add\n      swap1\n      tag_64\n      swap2\n      swap1\n      tag_65\n      jump\t// in\n    tag_64:\n      tag_66\n      jump\t// in\n    tag_63:\n      mload(0x40)\n      tag_67\n      swap2\n      swap1\n      tag_29\n      jump\t// in\n    tag_67:\n      mload(0x40)\n      dup1\n      swap2\n      sub\n      swap1\n      return\n        /* \"src/contracts/CarbonCredit.sol\":85:103  string public name */\n    tag_17:\n      0x00\n      dup1\n      sload\n      tag_68\n      swap1\n      tag_69\n      jump\t// in\n    tag_68:\n      dup1\n      0x1f\n      add\n      0x20\n      dup1\n      swap2\n      div\n      mul\n      0x20\n      add\n      mload(0x40)\n      swap1\n      dup2\n      add\n      0x40\n      mstore\n      dup1\n      swap3\n      swap2\n      swap1\n      dup2\n      dup2\n      mstore\n      0x20\n      add\n      dup3\n      dup1\n      sload\n      tag_70\n      swap1\n      tag_69\n      jump\t// in\n    tag_70:\n      dup1\n      iszero\n      tag_71\n      jumpi\n      dup1\n      0x1f\n      lt\n      tag_72\n      jumpi\n      0x0100\n      dup1\n      dup4\n      sload\n      div\n      mul\n      dup4\n      mstore\n      swap2\n      0x20\n      add\n      swap2\n      jump(tag_71)\n    tag_72:\n      dup3\n      add\n      swap2\n      swap1\n      0x00\n      mstore\n      keccak256(0x00, 0x20)\n      swap1\n    tag_73:\n      dup2\n      sload\n      dup2\n      mstore\n      swap1\n      0x01\n      add\n      swap1\n      0x20\n      add\n      dup1\n      dup4\n      gt\n      tag_73\n      jumpi\n      dup3\n      swap1\n      sub\n      0x1f\n      and\n      dup3\n      add\n      swap2\n    tag_71:\n      pop\n      pop\n      pop\n      pop\n      pop\n      dup2\n      jump\t// out\n        /* \"src/contracts/CarbonCredit.sol\":1104:1310  function approve(address spender, uint256 value) public returns (bool success) {... */\n    tag_23:\n        /* \"src/contracts/CarbonCredit.sol\":1169:1181  bool success */\n      0x00\n        /* \"src/contracts/CarbonCredit.sol\":1226:1231  value */\n      dup2\n        /* \"src/contracts/CarbonCredit.sol\":1193:1202  allowance */\n      0x05\n        /* \"src/contracts/CarbonCredit.sol\":1193:1214  allowance[msg.sender] */\n      0x00\n        /* \"src/contracts/CarbonCredit.sol\":1203:1213  msg.sender */\n      caller\n        /* \"src/contracts/CarbonCredit.sol\":1193:1214  allowance[msg.sender] */\n      0xffffffffffffffffffffffffffffffffffffffff\n      and\n      0xffffffffffffffffffffffffffffffffffffffff\n      and\n      dup2\n      mstore\n      0x20\n      add\n      swap1\n      dup2\n      mstore\n      0x20\n      add\n      0x00\n      keccak256\n        /* \"src/contracts/CarbonCredit.sol\":1193:1223  allowance[msg.sender][spender] */\n      0x00\n        /* \"src/contracts/CarbonCredit.sol\":1215:1222  spender */\n      dup6\n        /* \"src/contracts/CarbonCredit.sol\":1193:1223  allowance[msg.sender][spender] */\n      0xffffffffffffffffffffffffffffffffffffffff\n      and\n      0xffffffffffffffffffffffffffffffffffffffff\n      and\n      dup2\n      mstore\n      0x20\n      add\n      swap1\n      dup2\n      mstore\n      0x20\n      add\n      0x00\n      keccak256\n        /* \"src/contracts/CarbonCredit.sol\":1193:1231  allowance[msg.sender][spender] = value */\n      dup2\n      swap1\n      sstore\n      pop\n        /* \"src/contracts/CarbonCredit.sol\":1267:1274  spender */\n      dup3\n        /* \"src/contracts/CarbonCredit.sol\":1246:1282  Approval(msg.sender, spender, value) */\n      0xffffffffffffffffffffffffffffffffffffffff\n      and\n        /* \"src/contracts/CarbonCredit.sol\":1255:1265  msg.sender */\n      caller\n        /* \"src/contracts/CarbonCredit.sol\":1246:1282  Approval(msg.sender, spender, value) */\n      0xffffffffffffffffffffffffffffffffffffffff\n      and\n      0x8c5be1e5ebec7d5bd14f71427d1e84f3dd0314c0f7b2291e5b200ac8c7c3b925\n        /* \"src/contracts/CarbonCredit.sol\":1276:1281  value */\n      dup5\n        /* \"src/contracts/CarbonCredit.sol\":1246:1282  Approval(msg.sender, spender, value) */\n      mload(0x40)\n      tag_75\n      swap2\n      swap1\n      tag_29\n      jump\t// in\n    tag_75:\n      mload(0x40)\n      dup1\n      swap2\n      sub\n      swap1\n      log3\n        /* \"src/contracts/CarbonCredit.sol\":1299:1303  true */\n      0x01\n        /* \"src/contracts/CarbonCredit.sol\":1292:1303  return true */\n      swap1\n      pop\n        /* \"src/contracts/CarbonCredit.sol\":1104:1310  function approve(address spender, uint256 value) public returns (bool success) {... */\n      swap3\n      swap2\n      pop\n      pop\n      jump\t// out\n        /* \"src/contracts/CarbonCredit.sol\":162:188  uint256 public totalSupply */\n    tag_27:\n      sload(0x03)\n      dup2\n      jump\t// out\n        /* \"src/contracts/CarbonCredit.sol\":1672:2145  function transferFrom(address from, address to, uint256 value) public returns (bool success) {... */\n    tag_33:\n        /* \"src/contracts/CarbonCredit.sol\":1751:1763  bool success */\n      0x00\n        /* \"src/contracts/CarbonCredit.sol\":1797:1798  0 */\n      dup1\n        /* \"src/contracts/CarbonCredit.sol\":1783:1799  to != address(0) */\n      0xffffffffffffffffffffffffffffffffffffffff\n      and\n        /* \"src/contracts/CarbonCredit.sol\":1783:1785  to */\n      dup4\n        /* \"src/contracts/CarbonCredit.sol\":1783:1799  to != address(0) */\n      0xffffffffffffffffffffffffffffffffffffffff\n      and\n      sub\n        /* \"src/contracts/CarbonCredit.sol\":1775:1819  require(to != address(0), \"Invalid address\") */\n      tag_77\n      jumpi\n      mload(0x40)\n      0x08c379a000000000000000000000000000000000000000000000000000000000\n      dup2\n      mstore\n      0x04\n      add\n      tag_78\n      swap1\n      tag_79\n      jump\t// in\n    tag_78:\n      mload(0x40)\n      dup1\n      swap2\n      sub\n      swap1\n      revert\n    tag_77:\n        /* \"src/contracts/CarbonCredit.sol\":1856:1861  value */\n      dup2\n        /* \"src/contracts/CarbonCredit.sol\":1837:1846  balanceOf */\n      0x04\n        /* \"src/contracts/CarbonCredit.sol\":1837:1852  balanceOf[from] */\n      0x00\n        /* \"src/contracts/CarbonCredit.sol\":1847:1851  from */\n      dup7\n        /* \"src/contracts/CarbonCredit.sol\":1837:1852  balanceOf[from] */\n      0xffffffffffffffffffffffffffffffffffffffff\n      and\n      0xffffffffffffffffffffffffffffffffffffffff\n      and\n      dup2\n      mstore\n      0x20\n      add\n      swap1\n      dup2\n      mstore\n      0x20\n      add\n      0x00\n      keccak256\n      sload\n        /* \"src/contracts/CarbonCredit.sol\":1837:1861  balanceOf[from] >= value */\n      lt\n      iszero\n        /* \"src/contracts/CarbonCredit.sol\":1829:1886  require(balanceOf[from] >= value, \"Insufficient balance\") */\n      tag_80\n      jumpi\n      mload(0x40)\n      0x08c379a000000000000000000000000000000000000000000000000000000000\n      dup2\n      mstore\n      0x04\n      add\n      tag_81\n      swap1\n      tag_82\n      jump\t// in\n    tag_81:\n      mload(0x40)\n      dup1\n      swap2\n      sub\n      swap1\n      revert\n    tag_80:\n        /* \"src/contracts/CarbonCredit.sol\":1935:1940  value */\n      dup2\n        /* \"src/contracts/CarbonCredit.sol\":1904:1913  allowance */\n      0x05\n        /* \"src/contracts/CarbonCredit.sol\":1904:1919  allowance[from] */\n      0x00\n        /* \"src/contracts/CarbonCredit.sol\":1914:1918  from */\n      dup7\n        /* \"src/contracts/CarbonCredit.sol\":1904:1919  allowance[from] */\n      0xffffffffffffffffffffffffffffffffffffffff\n      and\n      0xffffffffffffffffffffffffffffffffffffffff\n      and\n      dup2\n      mstore\n      0x20\n      add\n      swap1\n      dup2\n      mstore\n      0x20\n      add\n      0x00\n      keccak256\n        /* \"src/contracts/CarbonCredit.sol\":1904:1931  allowance[from][msg.sender] */\n      0x00\n        /* \"src/contracts/CarbonCredit.sol\":1920:1930  msg.sender */\n      caller\n        /* \"src/contracts/CarbonCredit.sol\":1904:1931  allowance[from][msg.sender] */\n      0xffffffffffffffffffffffffffffffffffffffff\n      and\n      0xffffffffffffffffffffffffffffffffffffffff\n      and\n      dup2\n      mstore\n      0x20\n      add\n      swap1\n      dup2\n      mstore\n      0x20\n      add\n      0x00\n      keccak256\n      sload\n        /* \"src/contracts/CarbonCredit.sol\":1904:1940  allowance[from][msg.sender] >= value */\n      lt\n      iszero\n        /* \"src/contracts/CarbonCredit.sol\":1896:1963  require(allowance[from][msg.sender] >= value, \"Allowance exceeded\") */\n      tag_83\n      jumpi\n      mload(0x40)\n      0x08c379a000000000000000000000000000000000000000000000000000000000\n      dup2\n      mstore\n      0x04\n      add\n      tag_84\n      swap1\n      tag_85\n      jump\t// in\n    tag_84:\n      mload(0x40)\n      dup1\n      swap2\n      sub\n      swap1\n      revert\n    tag_83:\n        /* \"src/contracts/CarbonCredit.sol\":1993:1998  value */\n      dup2\n        /* \"src/contracts/CarbonCredit.sol\":1974:1983  balanceOf */\n      0x04\n        /* \"src/contracts/CarbonCredit.sol\":1974:1989  balanceOf[from] */\n      0x00\n        /* \"src/contracts/CarbonCredit.sol\":1984:1988  from */\n      dup7\n        /* \"src/contracts/CarbonCredit.sol\":1974:1989  balanceOf[from] */\n      0xffffffffffffffffffffffffffffffffffffffff\n      and\n      0xffffffffffffffffffffffffffffffffffffffff\n      and\n      dup2\n      mstore\n      0x20\n      add\n      swap1\n      dup2\n      mstore\n      0x20\n      add\n      0x00\n      keccak256\n      0x00\n        /* \"src/contracts/CarbonCredit.sol\":1974:1998  balanceOf[from] -= value */\n      dup3\n      dup3\n      sload\n      tag_86\n      swap2\n      swap1\n      tag_87\n      jump\t// in\n    tag_86:\n      swap3\n      pop\n      pop\n      dup2\n      swap1\n      sstore\n      pop\n        /* \"src/contracts/CarbonCredit.sol\":2025:2030  value */\n      dup2\n        /* \"src/contracts/CarbonCredit.sol\":2008:2017  balanceOf */\n      0x04\n        /* \"src/contracts/CarbonCredit.sol\":2008:2021  balanceOf[to] */\n      0x00\n        /* \"src/contracts/CarbonCredit.sol\":2018:2020  to */\n      dup6\n        /* \"src/contracts/CarbonCredit.sol\":2008:2021  balanceOf[to] */\n      0xffffffffffffffffffffffffffffffffffffffff\n      and\n      0xffffffffffffffffffffffffffffffffffffffff\n      and\n      dup2\n      mstore\n      0x20\n      add\n      swap1\n      dup2\n      mstore\n      0x20\n      add\n      0x00\n      keccak256\n      0x00\n        /* \"src/contracts/CarbonCredit.sol\":2008:2030  balanceOf[to] += value */\n      dup3\n      dup3\n      sload\n      tag_88\n      swap2\n      swap1\n      tag_89\n      jump\t// in\n    tag_88:\n      swap3\n      pop\n      pop\n      dup2\n      swap1\n      sstore\n      pop\n        /* \"src/contracts/CarbonCredit.sol\":2071:2076  value */\n      dup2\n        /* \"src/contracts/CarbonCredit.sol\":2040:2049  allowance */\n      0x05\n        /* \"src/contracts/CarbonCredit.sol\":2040:2055  allowance[from] */\n      0x00\n        /* \"src/contracts/CarbonCredit.sol\":2050:2054  from */\n      dup7\n        /* \"src/contracts/CarbonCredit.sol\":2040:2055  allowance[from] */\n      0xffffffffffffffffffffffffffffffffffffffff\n      and\n      0xffffffffffffffffffffffffffffffffffffffff\n      and\n      dup2\n      mstore\n      0x20\n      add\n      swap1\n      dup2\n      mstore\n      0x20\n      add\n      0x00\n      keccak256\n        /* \"src/contracts/CarbonCredit.sol\":2040:2067  allowance[from][msg.sender] */\n      0x00\n        /* \"src/contracts/CarbonCredit.sol\":2056:2066  msg.sender */\n      caller\n        /* \"src/contracts/CarbonCredit.sol\":2040:2067  allowance[from][msg.sender] */\n      0xffffffffffffffffffffffffffffffffffffffff\n      and\n      0xffffffffffffffffffffffffffffffffffffffff\n      and\n      dup2\n      mstore\n      0x20\n      add\n      swap1\n      dup2\n      mstore\n      0x20\n      add\n      0x00\n      keccak256\n      0x00\n        /* \"src/contracts/CarbonCredit.sol\":2040:2076  allowance[from][msg.sender] -= value */\n      dup3\n      dup3\n      sload\n      tag_90\n      swap2\n      swap1\n      tag_87\n      jump\t// in\n    tag_90:\n      swap3\n      pop\n      pop\n      dup2\n      swap1\n      sstore\n      pop\n        /* \"src/contracts/CarbonCredit.sol\":2106:2108  to */\n      dup3\n        /* \"src/contracts/CarbonCredit.sol\":2091:2116  Transfer(from, to, value) */\n      0xffffffffffffffffffffffffffffffffffffffff\n      and\n        /* \"src/contracts/CarbonCredit.sol\":2100:2104  from */\n      dup5\n        /* \"src/contracts/CarbonCredit.sol\":2091:2116  Transfer(from, to, value) */\n      0xffffffffffffffffffffffffffffffffffffffff\n      and\n      0xddf252ad1be2c89b69c2b068fc378daa952ba7f163c4a11628f55a4df523b3ef\n        /* \"src/contracts/CarbonCredit.sol\":2110:2115  value */\n      dup5\n        /* \"src/contracts/CarbonCredit.sol\":2091:2116  Transfer(from, to, value) */\n      mload(0x40)\n      tag_91\n      swap2\n      swap1\n      tag_29\n      jump\t// in\n    tag_91:\n      mload(0x40)\n      dup1\n      swap2\n      sub\n      swap1\n      log3\n        /* \"src/contracts/CarbonCredit.sol\":2134:2138  true */\n      0x01\n        /* \"src/contracts/CarbonCredit.sol\":2127:2138  return true */\n      swap1\n      pop\n        /* \"src/contracts/CarbonCredit.sol\":1672:2145  function transferFrom(address from, address to, uint256 value) public returns (bool success) {... */\n      swap4\n      swap3\n      pop\n      pop\n      pop\n      jump\t// out\n        /* \"src/contracts/CarbonCredit.sol\":135:156  uint8 public decimals */\n    tag_36:\n      0x02\n      0x00\n      swap1\n      sload\n      swap1\n      0x0100\n      exp\n      swap1\n      div\n      0xff\n      and\n      dup2\n      jump\t// out\n        /* \"src/contracts/CarbonCredit.sol\":195:239  mapping(address => uint256) public balanceOf */\n    tag_42:\n      mstore(0x20, 0x04)\n      dup1\n      0x00\n      mstore\n      keccak256(0x00, 0x40)\n      0x00\n      swap2\n      pop\n      swap1\n      pop\n      sload\n      dup2\n      jump\t// out\n        /* \"src/contracts/CarbonCredit.sol\":315:363  mapping(address => uint256) public carbonCredits */\n    tag_46:\n      mstore(0x20, 0x06)\n      dup1\n      0x00\n      mstore\n      keccak256(0x00, 0x40)\n      0x00\n      swap2\n      pop\n      swap1\n      pop\n      sload\n      dup2\n      jump\t// out\n        /* \"src/contracts/CarbonCredit.sol\":109:129  string public symbol */\n    tag_49:\n      0x01\n      dup1\n      sload\n      tag_92\n      swap1\n      tag_69\n      jump\t// in\n    tag_92:\n      dup1\n      0x1f\n      add\n      0x20\n      dup1\n      swap2\n      div\n      mul\n      0x20\n      add\n      mload(0x40)\n      swap1\n      dup2\n      add\n      0x40\n      mstore\n      dup1\n      swap3\n      swap2\n      swap1\n      dup2\n      dup2\n      mstore\n      0x20\n      add\n      dup3\n      dup1\n      sload\n      tag_93\n      swap1\n      tag_69\n      jump\t// in\n    tag_93:\n      dup1\n      iszero\n      tag_94\n      jumpi\n      dup1\n      0x1f\n      lt\n      tag_95\n      jumpi\n      0x0100\n      dup1\n      dup4\n      sload\n      div\n      mul\n      dup4\n      mstore\n      swap2\n      0x20\n      add\n      swap2\n      jump(tag_94)\n    tag_95:\n      dup3\n      add\n      swap2\n      swap1\n      0x00\n      mstore\n      keccak256(0x00, 0x20)\n      swap1\n    tag_96:\n      dup2\n      sload\n      dup2\n      mstore\n      swap1\n      0x01\n      add\n      swap1\n      0x20\n      add\n      dup1\n      dup4\n      gt\n      tag_96\n      jumpi\n      dup3\n      swap1\n      sub\n      0x1f\n      and\n      dup3\n      add\n      swap2\n    tag_94:\n      pop\n      pop\n      pop\n      pop\n      pop\n      dup2\n      jump\t// out\n        /* \"src/contracts/CarbonCredit.sol\":1316:1666  function transfer(address to, uint256 value) public returns (bool success) {... */\n    tag_53:\n        /* \"src/contracts/CarbonCredit.sol\":1377:1389  bool success */\n      0x00\n        /* \"src/contracts/CarbonCredit.sol\":1423:1424  0 */\n      dup1\n        /* \"src/contracts/CarbonCredit.sol\":1409:1425  to != address(0) */\n      0xffffffffffffffffffffffffffffffffffffffff\n      and\n        /* \"src/contracts/CarbonCredit.sol\":1409:1411  to */\n      dup4\n        /* \"src/contracts/CarbonCredit.sol\":1409:1425  to != address(0) */\n      0xffffffffffffffffffffffffffffffffffffffff\n      and\n      sub\n        /* \"src/contracts/CarbonCredit.sol\":1401:1445  require(to != address(0), \"Invalid address\") */\n      tag_98\n      jumpi\n      mload(0x40)\n      0x08c379a000000000000000000000000000000000000000000000000000000000\n      dup2\n      mstore\n      0x04\n      add\n      tag_99\n      swap1\n      tag_79\n      jump\t// in\n    tag_99:\n      mload(0x40)\n      dup1\n      swap2\n      sub\n      swap1\n      revert\n    tag_98:\n        /* \"src/contracts/CarbonCredit.sol\":1488:1493  value */\n      dup2\n        /* \"src/contracts/CarbonCredit.sol\":1463:1472  balanceOf */\n      0x04\n        /* \"src/contracts/CarbonCredit.sol\":1463:1484  balanceOf[msg.sender] */\n      0x00\n        /* \"src/contracts/CarbonCredit.sol\":1473:1483  msg.sender */\n      caller\n        /* \"src/contracts/CarbonCredit.sol\":1463:1484  balanceOf[msg.sender] */\n      0xffffffffffffffffffffffffffffffffffffffff\n      and\n      0xffffffffffffffffffffffffffffffffffffffff\n      and\n      dup2\n      mstore\n      0x20\n      add\n      swap1\n      dup2\n      mstore\n      0x20\n      add\n      0x00\n      keccak256\n      sload\n        /* \"src/contracts/CarbonCredit.sol\":1463:1493  balanceOf[msg.sender] >= value */\n      lt\n      iszero\n        /* \"src/contracts/CarbonCredit.sol\":1455:1518  require(balanceOf[msg.sender] >= value, \"Insufficient balance\") */\n      tag_100\n      jumpi\n      mload(0x40)\n      0x08c379a000000000000000000000000000000000000000000000000000000000\n      dup2\n      mstore\n      0x04\n      add\n      tag_101\n      swap1\n      tag_82\n      jump\t// in\n    tag_101:\n      mload(0x40)\n      dup1\n      swap2\n      sub\n      swap1\n      revert\n    tag_100:\n        /* \"src/contracts/CarbonCredit.sol\":1554:1559  value */\n      dup2\n        /* \"src/contracts/CarbonCredit.sol\":1529:1538  balanceOf */\n      0x04\n        /* \"src/contracts/CarbonCredit.sol\":1529:1550  balanceOf[msg.sender] */\n      0x00\n        /* \"src/contracts/CarbonCredit.sol\":1539:1549  msg.sender */\n      caller\n        /* \"src/contracts/CarbonCredit.sol\":1529:1550  balanceOf[msg.sender] */\n      0xffffffffffffffffffffffffffffffffffffffff\n      and\n      0xffffffffffffffffffffffffffffffffffffffff\n      and\n      dup2\n      mstore\n      0x20\n      add\n      swap1\n      dup2\n      mstore\n      0x20\n      add\n      0x00\n      keccak256\n      0x00\n        /* \"src/contracts/CarbonCredit.sol\":1529:1559  balanceOf[msg.sender] -= value */\n      dup3\n      dup3\n      sload\n      tag_102\n      swap2\n      swap1\n      tag_87\n      jump\t// in\n    tag_102:\n      swap3\n      pop\n      pop\n      dup2\n      swap1\n      sstore\n      pop\n        /* \"src/contracts/CarbonCredit.sol\":1586:1591  value */\n      dup2\n        /* \"src/contracts/CarbonCredit.sol\":1569:1578  balanceOf */\n      0x04\n        /* \"src/contracts/CarbonCredit.sol\":1569:1582  balanceOf[to] */\n      0x00\n        /* \"src/contracts/CarbonCredit.sol\":1579:1581  to */\n      dup6\n        /* \"src/contracts/CarbonCredit.sol\":1569:1582  balanceOf[to] */\n      0xffffffffffffffffffffffffffffffffffffffff\n      and\n      0xffffffffffffffffffffffffffffffffffffffff\n      and\n      dup2\n      mstore\n      0x20\n      add\n      swap1\n      dup2\n      mstore\n      0x20\n      add\n      0x00\n      keccak256\n      0x00\n        /* \"src/contracts/CarbonCredit.sol\":1569:1591  balanceOf[to] += value */\n      dup3\n      dup3\n      sload\n      tag_103\n      swap2\n      swap1\n      tag_89\n      jump\t// in\n    tag_103:\n      swap3\n      pop\n      pop\n      dup2\n      swap1\n      sstore\n      pop\n        /* \"src/contracts/CarbonCredit.sol\":1627:1629  to */\n      dup3\n        /* \"src/contracts/CarbonCredit.sol\":1606:1637  Transfer(msg.sender, to, value) */\n      0xffffffffffffffffffffffffffffffffffffffff\n      and\n        /* \"src/contracts/CarbonCredit.sol\":1615:1625  msg.sender */\n      caller\n        /* \"src/contracts/CarbonCredit.sol\":1606:1637  Transfer(msg.sender, to, value) */\n      0xffffffffffffffffffffffffffffffffffffffff\n      and\n      0xddf252ad1be2c89b69c2b068fc378daa952ba7f163c4a11628f55a4df523b3ef\n        /* \"src/contracts/CarbonCredit.sol\":1631:1636  value */\n      dup5\n        /* \"src/contracts/CarbonCredit.sol\":1606:1637  Transfer(msg.sender, to, value) */\n      mload(0x40)\n      tag_104\n      swap2\n      swap1\n      tag_29\n      jump\t// in\n    tag_104:\n      mload(0x40)\n      dup1\n      swap2\n      sub\n      swap1\n      log3\n        /* \"src/contracts/CarbonCredit.sol\":1655:1659  true */\n      0x01\n        /* \"src/contracts/CarbonCredit.sol\":1648:1659  return true */\n      swap1\n      pop\n        /* \"src/contracts/CarbonCredit.sol\":1316:1666  function transfer(address to, uint256 value) public returns (bool success) {... */\n      swap3\n      swap2\n      pop\n      pop\n      jump\t// out\n        /* \"src/contracts/CarbonCredit.sol\":2524:2921  function transferCarbonCredits(address to, uint256 value) public returns (bool success) {... */\n    tag_57:\n        /* \"src/contracts/CarbonCredit.sol\":2598:2610  bool success */\n      0x00\n        /* \"src/contracts/CarbonCredit.sol\":2644:2645  0 */\n      dup1\n        /* \"src/contracts/CarbonCredit.sol\":2630:2646  to != address(0) */\n      0xffffffffffffffffffffffffffffffffffffffff\n      and\n        /* \"src/contracts/CarbonCredit.sol\":2630:2632  to */\n      dup4\n        /* \"src/contracts/CarbonCredit.sol\":2630:2646  to != address(0) */\n      0xffffffffffffffffffffffffffffffffffffffff\n      and\n      sub\n        /* \"src/contracts/CarbonCredit.sol\":2622:2666  require(to != address(0), \"Invalid address\") */\n      tag_106\n      jumpi\n      mload(0x40)\n      0x08c379a000000000000000000000000000000000000000000000000000000000\n      dup2\n      mstore\n      0x04\n      add\n      tag_107\n      swap1\n      tag_79\n      jump\t// in\n    tag_107:\n      mload(0x40)\n      dup1\n      swap2\n      sub\n      swap1\n      revert\n    tag_106:\n        /* \"src/contracts/CarbonCredit.sol\":2713:2718  value */\n      dup2\n        /* \"src/contracts/CarbonCredit.sol\":2684:2697  carbonCredits */\n      0x06\n        /* \"src/contracts/CarbonCredit.sol\":2684:2709  carbonCredits[msg.sender] */\n      0x00\n        /* \"src/contracts/CarbonCredit.sol\":2698:2708  msg.sender */\n      caller\n        /* \"src/contracts/CarbonCredit.sol\":2684:2709  carbonCredits[msg.sender] */\n      0xffffffffffffffffffffffffffffffffffffffff\n      and\n      0xffffffffffffffffffffffffffffffffffffffff\n      and\n      dup2\n      mstore\n      0x20\n      add\n      swap1\n      dup2\n      mstore\n      0x20\n      add\n      0x00\n      keccak256\n      sload\n        /* \"src/contracts/CarbonCredit.sol\":2684:2718  carbonCredits[msg.sender] >= value */\n      lt\n      iszero\n        /* \"src/contracts/CarbonCredit.sol\":2676:2750  require(carbonCredits[msg.sender] >= value, \"Insufficient carbon credits\") */\n      tag_108\n      jumpi\n      mload(0x40)\n      0x08c379a000000000000000000000000000000000000000000000000000000000\n      dup2\n      mstore\n      0x04\n      add\n      tag_109\n      swap1\n      tag_110\n      jump\t// in\n    tag_109:\n      mload(0x40)\n      dup1\n      swap2\n      sub\n      swap1\n      revert\n    tag_108:\n        /* \"src/contracts/CarbonCredit.sol\":2790:2795  value */\n      dup2\n        /* \"src/contracts/CarbonCredit.sol\":2761:2774  carbonCredits */\n      0x06\n        /* \"src/contracts/CarbonCredit.sol\":2761:2786  carbonCredits[msg.sender] */\n      0x00\n        /* \"src/contracts/CarbonCredit.sol\":2775:2785  msg.sender */\n      caller\n        /* \"src/contracts/CarbonCredit.sol\":2761:2786  carbonCredits[msg.sender] */\n      0xffffffffffffffffffffffffffffffffffffffff\n      and\n      0xffffffffffffffffffffffffffffffffffffffff\n      and\n      dup2\n      mstore\n      0x20\n      add\n      swap1\n      dup2\n      mstore\n      0x20\n      add\n      0x00\n      keccak256\n      0x00\n        /* \"src/contracts/CarbonCredit.sol\":2761:2795  carbonCredits[msg.sender] -= value */\n      dup3\n      dup3\n      sload\n      tag_111\n      swap2\n      swap1\n      tag_87\n      jump\t// in\n    tag_111:\n      swap3\n      pop\n      pop\n      dup2\n      swap1\n      sstore\n      pop\n        /* \"src/contracts/CarbonCredit.sol\":2826:2831  value */\n      dup2\n        /* \"src/contracts/CarbonCredit.sol\":2805:2818  carbonCredits */\n      0x06\n        /* \"src/contracts/CarbonCredit.sol\":2805:2822  carbonCredits[to] */\n      0x00\n        /* \"src/contracts/CarbonCredit.sol\":2819:2821  to */\n      dup6\n        /* \"src/contracts/CarbonCredit.sol\":2805:2822  carbonCredits[to] */\n      0xffffffffffffffffffffffffffffffffffffffff\n      and\n      0xffffffffffffffffffffffffffffffffffffffff\n      and\n      dup2\n      mstore\n      0x20\n      add\n      swap1\n      dup2\n      mstore\n      0x20\n      add\n      0x00\n      keccak256\n      0x00\n        /* \"src/contracts/CarbonCredit.sol\":2805:2831  carbonCredits[to] += value */\n      dup3\n      dup3\n      sload\n      tag_112\n      swap2\n      swap1\n      tag_89\n      jump\t// in\n    tag_112:\n      swap3\n      pop\n      pop\n      dup2\n      swap1\n      sstore\n      pop\n        /* \"src/contracts/CarbonCredit.sol\":2882:2884  to */\n      dup3\n        /* \"src/contracts/CarbonCredit.sol\":2846:2892  CarbonCreditTransferred(msg.sender, to, value) */\n      0xffffffffffffffffffffffffffffffffffffffff\n      and\n        /* \"src/contracts/CarbonCredit.sol\":2870:2880  msg.sender */\n      caller\n        /* \"src/contracts/CarbonCredit.sol\":2846:2892  CarbonCreditTransferred(msg.sender, to, value) */\n      0xffffffffffffffffffffffffffffffffffffffff\n      and\n      0x7e95113809daf6b378cb1caf9641a894a32fc97bfa22edaffd31d92564400ec0\n        /* \"src/contracts/CarbonCredit.sol\":2886:2891  value */\n      dup5\n        /* \"src/contracts/CarbonCredit.sol\":2846:2892  CarbonCreditTransferred(msg.sender, to, value) */\n      mload(0x40)\n      tag_113\n      swap2\n      swap1\n      tag_29\n      jump\t// in\n    tag_113:\n      mload(0x40)\n      dup1\n      swap2\n      sub\n      swap1\n      log3\n        /* \"src/contracts/CarbonCredit.sol\":2910:2914  true */\n      0x01\n        /* \"src/contracts/CarbonCredit.sol\":2903:2914  return true */\n      swap1\n      pop\n        /* \"src/contracts/CarbonCredit.sol\":2524:2921  function transferCarbonCredits(address to, uint256 value) public returns (bool success) {... */\n      swap3\n      swap2\n      pop\n      pop\n      jump\t// out\n        /* \"src/contracts/CarbonCredit.sol\":2151:2518  function issueCarbonCredits(address account, uint256 amount) public returns (bool success) {... */\n    tag_61:\n        /* \"src/contracts/CarbonCredit.sol\":2228:2240  bool success */\n      0x00\n        /* \"src/contracts/CarbonCredit.sol\":2274:2281  account */\n      dup3\n        /* \"src/contracts/CarbonCredit.sol\":2260:2281  msg.sender == account */\n      0xffffffffffffffffffffffffffffffffffffffff\n      and\n        /* \"src/contracts/CarbonCredit.sol\":2260:2270  msg.sender */\n      caller\n        /* \"src/contracts/CarbonCredit.sol\":2260:2281  msg.sender == account */\n      0xffffffffffffffffffffffffffffffffffffffff\n      and\n      eq\n        /* \"src/contracts/CarbonCredit.sol\":2252:2334  require(msg.sender == account, \"Only the account holder can issue carbon credits\") */\n      tag_115\n      jumpi\n      mload(0x40)\n      0x08c379a000000000000000000000000000000000000000000000000000000000\n      dup2\n      mstore\n      0x04\n      add\n      tag_116\n      swap1\n      tag_117\n      jump\t// in\n    tag_116:\n      mload(0x40)\n      dup1\n      swap2\n      sub\n      swap1\n      revert\n    tag_115:\n        /* \"src/contracts/CarbonCredit.sol\":2361:2362  0 */\n      0x00\n        /* \"src/contracts/CarbonCredit.sol\":2352:2358  amount */\n      dup3\n        /* \"src/contracts/CarbonCredit.sol\":2352:2362  amount > 0 */\n      gt\n        /* \"src/contracts/CarbonCredit.sol\":2344:2396  require(amount > 0, \"Amount must be greater than 0\") */\n      tag_118\n      jumpi\n      mload(0x40)\n      0x08c379a000000000000000000000000000000000000000000000000000000000\n      dup2\n      mstore\n      0x04\n      add\n      tag_119\n      swap1\n      tag_120\n      jump\t// in\n    tag_119:\n      mload(0x40)\n      dup1\n      swap2\n      sub\n      swap1\n      revert\n    tag_118:\n        /* \"src/contracts/CarbonCredit.sol\":2433:2439  amount */\n      dup2\n        /* \"src/contracts/CarbonCredit.sol\":2407:2420  carbonCredits */\n      0x06\n        /* \"src/contracts/CarbonCredit.sol\":2407:2429  carbonCredits[account] */\n      0x00\n        /* \"src/contracts/CarbonCredit.sol\":2421:2428  account */\n      dup6\n        /* \"src/contracts/CarbonCredit.sol\":2407:2429  carbonCredits[account] */\n      0xffffffffffffffffffffffffffffffffffffffff\n      and\n      0xffffffffffffffffffffffffffffffffffffffff\n      and\n      dup2\n      mstore\n      0x20\n      add\n      swap1\n      dup2\n      mstore\n      0x20\n      add\n      0x00\n      keccak256\n      0x00\n        /* \"src/contracts/CarbonCredit.sol\":2407:2439  carbonCredits[account] += amount */\n      dup3\n      dup3\n      sload\n      tag_121\n      swap2\n      swap1\n      tag_89\n      jump\t// in\n    tag_121:\n      swap3\n      pop\n      pop\n      dup2\n      swap1\n      sstore\n      pop\n        /* \"src/contracts/CarbonCredit.sol\":2473:2480  account */\n      dup3\n        /* \"src/contracts/CarbonCredit.sol\":2454:2489  CarbonCreditIssued(account, amount) */\n      0xffffffffffffffffffffffffffffffffffffffff\n      and\n      0xb187454da3da066362cc9f4981c0ca94f6fa47f422ff91d4fce8a1ca73064b92\n        /* \"src/contracts/CarbonCredit.sol\":2482:2488  amount */\n      dup4\n        /* \"src/contracts/CarbonCredit.sol\":2454:2489  CarbonCreditIssued(account, amount) */\n      mload(0x40)\n      tag_122\n      swap2\n      swap1\n      tag_29\n      jump\t// in\n    tag_122:\n      mload(0x40)\n      dup1\n      swap2\n      sub\n      swap1\n      log2\n        /* \"src/contracts/CarbonCredit.sol\":2507:2511  true */\n      0x01\n        /* \"src/contracts/CarbonCredit.sol\":2500:2511  return true */\n      swap1\n      pop\n        /* \"src/contracts/CarbonCredit.sol\":2151:2518  function issueCarbonCredits(address account, uint256 amount) public returns (bool success) {... */\n      swap3\n      swap2\n      pop\n      pop\n      jump\t// out\n        /* \"src/contracts/CarbonCredit.sol\":245:309  mapping(address => mapping(address => uint256)) public allowance */\n    tag_66:\n      mstore(0x20, 0x05)\n      dup2\n      0x00\n      mstore\n      mstore(0x20, keccak256(0x00, 0x40))\n      dup1\n      0x00\n      mstore\n      keccak256(0x00, 0x40)\n      0x00\n      swap2\n      pop\n      swap2\n      pop\n      pop\n      sload\n      dup2\n      jump\t// out\n        /* \"#utility.yul\":7:106   */\n    tag_123:\n        /* \"#utility.yul\":59:65   */\n      0x00\n        /* \"#utility.yul\":93:98   */\n      dup2\n        /* \"#utility.yul\":87:99   */\n      mload\n        /* \"#utility.yul\":77:99   */\n      swap1\n      pop\n        /* \"#utility.yul\":7:106   */\n      swap2\n      swap1\n      pop\n      jump\t// out\n        /* \"#utility.yul\":112:281   */\n    tag_124:\n        /* \"#utility.yul\":196:207   */\n      0x00\n        /* \"#utility.yul\":230:236   */\n      dup3\n        /* \"#utility.yul\":225:228   */\n      dup3\n        /* \"#utility.yul\":218:237   */\n      mstore\n        /* \"#utility.yul\":270:274   */\n      0x20\n        /* \"#utility.yul\":265:268   */\n      dup3\n        /* \"#utility.yul\":261:275   */\n      add\n        /* \"#utility.yul\":246:275   */\n      swap1\n      pop\n        /* \"#utility.yul\":112:281   */\n      swap3\n      swap2\n      pop\n      pop\n      jump\t// out\n        /* \"#utility.yul\":287:533   */\n    tag_125:\n        /* \"#utility.yul\":368:369   */\n      0x00\n        /* \"#utility.yul\":378:491   */\n    tag_161:\n        /* \"#utility.yul\":392:398   */\n      dup4\n        /* \"#utility.yul\":389:390   */\n      dup2\n        /* \"#utility.yul\":386:399   */\n      lt\n        /* \"#utility.yul\":378:491   */\n      iszero\n      tag_163\n      jumpi\n        /* \"#utility.yul\":477:478   */\n      dup1\n        /* \"#utility.yul\":472:475   */\n      dup3\n        /* \"#utility.yul\":468:479   */\n      add\n        /* \"#utility.yul\":462:480   */\n      mload\n        /* \"#utility.yul\":458:459   */\n      dup2\n        /* \"#utility.yul\":453:456   */\n      dup5\n        /* \"#utility.yul\":449:460   */\n      add\n        /* \"#utility.yul\":442:481   */\n      mstore\n        /* \"#utility.yul\":414:416   */\n      0x20\n        /* \"#utility.yul\":411:412   */\n      dup2\n        /* \"#utility.yul\":407:417   */\n      add\n        /* \"#utility.yul\":402:417   */\n      swap1\n      pop\n        /* \"#utility.yul\":378:491   */\n      jump(tag_161)\n    tag_163:\n        /* \"#utility.yul\":525:526   */\n      0x00\n        /* \"#utility.yul\":516:522   */\n      dup5\n        /* \"#utility.yul\":511:514   */\n      dup5\n        /* \"#utility.yul\":507:523   */\n      add\n        /* \"#utility.yul\":500:527   */\n      mstore\n        /* \"#utility.yul\":349:533   */\n      pop\n        /* \"#utility.yul\":287:533   */\n      pop\n      pop\n      pop\n      jump\t// out\n        /* \"#utility.yul\":539:641   */\n    tag_126:\n        /* \"#utility.yul\":580:586   */\n      0x00\n        /* \"#utility.yul\":631:633   */\n      0x1f\n        /* \"#utility.yul\":627:634   */\n      not\n        /* \"#utility.yul\":622:624   */\n      0x1f\n        /* \"#utility.yul\":615:620   */\n      dup4\n        /* \"#utility.yul\":611:625   */\n      add\n        /* \"#utility.yul\":607:635   */\n      and\n        /* \"#utility.yul\":597:635   */\n      swap1\n      pop\n        /* \"#utility.yul\":539:641   */\n      swap2\n      swap1\n      pop\n      jump\t// out\n        /* \"#utility.yul\":647:1024   */\n    tag_127:\n        /* \"#utility.yul\":735:738   */\n      0x00\n        /* \"#utility.yul\":763:802   */\n      tag_166\n        /* \"#utility.yul\":796:801   */\n      dup3\n        /* \"#utility.yul\":763:802   */\n      tag_123\n      jump\t// in\n    tag_166:\n        /* \"#utility.yul\":818:889   */\n      tag_167\n        /* \"#utility.yul\":882:888   */\n      dup2\n        /* \"#utility.yul\":877:880   */\n      dup6\n        /* \"#utility.yul\":818:889   */\n      tag_124\n      jump\t// in\n    tag_167:\n        /* \"#utility.yul\":811:889   */\n      swap4\n      pop\n        /* \"#utility.yul\":898:963   */\n      tag_168\n        /* \"#utility.yul\":956:962   */\n      dup2\n        /* \"#utility.yul\":951:954   */\n      dup6\n        /* \"#utility.yul\":944:948   */\n      0x20\n        /* \"#utility.yul\":937:942   */\n      dup7\n        /* \"#utility.yul\":933:949   */\n      add\n        /* \"#utility.yul\":898:963   */\n      tag_125\n      jump\t// in\n    tag_168:\n        /* \"#utility.yul\":988:1017   */\n      tag_169\n        /* \"#utility.yul\":1010:1016   */\n      dup2\n        /* \"#utility.yul\":988:1017   */\n      tag_126\n      jump\t// in\n    tag_169:\n        /* \"#utility.yul\":983:986   */\n      dup5\n        /* \"#utility.yul\":979:1018   */\n      add\n        /* \"#utility.yul\":972:1018   */\n      swap2\n      pop\n        /* \"#utility.yul\":739:1024   */\n      pop\n        /* \"#utility.yul\":647:1024   */\n      swap3\n      swap2\n      pop\n      pop\n      jump\t// out\n        /* \"#utility.yul\":1030:1343   */\n    tag_19:\n        /* \"#utility.yul\":1143:1147   */\n      0x00\n        /* \"#utility.yul\":1181:1183   */\n      0x20\n        /* \"#utility.yul\":1170:1179   */\n      dup3\n        /* \"#utility.yul\":1166:1184   */\n      add\n        /* \"#utility.yul\":1158:1184   */\n      swap1\n      pop\n        /* \"#utility.yul\":1230:1239   */\n      dup2\n        /* \"#utility.yul\":1224:1228   */\n      dup2\n        /* \"#utility.yul\":1220:1240   */\n      sub\n        /* \"#utility.yul\":1216:1217   */\n      0x00\n        /* \"#utility.yul\":1205:1214   */\n      dup4\n        /* \"#utility.yul\":1201:1218   */\n      add\n        /* \"#utility.yul\":1194:1241   */\n      mstore\n        /* \"#utility.yul\":1258:1336   */\n      tag_171\n        /* \"#utility.yul\":1331:1335   */\n      dup2\n        /* \"#utility.yul\":1322:1328   */\n      dup5\n        /* \"#utility.yul\":1258:1336   */\n      tag_127\n      jump\t// in\n    tag_171:\n        /* \"#utility.yul\":1250:1336   */\n      swap1\n      pop\n        /* \"#utility.yul\":1030:1343   */\n      swap3\n      swap2\n      pop\n      pop\n      jump\t// out\n        /* \"#utility.yul\":1430:1547   */\n    tag_129:\n        /* \"#utility.yul\":1539:1540   */\n      0x00\n        /* \"#utility.yul\":1536:1537   */\n      dup1\n        /* \"#utility.yul\":1529:1541   */\n      revert\n        /* \"#utility.yul\":1676:1802   */\n    tag_131:\n        /* \"#utility.yul\":1713:1720   */\n      0x00\n        /* \"#utility.yul\":1753:1795   */\n      0xffffffffffffffffffffffffffffffffffffffff\n        /* \"#utility.yul\":1746:1751   */\n      dup3\n        /* \"#utility.yul\":1742:1796   */\n      and\n        /* \"#utility.yul\":1731:1796   */\n      swap1\n      pop\n        /* \"#utility.yul\":1676:1802   */\n      swap2\n      swap1\n      pop\n      jump\t// out\n        /* \"#utility.yul\":1808:1904   */\n    tag_132:\n        /* \"#utility.yul\":1845:1852   */\n      0x00\n        /* \"#utility.yul\":1874:1898   */\n      tag_177\n        /* \"#utility.yul\":1892:1897   */\n      dup3\n        /* \"#utility.yul\":1874:1898   */\n      tag_131\n      jump\t// in\n    tag_177:\n        /* \"#utility.yul\":1863:1898   */\n      swap1\n      pop\n        /* \"#utility.yul\":1808:1904   */\n      swap2\n      swap1\n      pop\n      jump\t// out\n        /* \"#utility.yul\":1910:2032   */\n    tag_133:\n        /* \"#utility.yul\":1983:2007   */\n      tag_179\n        /* \"#utility.yul\":2001:2006   */\n      dup2\n        /* \"#utility.yul\":1983:2007   */\n      tag_132\n      jump\t// in\n    tag_179:\n        /* \"#utility.yul\":1976:1981   */\n      dup2\n        /* \"#utility.yul\":1973:2008   */\n      eq\n        /* \"#utility.yul\":1963:2026   */\n      tag_180\n      jumpi\n        /* \"#utility.yul\":2022:2023   */\n      0x00\n        /* \"#utility.yul\":2019:2020   */\n      dup1\n        /* \"#utility.yul\":2012:2024   */\n      revert\n        /* \"#utility.yul\":1963:2026   */\n    tag_180:\n        /* \"#utility.yul\":1910:2032   */\n      pop\n      jump\t// out\n        /* \"#utility.yul\":2038:2177   */\n    tag_134:\n        /* \"#utility.yul\":2084:2089   */\n      0x00\n        /* \"#utility.yul\":2122:2128   */\n      dup2\n        /* \"#utility.yul\":2109:2129   */\n      calldataload\n        /* \"#utility.yul\":2100:2129   */\n      swap1\n      pop\n        /* \"#utility.yul\":2138:2171   */\n      tag_182\n        /* \"#utility.yul\":2165:2170   */\n      dup2\n        /* \"#utility.yul\":2138:2171   */\n      tag_133\n      jump\t// in\n    tag_182:\n        /* \"#utility.yul\":2038:2177   */\n      swap3\n      swap2\n      pop\n      pop\n      jump\t// out\n        /* \"#utility.yul\":2183:2260   */\n    tag_135:\n        /* \"#utility.yul\":2220:2227   */\n      0x00\n        /* \"#utility.yul\":2249:2254   */\n      dup2\n        /* \"#utility.yul\":2238:2254   */\n      swap1\n      pop\n        /* \"#utility.yul\":2183:2260   */\n      swap2\n      swap1\n      pop\n      jump\t// out\n        /* \"#utility.yul\":2266:2388   */\n    tag_136:\n        /* \"#utility.yul\":2339:2363   */\n      tag_185\n        /* \"#utility.yul\":2357:2362   */\n      dup2\n        /* \"#utility.yul\":2339:2363   */\n      tag_135\n      jump\t// in\n    tag_185:\n        /* \"#utility.yul\":2332:2337   */\n      dup2\n        /* \"#utility.yul\":2329:2364   */\n      eq\n        /* \"#utility.yul\":2319:2382   */\n      tag_186\n      jumpi\n        /* \"#utility.yul\":2378:2379   */\n      0x00\n        /* \"#utility.yul\":2375:2376   */\n      dup1\n        /* \"#utility.yul\":2368:2380   */\n      revert\n        /* \"#utility.yul\":2319:2382   */\n    tag_186:\n        /* \"#utility.yul\":2266:2388   */\n      pop\n      jump\t// out\n        /* \"#utility.yul\":2394:2533   */\n    tag_137:\n        /* \"#utility.yul\":2440:2445   */\n      0x00\n        /* \"#utility.yul\":2478:2484   */\n      dup2\n        /* \"#utility.yul\":2465:2485   */\n      calldataload\n        /* \"#utility.yul\":2456:2485   */\n      swap1\n      pop\n        /* \"#utility.yul\":2494:2527   */\n      tag_188\n        /* \"#utility.yul\":2521:2526   */\n      dup2\n        /* \"#utility.yul\":2494:2527   */\n      tag_136\n      jump\t// in\n    tag_188:\n        /* \"#utility.yul\":2394:2533   */\n      swap3\n      swap2\n      pop\n      pop\n      jump\t// out\n        /* \"#utility.yul\":2539:3013   */\n    tag_22:\n        /* \"#utility.yul\":2607:2613   */\n      0x00\n        /* \"#utility.yul\":2615:2621   */\n      dup1\n        /* \"#utility.yul\":2664:2666   */\n      0x40\n        /* \"#utility.yul\":2652:2661   */\n      dup4\n        /* \"#utility.yul\":2643:2650   */\n      dup6\n        /* \"#utility.yul\":2639:2662   */\n      sub\n        /* \"#utility.yul\":2635:2667   */\n      slt\n        /* \"#utility.yul\":2632:2751   */\n      iszero\n      tag_190\n      jumpi\n        /* \"#utility.yul\":2670:2749   */\n      tag_191\n      tag_129\n      jump\t// in\n    tag_191:\n        /* \"#utility.yul\":2632:2751   */\n    tag_190:\n        /* \"#utility.yul\":2790:2791   */\n      0x00\n        /* \"#utility.yul\":2815:2868   */\n      tag_192\n        /* \"#utility.yul\":2860:2867   */\n      dup6\n        /* \"#utility.yul\":2851:2857   */\n      dup3\n        /* \"#utility.yul\":2840:2849   */\n      dup7\n        /* \"#utility.yul\":2836:2858   */\n      add\n        /* \"#utility.yul\":2815:2868   */\n      tag_134\n      jump\t// in\n    tag_192:\n        /* \"#utility.yul\":2805:2868   */\n      swap3\n      pop\n        /* \"#utility.yul\":2761:2878   */\n      pop\n        /* \"#utility.yul\":2917:2919   */\n      0x20\n        /* \"#utility.yul\":2943:2996   */\n      tag_193\n        /* \"#utility.yul\":2988:2995   */\n      dup6\n        /* \"#utility.yul\":2979:2985   */\n      dup3\n        /* \"#utility.yul\":2968:2977   */\n      dup7\n        /* \"#utility.yul\":2964:2986   */\n      add\n        /* \"#utility.yul\":2943:2996   */\n      tag_137\n      jump\t// in\n    tag_193:\n        /* \"#utility.yul\":2933:2996   */\n      swap2\n      pop\n        /* \"#utility.yul\":2888:3006   */\n      pop\n        /* \"#utility.yul\":2539:3013   */\n      swap3\n      pop\n      swap3\n      swap1\n      pop\n      jump\t// out\n        /* \"#utility.yul\":3019:3109   */\n    tag_138:\n        /* \"#utility.yul\":3053:3060   */\n      0x00\n        /* \"#utility.yul\":3096:3101   */\n      dup2\n        /* \"#utility.yul\":3089:3102   */\n      iszero\n        /* \"#utility.yul\":3082:3103   */\n      iszero\n        /* \"#utility.yul\":3071:3103   */\n      swap1\n      pop\n        /* \"#utility.yul\":3019:3109   */\n      swap2\n      swap1\n      pop\n      jump\t// out\n        /* \"#utility.yul\":3115:3224   */\n    tag_139:\n        /* \"#utility.yul\":3196:3217   */\n      tag_196\n        /* \"#utility.yul\":3211:3216   */\n      dup2\n        /* \"#utility.yul\":3196:3217   */\n      tag_138\n      jump\t// in\n    tag_196:\n        /* \"#utility.yul\":3191:3194   */\n      dup3\n        /* \"#utility.yul\":3184:3218   */\n      mstore\n        /* \"#utility.yul\":3115:3224   */\n      pop\n      pop\n      jump\t// out\n        /* \"#utility.yul\":3230:3440   */\n    tag_25:\n        /* \"#utility.yul\":3317:3321   */\n      0x00\n        /* \"#utility.yul\":3355:3357   */\n      0x20\n        /* \"#utility.yul\":3344:3353   */\n      dup3\n        /* \"#utility.yul\":3340:3358   */\n      add\n        /* \"#utility.yul\":3332:3358   */\n      swap1\n      pop\n        /* \"#utility.yul\":3368:3433   */\n      tag_198\n        /* \"#utility.yul\":3430:3431   */\n      0x00\n        /* \"#utility.yul\":3419:3428   */\n      dup4\n        /* \"#utility.yul\":3415:3432   */\n      add\n        /* \"#utility.yul\":3406:3412   */\n      dup5\n        /* \"#utility.yul\":3368:3433   */\n      tag_139\n      jump\t// in\n    tag_198:\n        /* \"#utility.yul\":3230:3440   */\n      swap3\n      swap2\n      pop\n      pop\n      jump\t// out\n        /* \"#utility.yul\":3446:3564   */\n    tag_140:\n        /* \"#utility.yul\":3533:3557   */\n      tag_200\n        /* \"#utility.yul\":3551:3556   */\n      dup2\n        /* \"#utility.yul\":3533:3557   */\n      tag_135\n      jump\t// in\n    tag_200:\n        /* \"#utility.yul\":3528:3531   */\n      dup3\n        /* \"#utility.yul\":3521:3558   */\n      mstore\n        /* \"#utility.yul\":3446:3564   */\n      pop\n      pop\n      jump\t// out\n        /* \"#utility.yul\":3570:3792   */\n    tag_29:\n        /* \"#utility.yul\":3663:3667   */\n      0x00\n        /* \"#utility.yul\":3701:3703   */\n      0x20\n        /* \"#utility.yul\":3690:3699   */\n      dup3\n        /* \"#utility.yul\":3686:3704   */\n      add\n        /* \"#utility.yul\":3678:3704   */\n      swap1\n      pop\n        /* \"#utility.yul\":3714:3785   */\n      tag_202\n        /* \"#utility.yul\":3782:3783   */\n      0x00\n        /* \"#utility.yul\":3771:3780   */\n      dup4\n        /* \"#utility.yul\":3767:3784   */\n      add\n        /* \"#utility.yul\":3758:3764   */\n      dup5\n        /* \"#utility.yul\":3714:3785   */\n      tag_140\n      jump\t// in\n    tag_202:\n        /* \"#utility.yul\":3570:3792   */\n      swap3\n      swap2\n      pop\n      pop\n      jump\t// out\n        /* \"#utility.yul\":3798:4417   */\n    tag_32:\n        /* \"#utility.yul\":3875:3881   */\n      0x00\n        /* \"#utility.yul\":3883:3889   */\n      dup1\n        /* \"#utility.yul\":3891:3897   */\n      0x00\n        /* \"#utility.yul\":3940:3942   */\n      0x60\n        /* \"#utility.yul\":3928:3937   */\n      dup5\n        /* \"#utility.yul\":3919:3926   */\n      dup7\n        /* \"#utility.yul\":3915:3938   */\n      sub\n        /* \"#utility.yul\":3911:3943   */\n      slt\n        /* \"#utility.yul\":3908:4027   */\n      iszero\n      tag_204\n      jumpi\n        /* \"#utility.yul\":3946:4025   */\n      tag_205\n      tag_129\n      jump\t// in\n    tag_205:\n        /* \"#utility.yul\":3908:4027   */\n    tag_204:\n        /* \"#utility.yul\":4066:4067   */\n      0x00\n        /* \"#utility.yul\":4091:4144   */\n      tag_206\n        /* \"#utility.yul\":4136:4143   */\n      dup7\n        /* \"#utility.yul\":4127:4133   */\n      dup3\n        /* \"#utility.yul\":4116:4125   */\n      dup8\n        /* \"#utility.yul\":4112:4134   */\n      add\n        /* \"#utility.yul\":4091:4144   */\n      tag_134\n      jump\t// in\n    tag_206:\n        /* \"#utility.yul\":4081:4144   */\n      swap4\n      pop\n        /* \"#utility.yul\":4037:4154   */\n      pop\n        /* \"#utility.yul\":4193:4195   */\n      0x20\n        /* \"#utility.yul\":4219:4272   */\n      tag_207\n        /* \"#utility.yul\":4264:4271   */\n      dup7\n        /* \"#utility.yul\":4255:4261   */\n      dup3\n        /* \"#utility.yul\":4244:4253   */\n      dup8\n        /* \"#utility.yul\":4240:4262   */\n      add\n        /* \"#utility.yul\":4219:4272   */\n      tag_134\n      jump\t// in\n    tag_207:\n        /* \"#utility.yul\":4209:4272   */\n      swap3\n      pop\n        /* \"#utility.yul\":4164:4282   */\n      pop\n        /* \"#utility.yul\":4321:4323   */\n      0x40\n        /* \"#utility.yul\":4347:4400   */\n      tag_208\n        /* \"#utility.yul\":4392:4399   */\n      dup7\n        /* \"#utility.yul\":4383:4389   */\n      dup3\n        /* \"#utility.yul\":4372:4381   */\n      dup8\n        /* \"#utility.yul\":4368:4390   */\n      add\n        /* \"#utility.yul\":4347:4400   */\n      tag_137\n      jump\t// in\n    tag_208:\n        /* \"#utility.yul\":4337:4400   */\n      swap2\n      pop\n        /* \"#utility.yul\":4292:4410   */\n      pop\n        /* \"#utility.yul\":3798:4417   */\n      swap3\n      pop\n      swap3\n      pop\n      swap3\n      jump\t// out\n        /* \"#utility.yul\":4423:4509   */\n    tag_141:\n        /* \"#utility.yul\":4458:4465   */\n      0x00\n        /* \"#utility.yul\":4498:4502   */\n      0xff\n        /* \"#utility.yul\":4491:4496   */\n      dup3\n        /* \"#utility.yul\":4487:4503   */\n      and\n        /* \"#utility.yul\":4476:4503   */\n      swap1\n      pop\n        /* \"#utility.yul\":4423:4509   */\n      swap2\n      swap1\n      pop\n      jump\t// out\n        /* \"#utility.yul\":4515:4627   */\n    tag_142:\n        /* \"#utility.yul\":4598:4620   */\n      tag_211\n        /* \"#utility.yul\":4614:4619   */\n      dup2\n        /* \"#utility.yul\":4598:4620   */\n      tag_141\n      jump\t// in\n    tag_211:\n        /* \"#utility.yul\":4593:4596   */\n      dup3\n        /* \"#utility.yul\":4586:4621   */\n      mstore\n        /* \"#utility.yul\":4515:4627   */\n      pop\n      pop\n      jump\t// out\n        /* \"#utility.yul\":4633:4847   */\n    tag_38:\n        /* \"#utility.yul\":4722:4726   */\n      0x00\n        /* \"#utility.yul\":4760:4762   */\n      0x20\n        /* \"#utility.yul\":4749:4758   */\n      dup3\n        /* \"#utility.yul\":4745:4763   */\n      add\n        /* \"#utility.yul\":4737:4763   */\n      swap1\n      pop\n        /* \"#utility.yul\":4773:4840   */\n      tag_213\n        /* \"#utility.yul\":4837:4838   */\n      0x00\n        /* \"#utility.yul\":4826:4835   */\n      dup4\n        /* \"#utility.yul\":4822:4839   */\n      add\n        /* \"#utility.yul\":4813:4819   */\n      dup5\n        /* \"#utility.yul\":4773:4840   */\n      tag_142\n      jump\t// in\n    tag_213:\n        /* \"#utility.yul\":4633:4847   */\n      swap3\n      swap2\n      pop\n      pop\n      jump\t// out\n        /* \"#utility.yul\":4853:5182   */\n    tag_41:\n        /* \"#utility.yul\":4912:4918   */\n      0x00\n        /* \"#utility.yul\":4961:4963   */\n      0x20\n        /* \"#utility.yul\":4949:4958   */\n      dup3\n        /* \"#utility.yul\":4940:4947   */\n      dup5\n        /* \"#utility.yul\":4936:4959   */\n      sub\n        /* \"#utility.yul\":4932:4964   */\n      slt\n        /* \"#utility.yul\":4929:5048   */\n      iszero\n      tag_215\n      jumpi\n        /* \"#utility.yul\":4967:5046   */\n      tag_216\n      tag_129\n      jump\t// in\n    tag_216:\n        /* \"#utility.yul\":4929:5048   */\n    tag_215:\n        /* \"#utility.yul\":5087:5088   */\n      0x00\n        /* \"#utility.yul\":5112:5165   */\n      tag_217\n        /* \"#utility.yul\":5157:5164   */\n      dup5\n        /* \"#utility.yul\":5148:5154   */\n      dup3\n        /* \"#utility.yul\":5137:5146   */\n      dup6\n        /* \"#utility.yul\":5133:5155   */\n      add\n        /* \"#utility.yul\":5112:5165   */\n      tag_134\n      jump\t// in\n    tag_217:\n        /* \"#utility.yul\":5102:5165   */\n      swap2\n      pop\n        /* \"#utility.yul\":5058:5175   */\n      pop\n        /* \"#utility.yul\":4853:5182   */\n      swap3\n      swap2\n      pop\n      pop\n      jump\t// out\n        /* \"#utility.yul\":5188:5662   */\n    tag_65:\n        /* \"#utility.yul\":5256:5262   */\n      0x00\n        /* \"#utility.yul\":5264:5270   */\n      dup1\n        /* \"#utility.yul\":5313:5315   */\n      0x40\n        /* \"#utility.yul\":5301:5310   */\n      dup4\n        /* \"#utility.yul\":5292:5299   */\n      dup6\n        /* \"#utility.yul\":5288:5311   */\n      sub\n        /* \"#utility.yul\":5284:5316   */\n      slt\n        /* \"#utility.yul\":5281:5400   */\n      iszero\n      tag_219\n      jumpi\n        /* \"#utility.yul\":5319:5398   */\n      tag_220\n      tag_129\n      jump\t// in\n    tag_220:\n        /* \"#utility.yul\":5281:5400   */\n    tag_219:\n        /* \"#utility.yul\":5439:5440   */\n      0x00\n        /* \"#utility.yul\":5464:5517   */\n      tag_221\n        /* \"#utility.yul\":5509:5516   */\n      dup6\n        /* \"#utility.yul\":5500:5506   */\n      dup3\n        /* \"#utility.yul\":5489:5498   */\n      dup7\n        /* \"#utility.yul\":5485:5507   */\n      add\n        /* \"#utility.yul\":5464:5517   */\n      tag_134\n      jump\t// in\n    tag_221:\n        /* \"#utility.yul\":5454:5517   */\n      swap3\n      pop\n        /* \"#utility.yul\":5410:5527   */\n      pop\n        /* \"#utility.yul\":5566:5568   */\n      0x20\n        /* \"#utility.yul\":5592:5645   */\n      tag_222\n        /* \"#utility.yul\":5637:5644   */\n      dup6\n        /* \"#utility.yul\":5628:5634   */\n      dup3\n        /* \"#utility.yul\":5617:5626   */\n      dup7\n        /* \"#utility.yul\":5613:5635   */\n      add\n        /* \"#utility.yul\":5592:5645   */\n      tag_134\n      jump\t// in\n    tag_222:\n        /* \"#utility.yul\":5582:5645   */\n      swap2\n      pop\n        /* \"#utility.yul\":5537:5655   */\n      pop\n        /* \"#utility.yul\":5188:5662   */\n      swap3\n      pop\n      swap3\n      swap1\n      pop\n      jump\t// out\n        /* \"#utility.yul\":5668:5848   */\n    tag_143:\n        /* \"#utility.yul\":5716:5793   */\n      0x4e487b7100000000000000000000000000000000000000000000000000000000\n        /* \"#utility.yul\":5713:5714   */\n      0x00\n        /* \"#utility.yul\":5706:5794   */\n      mstore\n        /* \"#utility.yul\":5813:5817   */\n      0x22\n        /* \"#utility.yul\":5810:5811   */\n      0x04\n        /* \"#utility.yul\":5803:5818   */\n      mstore\n        /* \"#utility.yul\":5837:5841   */\n      0x24\n        /* \"#utility.yul\":5834:5835   */\n      0x00\n        /* \"#utility.yul\":5827:5842   */\n      revert\n        /* \"#utility.yul\":5854:6174   */\n    tag_69:\n        /* \"#utility.yul\":5898:5904   */\n      0x00\n        /* \"#utility.yul\":5935:5936   */\n      0x02\n        /* \"#utility.yul\":5929:5933   */\n      dup3\n        /* \"#utility.yul\":5925:5937   */\n      div\n        /* \"#utility.yul\":5915:5937   */\n      swap1\n      pop\n        /* \"#utility.yul\":5982:5983   */\n      0x01\n        /* \"#utility.yul\":5976:5980   */\n      dup3\n        /* \"#utility.yul\":5972:5984   */\n      and\n        /* \"#utility.yul\":6003:6021   */\n      dup1\n        /* \"#utility.yul\":5993:6074   */\n      tag_225\n      jumpi\n        /* \"#utility.yul\":6059:6063   */\n      0x7f\n        /* \"#utility.yul\":6051:6057   */\n      dup3\n        /* \"#utility.yul\":6047:6064   */\n      and\n        /* \"#utility.yul\":6037:6064   */\n      swap2\n      pop\n        /* \"#utility.yul\":5993:6074   */\n    tag_225:\n        /* \"#utility.yul\":6121:6123   */\n      0x20\n        /* \"#utility.yul\":6113:6119   */\n      dup3\n        /* \"#utility.yul\":6110:6124   */\n      lt\n        /* \"#utility.yul\":6090:6108   */\n      dup2\n        /* \"#utility.yul\":6087:6125   */\n      sub\n        /* \"#utility.yul\":6084:6168   */\n      tag_226\n      jumpi\n        /* \"#utility.yul\":6140:6158   */\n      tag_227\n      tag_143\n      jump\t// in\n    tag_227:\n        /* \"#utility.yul\":6084:6168   */\n    tag_226:\n        /* \"#utility.yul\":5905:6174   */\n      pop\n        /* \"#utility.yul\":5854:6174   */\n      swap2\n      swap1\n      pop\n      jump\t// out\n        /* \"#utility.yul\":6180:6345   */\n    tag_144:\n        /* \"#utility.yul\":6320:6337   */\n      0x496e76616c696420616464726573730000000000000000000000000000000000\n        /* \"#utility.yul\":6316:6317   */\n      0x00\n        /* \"#utility.yul\":6308:6314   */\n      dup3\n        /* \"#utility.yul\":6304:6318   */\n      add\n        /* \"#utility.yul\":6297:6338   */\n      mstore\n        /* \"#utility.yul\":6180:6345   */\n      pop\n      jump\t// out\n        /* \"#utility.yul\":6351:6717   */\n    tag_145:\n        /* \"#utility.yul\":6493:6496   */\n      0x00\n        /* \"#utility.yul\":6514:6581   */\n      tag_230\n        /* \"#utility.yul\":6578:6580   */\n      0x0f\n        /* \"#utility.yul\":6573:6576   */\n      dup4\n        /* \"#utility.yul\":6514:6581   */\n      tag_124\n      jump\t// in\n    tag_230:\n        /* \"#utility.yul\":6507:6581   */\n      swap2\n      pop\n        /* \"#utility.yul\":6590:6683   */\n      tag_231\n        /* \"#utility.yul\":6679:6682   */\n      dup3\n        /* \"#utility.yul\":6590:6683   */\n      tag_144\n      jump\t// in\n    tag_231:\n        /* \"#utility.yul\":6708:6710   */\n      0x20\n        /* \"#utility.yul\":6703:6706   */\n      dup3\n        /* \"#utility.yul\":6699:6711   */\n      add\n        /* \"#utility.yul\":6692:6711   */\n      swap1\n      pop\n        /* \"#utility.yul\":6351:6717   */\n      swap2\n      swap1\n      pop\n      jump\t// out\n        /* \"#utility.yul\":6723:7142   */\n    tag_79:\n        /* \"#utility.yul\":6889:6893   */\n      0x00\n        /* \"#utility.yul\":6927:6929   */\n      0x20\n        /* \"#utility.yul\":6916:6925   */\n      dup3\n        /* \"#utility.yul\":6912:6930   */\n      add\n        /* \"#utility.yul\":6904:6930   */\n      swap1\n      pop\n        /* \"#utility.yul\":6976:6985   */\n      dup2\n        /* \"#utility.yul\":6970:6974   */\n      dup2\n        /* \"#utility.yul\":6966:6986   */\n      sub\n        /* \"#utility.yul\":6962:6963   */\n      0x00\n        /* \"#utility.yul\":6951:6960   */\n      dup4\n        /* \"#utility.yul\":6947:6964   */\n      add\n        /* \"#utility.yul\":6940:6987   */\n      mstore\n        /* \"#utility.yul\":7004:7135   */\n      tag_233\n        /* \"#utility.yul\":7130:7134   */\n      dup2\n        /* \"#utility.yul\":7004:7135   */\n      tag_145\n      jump\t// in\n    tag_233:\n        /* \"#utility.yul\":6996:7135   */\n      swap1\n      pop\n        /* \"#utility.yul\":6723:7142   */\n      swap2\n      swap1\n      pop\n      jump\t// out\n        /* \"#utility.yul\":7148:7318   */\n    tag_146:\n        /* \"#utility.yul\":7288:7310   */\n      0x496e73756666696369656e742062616c616e6365000000000000000000000000\n        /* \"#utility.yul\":7284:7285   */\n      0x00\n        /* \"#utility.yul\":7276:7282   */\n      dup3\n        /* \"#utility.yul\":7272:7286   */\n      add\n        /* \"#utility.yul\":7265:7311   */\n      mstore\n        /* \"#utility.yul\":7148:7318   */\n      pop\n      jump\t// out\n        /* \"#utility.yul\":7324:7690   */\n    tag_147:\n        /* \"#utility.yul\":7466:7469   */\n      0x00\n        /* \"#utility.yul\":7487:7554   */\n      tag_236\n        /* \"#utility.yul\":7551:7553   */\n      0x14\n        /* \"#utility.yul\":7546:7549   */\n      dup4\n        /* \"#utility.yul\":7487:7554   */\n      tag_124\n      jump\t// in\n    tag_236:\n        /* \"#utility.yul\":7480:7554   */\n      swap2\n      pop\n        /* \"#utility.yul\":7563:7656   */\n      tag_237\n        /* \"#utility.yul\":7652:7655   */\n      dup3\n        /* \"#utility.yul\":7563:7656   */\n      tag_146\n      jump\t// in\n    tag_237:\n        /* \"#utility.yul\":7681:7683   */\n      0x20\n        /* \"#utility.yul\":7676:7679   */\n      dup3\n        /* \"#utility.yul\":7672:7684   */\n      add\n        /* \"#utility.yul\":7665:7684   */\n      swap1\n      pop\n        /* \"#utility.yul\":7324:7690   */\n      swap2\n      swap1\n      pop\n      jump\t// out\n        /* \"#utility.yul\":7696:8115   */\n    tag_82:\n        /* \"#utility.yul\":7862:7866   */\n      0x00\n        /* \"#utility.yul\":7900:7902   */\n      0x20\n        /* \"#utility.yul\":7889:7898   */\n      dup3\n        /* \"#utility.yul\":7885:7903   */\n      add\n        /* \"#utility.yul\":7877:7903   */\n      swap1\n      pop\n        /* \"#utility.yul\":7949:7958   */\n      dup2\n        /* \"#utility.yul\":7943:7947   */\n      dup2\n        /* \"#utility.yul\":7939:7959   */\n      sub\n        /* \"#utility.yul\":7935:7936   */\n      0x00\n        /* \"#utility.yul\":7924:7933   */\n      dup4\n        /* \"#utility.yul\":7920:7937   */\n      add\n        /* \"#utility.yul\":7913:7960   */\n      mstore\n        /* \"#utility.yul\":7977:8108   */\n      tag_239\n        /* \"#utility.yul\":8103:8107   */\n      dup2\n        /* \"#utility.yul\":7977:8108   */\n      tag_147\n      jump\t// in\n    tag_239:\n        /* \"#utility.yul\":7969:8108   */\n      swap1\n      pop\n        /* \"#utility.yul\":7696:8115   */\n      swap2\n      swap1\n      pop\n      jump\t// out\n        /* \"#utility.yul\":8121:8289   */\n    tag_148:\n        /* \"#utility.yul\":8261:8281   */\n      0x416c6c6f77616e63652065786365656465640000000000000000000000000000\n        /* \"#utility.yul\":8257:8258   */\n      0x00\n        /* \"#utility.yul\":8249:8255   */\n      dup3\n        /* \"#utility.yul\":8245:8259   */\n      add\n        /* \"#utility.yul\":8238:8282   */\n      mstore\n        /* \"#utility.yul\":8121:8289   */\n      pop\n      jump\t// out\n        /* \"#utility.yul\":8295:8661   */\n    tag_149:\n        /* \"#utility.yul\":8437:8440   */\n      0x00\n        /* \"#utility.yul\":8458:8525   */\n      tag_242\n        /* \"#utility.yul\":8522:8524   */\n      0x12\n        /* \"#utility.yul\":8517:8520   */\n      dup4\n        /* \"#utility.yul\":8458:8525   */\n      tag_124\n      jump\t// in\n    tag_242:\n        /* \"#utility.yul\":8451:8525   */\n      swap2\n      pop\n        /* \"#utility.yul\":8534:8627   */\n      tag_243\n        /* \"#utility.yul\":8623:8626   */\n      dup3\n        /* \"#utility.yul\":8534:8627   */\n      tag_148\n      jump\t// in\n    tag_243:\n        /* \"#utility.yul\":8652:8654   */\n      0x20\n        /* \"#utility.yul\":8647:8650   */\n      dup3\n        /* \"#utility.yul\":8643:8655   */\n      add\n        /* \"#utility.yul\":8636:8655   */\n      swap1\n      pop\n        /* \"#utility.yul\":8295:8661   */\n      swap2\n      swap1\n      pop\n      jump\t// out\n        /* \"#utility.yul\":8667:9086   */\n    tag_85:\n        /* \"#utility.yul\":8833:8837   */\n      0x00\n        /* \"#utility.yul\":8871:8873   */\n      0x20\n        /* \"#utility.yul\":8860:8869   */\n      dup3\n        /* \"#utility.yul\":8856:8874   */\n      add\n        /* \"#utility.yul\":8848:8874   */\n      swap1\n      pop\n        /* \"#utility.yul\":8920:8929   */\n      dup2\n        /* \"#utility.yul\":8914:8918   */\n      dup2\n        /* \"#utility.yul\":8910:8930   */\n      sub\n        /* \"#utility.yul\":8906:8907   */\n      0x00\n        /* \"#utility.yul\":8895:8904   */\n      dup4\n        /* \"#utility.yul\":8891:8908   */\n      add\n        /* \"#utility.yul\":8884:8931   */\n      mstore\n        /* \"#utility.yul\":8948:9079   */\n      tag_245\n        /* \"#utility.yul\":9074:9078   */\n      dup2\n        /* \"#utility.yul\":8948:9079   */\n      tag_149\n      jump\t// in\n    tag_245:\n        /* \"#utility.yul\":8940:9079   */\n      swap1\n      pop\n        /* \"#utility.yul\":8667:9086   */\n      swap2\n      swap1\n      pop\n      jump\t// out\n        /* \"#utility.yul\":9092:9272   */\n    tag_150:\n        /* \"#utility.yul\":9140:9217   */\n      0x4e487b7100000000000000000000000000000000000000000000000000000000\n        /* \"#utility.yul\":9137:9138   */\n      0x00\n        /* \"#utility.yul\":9130:9218   */\n      mstore\n        /* \"#utility.yul\":9237:9241   */\n      0x11\n        /* \"#utility.yul\":9234:9235   */\n      0x04\n        /* \"#utility.yul\":9227:9242   */\n      mstore\n        /* \"#utility.yul\":9261:9265   */\n      0x24\n        /* \"#utility.yul\":9258:9259   */\n      0x00\n        /* \"#utility.yul\":9251:9266   */\n      revert\n        /* \"#utility.yul\":9278:9472   */\n    tag_87:\n        /* \"#utility.yul\":9318:9322   */\n      0x00\n        /* \"#utility.yul\":9338:9358   */\n      tag_248\n        /* \"#utility.yul\":9356:9357   */\n      dup3\n        /* \"#utility.yul\":9338:9358   */\n      tag_135\n      jump\t// in\n    tag_248:\n        /* \"#utility.yul\":9333:9358   */\n      swap2\n      pop\n        /* \"#utility.yul\":9372:9392   */\n      tag_249\n        /* \"#utility.yul\":9390:9391   */\n      dup4\n        /* \"#utility.yul\":9372:9392   */\n      tag_135\n      jump\t// in\n    tag_249:\n        /* \"#utility.yul\":9367:9392   */\n      swap3\n      pop\n        /* \"#utility.yul\":9416:9417   */\n      dup3\n        /* \"#utility.yul\":9413:9414   */\n      dup3\n        /* \"#utility.yul\":9409:9418   */\n      sub\n        /* \"#utility.yul\":9401:9418   */\n      swap1\n      pop\n        /* \"#utility.yul\":9440:9441   */\n      dup2\n        /* \"#utility.yul\":9434:9438   */\n      dup2\n        /* \"#utility.yul\":9431:9442   */\n      gt\n        /* \"#utility.yul\":9428:9465   */\n      iszero\n      tag_250\n      jumpi\n        /* \"#utility.yul\":9445:9463   */\n      tag_251\n      tag_150\n      jump\t// in\n    tag_251:\n        /* \"#utility.yul\":9428:9465   */\n    tag_250:\n        /* \"#utility.yul\":9278:9472   */\n      swap3\n      swap2\n      pop\n      pop\n      jump\t// out\n        /* \"#utility.yul\":9478:9669   */\n    tag_89:\n        /* \"#utility.yul\":9518:9521   */\n      0x00\n        /* \"#utility.yul\":9537:9557   */\n      tag_253\n        /* \"#utility.yul\":9555:9556   */\n      dup3\n        /* \"#utility.yul\":9537:9557   */\n      tag_135\n      jump\t// in\n    tag_253:\n        /* \"#utility.yul\":9532:9557   */\n      swap2\n      pop\n        /* \"#utility.yul\":9571:9591   */\n      tag_254\n        /* \"#utility.yul\":9589:9590   */\n      dup4\n        /* \"#utility.yul\":9571:9591   */\n      tag_135\n      jump\t// in\n    tag_254:\n        /* \"#utility.yul\":9566:9591   */\n      swap3\n      pop\n        /* \"#utility.yul\":9614:9615   */\n      dup3\n        /* \"#utility.yul\":9611:9612   */\n      dup3\n        /* \"#utility.yul\":9607:9616   */\n      add\n        /* \"#utility.yul\":9600:9616   */\n      swap1\n      pop\n        /* \"#utility.yul\":9635:9638   */\n      dup1\n        /* \"#utility.yul\":9632:9633   */\n      dup3\n        /* \"#utility.yul\":9629:9639   */\n      gt\n        /* \"#utility.yul\":9626:9662   */\n      iszero\n      tag_255\n      jumpi\n        /* \"#utility.yul\":9642:9660   */\n      tag_256\n      tag_150\n      jump\t// in\n    tag_256:\n        /* \"#utility.yul\":9626:9662   */\n    tag_255:\n        /* \"#utility.yul\":9478:9669   */\n      swap3\n      swap2\n      pop\n      pop\n      jump\t// out\n        /* \"#utility.yul\":9675:9852   */\n    tag_151:\n        /* \"#utility.yul\":9815:9844   */\n      0x496e73756666696369656e7420636172626f6e20637265646974730000000000\n        /* \"#utility.yul\":9811:9812   */\n      0x00\n        /* \"#utility.yul\":9803:9809   */\n      dup3\n        /* \"#utility.yul\":9799:9813   */\n      add\n        /* \"#utility.yul\":9792:9845   */\n      mstore\n        /* \"#utility.yul\":9675:9852   */\n      pop\n      jump\t// out\n        /* \"#utility.yul\":9858:10224   */\n    tag_152:\n        /* \"#utility.yul\":10000:10003   */\n      0x00\n        /* \"#utility.yul\":10021:10088   */\n      tag_259\n        /* \"#utility.yul\":10085:10087   */\n      0x1b\n        /* \"#utility.yul\":10080:10083   */\n      dup4\n        /* \"#utility.yul\":10021:10088   */\n      tag_124\n      jump\t// in\n    tag_259:\n        /* \"#utility.yul\":10014:10088   */\n      swap2\n      pop\n        /* \"#utility.yul\":10097:10190   */\n      tag_260\n        /* \"#utility.yul\":10186:10189   */\n      dup3\n        /* \"#utility.yul\":10097:10190   */\n      tag_151\n      jump\t// in\n    tag_260:\n        /* \"#utility.yul\":10215:10217   */\n      0x20\n        /* \"#utility.yul\":10210:10213   */\n      dup3\n        /* \"#utility.yul\":10206:10218   */\n      add\n        /* \"#utility.yul\":10199:10218   */\n      swap1\n      pop\n        /* \"#utility.yul\":9858:10224   */\n      swap2\n      swap1\n      pop\n      jump\t// out\n        /* \"#utility.yul\":10230:10649   */\n    tag_110:\n        /* \"#utility.yul\":10396:10400   */\n      0x00\n        /* \"#utility.yul\":10434:10436   */\n      0x20\n        /* \"#utility.yul\":10423:10432   */\n      dup3\n        /* \"#utility.yul\":10419:10437   */\n      add\n        /* \"#utility.yul\":10411:10437   */\n      swap1\n      pop\n        /* \"#utility.yul\":10483:10492   */\n      dup2\n        /* \"#utility.yul\":10477:10481   */\n      dup2\n        /* \"#utility.yul\":10473:10493   */\n      sub\n        /* \"#utility.yul\":10469:10470   */\n      0x00\n        /* \"#utility.yul\":10458:10467   */\n      dup4\n        /* \"#utility.yul\":10454:10471   */\n      add\n        /* \"#utility.yul\":10447:10494   */\n      mstore\n        /* \"#utility.yul\":10511:10642   */\n      tag_262\n        /* \"#utility.yul\":10637:10641   */\n      dup2\n        /* \"#utility.yul\":10511:10642   */\n      tag_152\n      jump\t// in\n    tag_262:\n        /* \"#utility.yul\":10503:10642   */\n      swap1\n      pop\n        /* \"#utility.yul\":10230:10649   */\n      swap2\n      swap1\n      pop\n      jump\t// out\n        /* \"#utility.yul\":10655:10890   */\n    tag_153:\n        /* \"#utility.yul\":10795:10829   */\n      0x4f6e6c7920746865206163636f756e7420686f6c6465722063616e2069737375\n        /* \"#utility.yul\":10791:10792   */\n      0x00\n        /* \"#utility.yul\":10783:10789   */\n      dup3\n        /* \"#utility.yul\":10779:10793   */\n      add\n        /* \"#utility.yul\":10772:10830   */\n      mstore\n        /* \"#utility.yul\":10864:10882   */\n      0x6520636172626f6e206372656469747300000000000000000000000000000000\n        /* \"#utility.yul\":10859:10861   */\n      0x20\n        /* \"#utility.yul\":10851:10857   */\n      dup3\n        /* \"#utility.yul\":10847:10862   */\n      add\n        /* \"#utility.yul\":10840:10883   */\n      mstore\n        /* \"#utility.yul\":10655:10890   */\n      pop\n      jump\t// out\n        /* \"#utility.yul\":10896:11262   */\n    tag_154:\n        /* \"#utility.yul\":11038:11041   */\n      0x00\n        /* \"#utility.yul\":11059:11126   */\n      tag_265\n        /* \"#utility.yul\":11123:11125   */\n      0x30\n        /* \"#utility.yul\":11118:11121   */\n      dup4\n        /* \"#utility.yul\":11059:11126   */\n      tag_124\n      jump\t// in\n    tag_265:\n        /* \"#utility.yul\":11052:11126   */\n      swap2\n      pop\n        /* \"#utility.yul\":11135:11228   */\n      tag_266\n        /* \"#utility.yul\":11224:11227   */\n      dup3\n        /* \"#utility.yul\":11135:11228   */\n      tag_153\n      jump\t// in\n    tag_266:\n        /* \"#utility.yul\":11253:11255   */\n      0x40\n        /* \"#utility.yul\":11248:11251   */\n      dup3\n        /* \"#utility.yul\":11244:11256   */\n      add\n        /* \"#utility.yul\":11237:11256   */\n      swap1\n      pop\n        /* \"#utility.yul\":10896:11262   */\n      swap2\n      swap1\n      pop\n      jump\t// out\n        /* \"#utility.yul\":11268:11687   */\n    tag_117:\n        /* \"#utility.yul\":11434:11438   */\n      0x00\n        /* \"#utility.yul\":11472:11474   */\n      0x20\n        /* \"#utility.yul\":11461:11470   */\n      dup3\n        /* \"#utility.yul\":11457:11475   */\n      add\n        /* \"#utility.yul\":11449:11475   */\n      swap1\n      pop\n        /* \"#utility.yul\":11521:11530   */\n      dup2\n        /* \"#utility.yul\":11515:11519   */\n      dup2\n        /* \"#utility.yul\":11511:11531   */\n      sub\n        /* \"#utility.yul\":11507:11508   */\n      0x00\n        /* \"#utility.yul\":11496:11505   */\n      dup4\n        /* \"#utility.yul\":11492:11509   */\n      add\n        /* \"#utility.yul\":11485:11532   */\n      mstore\n        /* \"#utility.yul\":11549:11680   */\n      tag_268\n        /* \"#utility.yul\":11675:11679   */\n      dup2\n        /* \"#utility.yul\":11549:11680   */\n      tag_154\n      jump\t// in\n    tag_268:\n        /* \"#utility.yul\":11541:11680   */\n      swap1\n      pop\n        /* \"#utility.yul\":11268:11687   */\n      swap2\n      swap1\n      pop\n      jump\t// out\n        /* \"#utility.yul\":11693:11872   */\n    tag_155:\n        /* \"#utility.yul\":11833:11864   */\n      0x416d6f756e74206d7573742062652067726561746572207468616e2030000000\n        /* \"#utility.yul\":11829:11830   */\n      0x00\n        /* \"#utility.yul\":11821:11827   */\n      dup3\n        /* \"#utility.yul\":11817:11831   */\n      add\n        /* \"#utility.yul\":11810:11865   */\n      mstore\n        /* \"#utility.yul\":11693:11872   */\n      pop\n      jump\t// out\n        /* \"#utility.yul\":11878:12244   */\n    tag_156:\n        /* \"#utility.yul\":12020:12023   */\n      0x00\n        /* \"#utility.yul\":12041:12108   */\n      tag_271\n        /* \"#utility.yul\":12105:12107   */\n      0x1d\n        /* \"#utility.yul\":12100:12103   */\n      dup4\n        /* \"#utility.yul\":12041:12108   */\n      tag_124\n      jump\t// in\n    tag_271:\n        /* \"#utility.yul\":12034:12108   */\n      swap2\n      pop\n        /* \"#utility.yul\":12117:12210   */\n      tag_272\n        /* \"#utility.yul\":12206:12209   */\n      dup3\n        /* \"#utility.yul\":12117:12210   */\n      tag_155\n      jump\t// in\n    tag_272:\n        /* \"#utility.yul\":12235:12237   */\n      0x20\n        /* \"#utility.yul\":12230:12233   */\n      dup3\n        /* \"#utility.yul\":12226:12238   */\n      add\n        /* \"#utility.yul\":12219:12238   */\n      swap1\n      pop\n        /* \"#utility.yul\":11878:12244   */\n      swap2\n      swap1\n      pop\n      jump\t// out\n        /* \"#utility.yul\":12250:12669   */\n    tag_120:\n        /* \"#utility.yul\":12416:12420   */\n      0x00\n        /* \"#utility.yul\":12454:12456   */\n      0x20\n        /* \"#utility.yul\":12443:12452   */\n      dup3\n        /* \"#utility.yul\":12439:12457   */\n      add\n        /* \"#utility.yul\":12431:12457   */\n      swap1\n      pop\n        /* \"#utility.yul\":12503:12512   */\n      dup2\n        /* \"#utility.yul\":12497:12501   */\n      dup2\n        /* \"#utility.yul\":12493:12513   */\n      sub\n        /* \"#utility.yul\":12489:12490   */\n      0x00\n        /* \"#utility.yul\":12478:12487   */\n      dup4\n        /* \"#utility.yul\":12474:12491   */\n      add\n        /* \"#utility.yul\":12467:12514   */\n      mstore\n        /* \"#utility.yul\":12531:12662   */\n      tag_274\n        /* \"#utility.yul\":12657:12661   */\n      dup2\n        /* \"#utility.yul\":12531:12662   */\n      tag_156\n      jump\t// in\n    tag_274:\n        /* \"#utility.yul\":12523:12662   */\n      swap1\n      pop\n        /* \"#utility.yul\":12250:12669   */\n      swap2\n      swap1\n      pop\n      jump\t// out\n\n    auxdata: 0xa26469706673582212209ca4062e040c720a22b28f9308a6223573852821b1d09e08c06431e4538b75ac64736f6c63430008120033\n}\n",
				"bytecode": {
					"linkReferences": {},
					"object": "60806040523480156200001157600080fd5b5060405162001dd238038062001dd2833981810160405281019062000037919062000306565b8360009081620000489190620005f7565b5082600190816200005a9190620005f7565b5081600260006101000a81548160ff021916908360ff160217905550600260009054906101000a900460ff1660ff16600a62000097919062000861565b81620000a49190620008b2565b600381905550600354600460003373ffffffffffffffffffffffffffffffffffffffff1673ffffffffffffffffffffffffffffffffffffffff1681526020019081526020016000208190555050505050620008fd565b6000604051905090565b600080fd5b600080fd5b600080fd5b600080fd5b6000601f19601f8301169050919050565b7f4e487b7100000000000000000000000000000000000000000000000000000000600052604160045260246000fd5b620001638262000118565b810181811067ffffffffffffffff8211171562000185576200018462000129565b5b80604052505050565b60006200019a620000fa565b9050620001a8828262000158565b919050565b600067ffffffffffffffff821115620001cb57620001ca62000129565b5b620001d68262000118565b9050602081019050919050565b60005b8381101562000203578082015181840152602081019050620001e6565b60008484015250505050565b6000620002266200022084620001ad565b6200018e565b90508281526020810184848401111562000245576200024462000113565b5b62000252848285620001e3565b509392505050565b600082601f8301126200027257620002716200010e565b5b8151620002848482602086016200020f565b91505092915050565b600060ff82169050919050565b620002a5816200028d565b8114620002b157600080fd5b50565b600081519050620002c5816200029a565b92915050565b6000819050919050565b620002e081620002cb565b8114620002ec57600080fd5b50565b6000815190506200030081620002d5565b92915050565b6000806000806080858703121562000323576200032262000104565b5b600085015167ffffffffffffffff81111562000344576200034362000109565b5b62000352878288016200025a565b945050602085015167ffffffffffffffff81111562000376576200037562000109565b5b62000384878288016200025a565b93505060406200039787828801620002b4565b9250506060620003aa87828801620002ef565b91505092959194509250565b600081519050919050565b7f4e487b7100000000000000000000000000000000000000000000000000000000600052602260045260246000fd5b600060028204905060018216806200040957607f821691505b6020821081036200041f576200041e620003c1565b5b50919050565b60008190508160005260206000209050919050565b60006020601f8301049050919050565b600082821b905092915050565b600060088302620004897fffffffffffffffffffffffffffffffffffffffffffffffffffffffffffffffff826200044a565b6200049586836200044a565b95508019841693508086168417925050509392505050565b6000819050919050565b6000620004d8620004d2620004cc84620002cb565b620004ad565b620002cb565b9050919050565b6000819050919050565b620004f483620004b7565b6200050c6200050382620004df565b84845462000457565b825550505050565b600090565b6200052362000514565b62000530818484620004e9565b505050565b5b8181101562000558576200054c60008262000519565b60018101905062000536565b5050565b601f821115620005a757620005718162000425565b6200057c846200043a565b810160208510156200058c578190505b620005a46200059b856200043a565b83018262000535565b50505b505050565b600082821c905092915050565b6000620005cc60001984600802620005ac565b1980831691505092915050565b6000620005e78383620005b9565b9150826002028217905092915050565b6200060282620003b6565b67ffffffffffffffff8111156200061e576200061d62000129565b5b6200062a8254620003f0565b620006378282856200055c565b600060209050601f8311600181146200066f57600084156200065a578287015190505b620006668582620005d9565b865550620006d6565b601f1984166200067f8662000425565b60005b82811015620006a95784890151825560018201915060208501945060208101905062000682565b86831015620006c95784890151620006c5601f891682620005b9565b8355505b6001600288020188555050505b505050505050565b7f4e487b7100000000000000000000000000000000000000000000000000000000600052601160045260246000fd5b60008160011c9050919050565b6000808291508390505b60018511156200076c57808604811115620007445762000743620006de565b5b6001851615620007545780820291505b808102905062000764856200070d565b945062000724565b94509492505050565b6000826200078757600190506200085a565b816200079757600090506200085a565b8160018114620007b05760028114620007bb57620007f1565b60019150506200085a565b60ff841115620007d057620007cf620006de565b5b8360020a915084821115620007ea57620007e9620006de565b5b506200085a565b5060208310610133831016604e8410600b84101617156200082b5782820a905083811115620008255762000824620006de565b5b6200085a565b6200083a84848460016200071a565b92509050818404811115620008545762000853620006de565b5b81810290505b9392505050565b60006200086e82620002cb565b91506200087b83620002cb565b9250620008aa7fffffffffffffffffffffffffffffffffffffffffffffffffffffffffffffffff848462000775565b905092915050565b6000620008bf82620002cb565b9150620008cc83620002cb565b9250828202620008dc81620002cb565b91508282048414831517620008f657620008f5620006de565b5b5092915050565b6114c5806200090d6000396000f3fe608060405234801561001057600080fd5b50600436106100b45760003560e01c80637aa2bdd4116100715780637aa2bdd4146101a357806395d89b41146101d3578063a9059cbb146101f1578063afcdd81314610221578063db52b4ea14610251578063dd62ed3e14610281576100b4565b806306fdde03146100b9578063095ea7b3146100d757806318160ddd1461010757806323b872dd14610125578063313ce5671461015557806370a0823114610173575b600080fd5b6100c16102b1565b6040516100ce9190610e98565b60405180910390f35b6100f160048036038101906100ec9190610f53565b61033f565b6040516100fe9190610fae565b60405180910390f35b61010f610431565b60405161011c9190610fd8565b60405180910390f35b61013f600480360381019061013a9190610ff3565b610437565b60405161014c9190610fae565b60405180910390f35b61015d610797565b60405161016a9190611062565b60405180910390f35b61018d6004803603810190610188919061107d565b6107aa565b60405161019a9190610fd8565b60405180910390f35b6101bd60048036038101906101b8919061107d565b6107c2565b6040516101ca9190610fd8565b60405180910390f35b6101db6107da565b6040516101e89190610e98565b60405180910390f35b61020b60048036038101906102069190610f53565b610868565b6040516102189190610fae565b60405180910390f35b61023b60048036038101906102369190610f53565b610a75565b6040516102489190610fae565b60405180910390f35b61026b60048036038101906102669190610f53565b610c82565b6040516102789190610fae565b60405180910390f35b61029b600480360381019061029691906110aa565b610de3565b6040516102a89190610fd8565b60405180910390f35b600080546102be90611119565b80601f01602080910402602001604051908101604052809291908181526020018280546102ea90611119565b80156103375780601f1061030c57610100808354040283529160200191610337565b820191906000526020600020905b81548152906001019060200180831161031a57829003601f168201915b505050505081565b600081600560003373ffffffffffffffffffffffffffffffffffffffff1673ffffffffffffffffffffffffffffffffffffffff16815260200190815260200160002060008573ffffffffffffffffffffffffffffffffffffffff1673ffffffffffffffffffffffffffffffffffffffff168152602001908152602001600020819055508273ffffffffffffffffffffffffffffffffffffffff163373ffffffffffffffffffffffffffffffffffffffff167f8c5be1e5ebec7d5bd14f71427d1e84f3dd0314c0f7b2291e5b200ac8c7c3b9258460405161041f9190610fd8565b60405180910390a36001905092915050565b60035481565b60008073ffffffffffffffffffffffffffffffffffffffff168373ffffffffffffffffffffffffffffffffffffffff16036104a7576040517f08c379a000000000000000000000000000000000000000000000000000000000815260040161049e90611196565b60405180910390fd5b81600460008673ffffffffffffffffffffffffffffffffffffffff1673ffffffffffffffffffffffffffffffffffffffff168152602001908152602001600020541015610529576040517f08c379a000000000000000000000000000000000000000000000000000000000815260040161052090611202565b60405180910390fd5b81600560008673ffffffffffffffffffffffffffffffffffffffff1673ffffffffffffffffffffffffffffffffffffffff16815260200190815260200160002060003373ffffffffffffffffffffffffffffffffffffffff1673ffffffffffffffffffffffffffffffffffffffff1681526020019081526020016000205410156105e8576040517f08c379a00000000000000000000000000000000000000000000000000000000081526004016105df9061126e565b60405180910390fd5b81600460008673ffffffffffffffffffffffffffffffffffffffff1673ffffffffffffffffffffffffffffffffffffffff168152602001908152602001600020600082825461063791906112bd565b9250508190555081600460008573ffffffffffffffffffffffffffffffffffffffff1673ffffffffffffffffffffffffffffffffffffffff168152602001908152602001600020600082825461068d91906112f1565b9250508190555081600560008673ffffffffffffffffffffffffffffffffffffffff1673ffffffffffffffffffffffffffffffffffffffff16815260200190815260200160002060003373ffffffffffffffffffffffffffffffffffffffff1673ffffffffffffffffffffffffffffffffffffffff168152602001908152602001600020600082825461072091906112bd565b925050819055508273ffffffffffffffffffffffffffffffffffffffff168473ffffffffffffffffffffffffffffffffffffffff167fddf252ad1be2c89b69c2b068fc378daa952ba7f163c4a11628f55a4df523b3ef846040516107849190610fd8565b60405180910390a3600190509392505050565b600260009054906101000a900460ff1681565b60046020528060005260406000206000915090505481565b60066020528060005260406000206000915090505481565b600180546107e790611119565b80601f016020809104026020016040519081016040528092919081815260200182805461081390611119565b80156108605780601f1061083557610100808354040283529160200191610860565b820191906000526020600020905b81548152906001019060200180831161084357829003601f168201915b505050505081565b60008073ffffffffffffffffffffffffffffffffffffffff168373ffffffffffffffffffffffffffffffffffffffff16036108d8576040517f08c379a00000000000000000000000000000000000000000000000000000000081526004016108cf90611196565b60405180910390fd5b81600460003373ffffffffffffffffffffffffffffffffffffffff1673ffffffffffffffffffffffffffffffffffffffff16815260200190815260200160002054101561095a576040517f08c379a000000000000000000000000000000000000000000000000000000000815260040161095190611202565b60405180910390fd5b81600460003373ffffffffffffffffffffffffffffffffffffffff1673ffffffffffffffffffffffffffffffffffffffff16815260200190815260200160002060008282546109a991906112bd565b9250508190555081600460008573ffffffffffffffffffffffffffffffffffffffff1673ffffffffffffffffffffffffffffffffffffffff16815260200190815260200160002060008282546109ff91906112f1565b925050819055508273ffffffffffffffffffffffffffffffffffffffff163373ffffffffffffffffffffffffffffffffffffffff167fddf252ad1be2c89b69c2b068fc378daa952ba7f163c4a11628f55a4df523b3ef84604051610a639190610fd8565b60405180910390a36001905092915050565b60008073ffffffffffffffffffffffffffffffffffffffff168373ffffffffffffffffffffffffffffffffffffffff1603610ae5576040517f08c379a0000000000000000000000000000000000000000000000000000000008152600401610adc90611196565b60405180910390fd5b81600660003373ffffffffffffffffffffffffffffffffffffffff1673ffffffffffffffffffffffffffffffffffffffff168152602001908152602001600020541015610b67576040517f08c379a0000000000000000000000000000000000000000000000000000000008152600401610b5e90611371565b60405180910390fd5b81600660003373ffffffffffffffffffffffffffffffffffffffff1673ffffffffffffffffffffffffffffffffffffffff1681526020019081526020016000206000828254610bb691906112bd565b9250508190555081600660008573ffffffffffffffffffffffffffffffffffffffff1673ffffffffffffffffffffffffffffffffffffffff1681526020019081526020016000206000828254610c0c91906112f1565b925050819055508273ffffffffffffffffffffffffffffffffffffffff163373ffffffffffffffffffffffffffffffffffffffff167f7e95113809daf6b378cb1caf9641a894a32fc97bfa22edaffd31d92564400ec084604051610c709190610fd8565b60405180910390a36001905092915050565b60008273ffffffffffffffffffffffffffffffffffffffff163373ffffffffffffffffffffffffffffffffffffffff1614610cf2576040517f08c379a0000000000000000000000000000000000000000000000000000000008152600401610ce990611403565b60405180910390fd5b60008211610d35576040517f08c379a0000000000000000000000000000000000000000000000000000000008152600401610d2c9061146f565b60405180910390fd5b81600660008573ffffffffffffffffffffffffffffffffffffffff1673ffffffffffffffffffffffffffffffffffffffff1681526020019081526020016000206000828254610d8491906112f1565b925050819055508273ffffffffffffffffffffffffffffffffffffffff167fb187454da3da066362cc9f4981c0ca94f6fa47f422ff91d4fce8a1ca73064b9283604051610dd19190610fd8565b60405180910390a26001905092915050565b6005602052816000526040600020602052806000526040600020600091509150505481565b600081519050919050565b600082825260208201905092915050565b60005b83811015610e42578082015181840152602081019050610e27565b60008484015250505050565b6000601f19601f8301169050919050565b6000610e6a82610e08565b610e748185610e13565b9350610e84818560208601610e24565b610e8d81610e4e565b840191505092915050565b60006020820190508181036000830152610eb28184610e5f565b905092915050565b600080fd5b600073ffffffffffffffffffffffffffffffffffffffff82169050919050565b6000610eea82610ebf565b9050919050565b610efa81610edf565b8114610f0557600080fd5b50565b600081359050610f1781610ef1565b92915050565b6000819050919050565b610f3081610f1d565b8114610f3b57600080fd5b50565b600081359050610f4d81610f27565b92915050565b60008060408385031215610f6a57610f69610eba565b5b6000610f7885828601610f08565b9250506020610f8985828601610f3e565b9150509250929050565b60008115159050919050565b610fa881610f93565b82525050565b6000602082019050610fc36000830184610f9f565b92915050565b610fd281610f1d565b82525050565b6000602082019050610fed6000830184610fc9565b92915050565b60008060006060848603121561100c5761100b610eba565b5b600061101a86828701610f08565b935050602061102b86828701610f08565b925050604061103c86828701610f3e565b9150509250925092565b600060ff82169050919050565b61105c81611046565b82525050565b60006020820190506110776000830184611053565b92915050565b60006020828403121561109357611092610eba565b5b60006110a184828501610f08565b91505092915050565b600080604083850312156110c1576110c0610eba565b5b60006110cf85828601610f08565b92505060206110e085828601610f08565b9150509250929050565b7f4e487b7100000000000000000000000000000000000000000000000000000000600052602260045260246000fd5b6000600282049050600182168061113157607f821691505b602082108103611144576111436110ea565b5b50919050565b7f496e76616c696420616464726573730000000000000000000000000000000000600082015250565b6000611180600f83610e13565b915061118b8261114a565b602082019050919050565b600060208201905081810360008301526111af81611173565b9050919050565b7f496e73756666696369656e742062616c616e6365000000000000000000000000600082015250565b60006111ec601483610e13565b91506111f7826111b6565b602082019050919050565b6000602082019050818103600083015261121b816111df565b9050919050565b7f416c6c6f77616e63652065786365656465640000000000000000000000000000600082015250565b6000611258601283610e13565b915061126382611222565b602082019050919050565b600060208201905081810360008301526112878161124b565b9050919050565b7f4e487b7100000000000000000000000000000000000000000000000000000000600052601160045260246000fd5b60006112c882610f1d565b91506112d383610f1d565b92508282039050818111156112eb576112ea61128e565b5b92915050565b60006112fc82610f1d565b915061130783610f1d565b925082820190508082111561131f5761131e61128e565b5b92915050565b7f496e73756666696369656e7420636172626f6e20637265646974730000000000600082015250565b600061135b601b83610e13565b915061136682611325565b602082019050919050565b6000602082019050818103600083015261138a8161134e565b9050919050565b7f4f6e6c7920746865206163636f756e7420686f6c6465722063616e206973737560008201527f6520636172626f6e206372656469747300000000000000000000000000000000602082015250565b60006113ed603083610e13565b91506113f882611391565b604082019050919050565b6000602082019050818103600083015261141c816113e0565b9050919050565b7f416d6f756e74206d7573742062652067726561746572207468616e2030000000600082015250565b6000611459601d83610e13565b915061146482611423565b602082019050919050565b600060208201905081810360008301526114888161144c565b905091905056fea26469706673582212209ca4062e040c720a22b28f9308a6223573852821b1d09e08c06431e4538b75ac64736f6c63430008120033",
					"opcodes": "PUSH1 0x80 PUSH1 0x40 MSTORE CALLVALUE DUP1 ISZERO PUSH3 0x11 JUMPI PUSH1 0x0 DUP1 REVERT JUMPDEST POP PUSH1 0x40 MLOAD PUSH3 0x1DD2 CODESIZE SUB DUP1 PUSH3 0x1DD2 DUP4 CODECOPY DUP2 DUP2 ADD PUSH1 0x40 MSTORE DUP2 ADD SWAP1 PUSH3 0x37 SWAP2 SWAP1 PUSH3 0x306 JUMP JUMPDEST DUP4 PUSH1 0x0 SWAP1 DUP2 PUSH3 0x48 SWAP2 SWAP1 PUSH3 0x5F7 JUMP JUMPDEST POP DUP3 PUSH1 0x1 SWAP1 DUP2 PUSH3 0x5A SWAP2 SWAP1 PUSH3 0x5F7 JUMP JUMPDEST POP DUP2 PUSH1 0x2 PUSH1 0x0 PUSH2 0x100 EXP DUP2 SLOAD DUP2 PUSH1 0xFF MUL NOT AND SWAP1 DUP4 PUSH1 0xFF AND MUL OR SWAP1 SSTORE POP PUSH1 0x2 PUSH1 0x0 SWAP1 SLOAD SWAP1 PUSH2 0x100 EXP SWAP1 DIV PUSH1 0xFF AND PUSH1 0xFF AND PUSH1 0xA PUSH3 0x97 SWAP2 SWAP1 PUSH3 0x861 JUMP JUMPDEST DUP2 PUSH3 0xA4 SWAP2 SWAP1 PUSH3 0x8B2 JUMP JUMPDEST PUSH1 0x3 DUP2 SWAP1 SSTORE POP PUSH1 0x3 SLOAD PUSH1 0x4 PUSH1 0x0 CALLER PUSH20 0xFFFFFFFFFFFFFFFFFFFFFFFFFFFFFFFFFFFFFFFF AND PUSH20 0xFFFFFFFFFFFFFFFFFFFFFFFFFFFFFFFFFFFFFFFF AND DUP2 MSTORE PUSH1 0x20 ADD SWAP1 DUP2 MSTORE PUSH1 0x20 ADD PUSH1 0x0 KECCAK256 DUP2 SWAP1 SSTORE POP POP POP POP POP PUSH3 0x8FD JUMP JUMPDEST PUSH1 0x0 PUSH1 0x40 MLOAD SWAP1 POP SWAP1 JUMP JUMPDEST PUSH1 0x0 DUP1 REVERT JUMPDEST PUSH1 0x0 DUP1 REVERT JUMPDEST PUSH1 0x0 DUP1 REVERT JUMPDEST PUSH1 0x0 DUP1 REVERT JUMPDEST PUSH1 0x0 PUSH1 0x1F NOT PUSH1 0x1F DUP4 ADD AND SWAP1 POP SWAP2 SWAP1 POP JUMP JUMPDEST PUSH32 0x4E487B7100000000000000000000000000000000000000000000000000000000 PUSH1 0x0 MSTORE PUSH1 0x41 PUSH1 0x4 MSTORE PUSH1 0x24 PUSH1 0x0 REVERT JUMPDEST PUSH3 0x163 DUP3 PUSH3 0x118 JUMP JUMPDEST DUP2 ADD DUP2 DUP2 LT PUSH8 0xFFFFFFFFFFFFFFFF DUP3 GT OR ISZERO PUSH3 0x185 JUMPI PUSH3 0x184 PUSH3 0x129 JUMP JUMPDEST JUMPDEST DUP1 PUSH1 0x40 MSTORE POP POP POP JUMP JUMPDEST PUSH1 0x0 PUSH3 0x19A PUSH3 0xFA JUMP JUMPDEST SWAP1 POP PUSH3 0x1A8 DUP3 DUP3 PUSH3 0x158 JUMP JUMPDEST SWAP2 SWAP1 POP JUMP JUMPDEST PUSH1 0x0 PUSH8 0xFFFFFFFFFFFFFFFF DUP3 GT ISZERO PUSH3 0x1CB JUMPI PUSH3 0x1CA PUSH3 0x129 JUMP JUMPDEST JUMPDEST PUSH3 0x1D6 DUP3 PUSH3 0x118 JUMP JUMPDEST SWAP1 POP PUSH1 0x20 DUP2 ADD SWAP1 POP SWAP2 SWAP1 POP JUMP JUMPDEST PUSH1 0x0 JUMPDEST DUP4 DUP2 LT ISZERO PUSH3 0x203 JUMPI DUP1 DUP3 ADD MLOAD DUP2 DUP5 ADD MSTORE PUSH1 0x20 DUP2 ADD SWAP1 POP PUSH3 0x1E6 JUMP JUMPDEST PUSH1 0x0 DUP5 DUP5 ADD MSTORE POP POP POP POP JUMP JUMPDEST PUSH1 0x0 PUSH3 0x226 PUSH3 0x220 DUP5 PUSH3 0x1AD JUMP JUMPDEST PUSH3 0x18E JUMP JUMPDEST SWAP1 POP DUP3 DUP2 MSTORE PUSH1 0x20 DUP2 ADD DUP5 DUP5 DUP5 ADD GT ISZERO PUSH3 0x245 JUMPI PUSH3 0x244 PUSH3 0x113 JUMP JUMPDEST JUMPDEST PUSH3 0x252 DUP5 DUP3 DUP6 PUSH3 0x1E3 JUMP JUMPDEST POP SWAP4 SWAP3 POP POP POP JUMP JUMPDEST PUSH1 0x0 DUP3 PUSH1 0x1F DUP4 ADD SLT PUSH3 0x272 JUMPI PUSH3 0x271 PUSH3 0x10E JUMP JUMPDEST JUMPDEST DUP2 MLOAD PUSH3 0x284 DUP5 DUP3 PUSH1 0x20 DUP7 ADD PUSH3 0x20F JUMP JUMPDEST SWAP2 POP POP SWAP3 SWAP2 POP POP JUMP JUMPDEST PUSH1 0x0 PUSH1 0xFF DUP3 AND SWAP1 POP SWAP2 SWAP1 POP JUMP JUMPDEST PUSH3 0x2A5 DUP2 PUSH3 0x28D JUMP JUMPDEST DUP2 EQ PUSH3 0x2B1 JUMPI PUSH1 0x0 DUP1 REVERT JUMPDEST POP JUMP JUMPDEST PUSH1 0x0 DUP2 MLOAD SWAP1 POP PUSH3 0x2C5 DUP2 PUSH3 0x29A JUMP JUMPDEST SWAP3 SWAP2 POP POP JUMP JUMPDEST PUSH1 0x0 DUP2 SWAP1 POP SWAP2 SWAP1 POP JUMP JUMPDEST PUSH3 0x2E0 DUP2 PUSH3 0x2CB JUMP JUMPDEST DUP2 EQ PUSH3 0x2EC JUMPI PUSH1 0x0 DUP1 REVERT JUMPDEST POP JUMP JUMPDEST PUSH1 0x0 DUP2 MLOAD SWAP1 POP PUSH3 0x300 DUP2 PUSH3 0x2D5 JUMP JUMPDEST SWAP3 SWAP2 POP POP JUMP JUMPDEST PUSH1 0x0 DUP1 PUSH1 0x0 DUP1 PUSH1 0x80 DUP6 DUP8 SUB SLT ISZERO PUSH3 0x323 JUMPI PUSH3 0x322 PUSH3 0x104 JUMP JUMPDEST JUMPDEST PUSH1 0x0 DUP6 ADD MLOAD PUSH8 0xFFFFFFFFFFFFFFFF DUP2 GT ISZERO PUSH3 0x344 JUMPI PUSH3 0x343 PUSH3 0x109 JUMP JUMPDEST JUMPDEST PUSH3 0x352 DUP8 DUP3 DUP9 ADD PUSH3 0x25A JUMP JUMPDEST SWAP5 POP POP PUSH1 0x20 DUP6 ADD MLOAD PUSH8 0xFFFFFFFFFFFFFFFF DUP2 GT ISZERO PUSH3 0x376 JUMPI PUSH3 0x375 PUSH3 0x109 JUMP JUMPDEST JUMPDEST PUSH3 0x384 DUP8 DUP3 DUP9 ADD PUSH3 0x25A JUMP JUMPDEST SWAP4 POP POP PUSH1 0x40 PUSH3 0x397 DUP8 DUP3 DUP9 ADD PUSH3 0x2B4 JUMP JUMPDEST SWAP3 POP POP PUSH1 0x60 PUSH3 0x3AA DUP8 DUP3 DUP9 ADD PUSH3 0x2EF JUMP JUMPDEST SWAP2 POP POP SWAP3 SWAP6 SWAP2 SWAP5 POP SWAP3 POP JUMP JUMPDEST PUSH1 0x0 DUP2 MLOAD SWAP1 POP SWAP2 SWAP1 POP JUMP JUMPDEST PUSH32 0x4E487B7100000000000000000000000000000000000000000000000000000000 PUSH1 0x0 MSTORE PUSH1 0x22 PUSH1 0x4 MSTORE PUSH1 0x24 PUSH1 0x0 REVERT JUMPDEST PUSH1 0x0 PUSH1 0x2 DUP3 DIV SWAP1 POP PUSH1 0x1 DUP3 AND DUP1 PUSH3 0x409 JUMPI PUSH1 0x7F DUP3 AND SWAP2 POP JUMPDEST PUSH1 0x20 DUP3 LT DUP2 SUB PUSH3 0x41F JUMPI PUSH3 0x41E PUSH3 0x3C1 JUMP JUMPDEST JUMPDEST POP SWAP2 SWAP1 POP JUMP JUMPDEST PUSH1 0x0 DUP2 SWAP1 POP DUP2 PUSH1 0x0 MSTORE PUSH1 0x20 PUSH1 0x0 KECCAK256 SWAP1 POP SWAP2 SWAP1 POP JUMP JUMPDEST PUSH1 0x0 PUSH1 0x20 PUSH1 0x1F DUP4 ADD DIV SWAP1 POP SWAP2 SWAP1 POP JUMP JUMPDEST PUSH1 0x0 DUP3 DUP3 SHL SWAP1 POP SWAP3 SWAP2 POP POP JUMP JUMPDEST PUSH1 0x0 PUSH1 0x8 DUP4 MUL PUSH3 0x489 PUSH32 0xFFFFFFFFFFFFFFFFFFFFFFFFFFFFFFFFFFFFFFFFFFFFFFFFFFFFFFFFFFFFFFFF DUP3 PUSH3 0x44A JUMP JUMPDEST PUSH3 0x495 DUP7 DUP4 PUSH3 0x44A JUMP JUMPDEST SWAP6 POP DUP1 NOT DUP5 AND SWAP4 POP DUP1 DUP7 AND DUP5 OR SWAP3 POP POP POP SWAP4 SWAP3 POP POP POP JUMP JUMPDEST PUSH1 0x0 DUP2 SWAP1 POP SWAP2 SWAP1 POP JUMP JUMPDEST PUSH1 0x0 PUSH3 0x4D8 PUSH3 0x4D2 PUSH3 0x4CC DUP5 PUSH3 0x2CB JUMP JUMPDEST PUSH3 0x4AD JUMP JUMPDEST PUSH3 0x2CB JUMP JUMPDEST SWAP1 POP SWAP2 SWAP1 POP JUMP JUMPDEST PUSH1 0x0 DUP2 SWAP1 POP SWAP2 SWAP1 POP JUMP JUMPDEST PUSH3 0x4F4 DUP4 PUSH3 0x4B7 JUMP JUMPDEST PUSH3 0x50C PUSH3 0x503 DUP3 PUSH3 0x4DF JUMP JUMPDEST DUP5 DUP5 SLOAD PUSH3 0x457 JUMP JUMPDEST DUP3 SSTORE POP POP POP POP JUMP JUMPDEST PUSH1 0x0 SWAP1 JUMP JUMPDEST PUSH3 0x523 PUSH3 0x514 JUMP JUMPDEST PUSH3 0x530 DUP2 DUP5 DUP5 PUSH3 0x4E9 JUMP JUMPDEST POP POP POP JUMP JUMPDEST JUMPDEST DUP2 DUP2 LT ISZERO PUSH3 0x558 JUMPI PUSH3 0x54C PUSH1 0x0 DUP3 PUSH3 0x519 JUMP JUMPDEST PUSH1 0x1 DUP2 ADD SWAP1 POP PUSH3 0x536 JUMP JUMPDEST POP POP JUMP JUMPDEST PUSH1 0x1F DUP3 GT ISZERO PUSH3 0x5A7 JUMPI PUSH3 0x571 DUP2 PUSH3 0x425 JUMP JUMPDEST PUSH3 0x57C DUP5 PUSH3 0x43A JUMP JUMPDEST DUP2 ADD PUSH1 0x20 DUP6 LT ISZERO PUSH3 0x58C JUMPI DUP2 SWAP1 POP JUMPDEST PUSH3 0x5A4 PUSH3 0x59B DUP6 PUSH3 0x43A JUMP JUMPDEST DUP4 ADD DUP3 PUSH3 0x535 JUMP JUMPDEST POP POP JUMPDEST POP POP POP JUMP JUMPDEST PUSH1 0x0 DUP3 DUP3 SHR SWAP1 POP SWAP3 SWAP2 POP POP JUMP JUMPDEST PUSH1 0x0 PUSH3 0x5CC PUSH1 0x0 NOT DUP5 PUSH1 0x8 MUL PUSH3 0x5AC JUMP JUMPDEST NOT DUP1 DUP4 AND SWAP2 POP POP SWAP3 SWAP2 POP POP JUMP JUMPDEST PUSH1 0x0 PUSH3 0x5E7 DUP4 DUP4 PUSH3 0x5B9 JUMP JUMPDEST SWAP2 POP DUP3 PUSH1 0x2 MUL DUP3 OR SWAP1 POP SWAP3 SWAP2 POP POP JUMP JUMPDEST PUSH3 0x602 DUP3 PUSH3 0x3B6 JUMP JUMPDEST PUSH8 0xFFFFFFFFFFFFFFFF DUP2 GT ISZERO PUSH3 0x61E JUMPI PUSH3 0x61D PUSH3 0x129 JUMP JUMPDEST JUMPDEST PUSH3 0x62A DUP3 SLOAD PUSH3 0x3F0 JUMP JUMPDEST PUSH3 0x637 DUP3 DUP3 DUP6 PUSH3 0x55C JUMP JUMPDEST PUSH1 0x0 PUSH1 0x20 SWAP1 POP PUSH1 0x1F DUP4 GT PUSH1 0x1 DUP2 EQ PUSH3 0x66F JUMPI PUSH1 0x0 DUP5 ISZERO PUSH3 0x65A JUMPI DUP3 DUP8 ADD MLOAD SWAP1 POP JUMPDEST PUSH3 0x666 DUP6 DUP3 PUSH3 0x5D9 JUMP JUMPDEST DUP7 SSTORE POP PUSH3 0x6D6 JUMP JUMPDEST PUSH1 0x1F NOT DUP5 AND PUSH3 0x67F DUP7 PUSH3 0x425 JUMP JUMPDEST PUSH1 0x0 JUMPDEST DUP3 DUP2 LT ISZERO PUSH3 0x6A9 JUMPI DUP5 DUP10 ADD MLOAD DUP3 SSTORE PUSH1 0x1 DUP3 ADD SWAP2 POP PUSH1 0x20 DUP6 ADD SWAP5 POP PUSH1 0x20 DUP2 ADD SWAP1 POP PUSH3 0x682 JUMP JUMPDEST DUP7 DUP4 LT ISZERO PUSH3 0x6C9 JUMPI DUP5 DUP10 ADD MLOAD PUSH3 0x6C5 PUSH1 0x1F DUP10 AND DUP3 PUSH3 0x5B9 JUMP JUMPDEST DUP4 SSTORE POP JUMPDEST PUSH1 0x1 PUSH1 0x2 DUP9 MUL ADD DUP9 SSTORE POP POP POP JUMPDEST POP POP POP POP POP POP JUMP JUMPDEST PUSH32 0x4E487B7100000000000000000000000000000000000000000000000000000000 PUSH1 0x0 MSTORE PUSH1 0x11 PUSH1 0x4 MSTORE PUSH1 0x24 PUSH1 0x0 REVERT JUMPDEST PUSH1 0x0 DUP2 PUSH1 0x1 SHR SWAP1 POP SWAP2 SWAP1 POP JUMP JUMPDEST PUSH1 0x0 DUP1 DUP3 SWAP2 POP DUP4 SWAP1 POP JUMPDEST PUSH1 0x1 DUP6 GT ISZERO PUSH3 0x76C JUMPI DUP1 DUP7 DIV DUP2 GT ISZERO PUSH3 0x744 JUMPI PUSH3 0x743 PUSH3 0x6DE JUMP JUMPDEST JUMPDEST PUSH1 0x1 DUP6 AND ISZERO PUSH3 0x754 JUMPI DUP1 DUP3 MUL SWAP2 POP JUMPDEST DUP1 DUP2 MUL SWAP1 POP PUSH3 0x764 DUP6 PUSH3 0x70D JUMP JUMPDEST SWAP5 POP PUSH3 0x724 JUMP JUMPDEST SWAP5 POP SWAP5 SWAP3 POP POP POP JUMP JUMPDEST PUSH1 0x0 DUP3 PUSH3 0x787 JUMPI PUSH1 0x1 SWAP1 POP PUSH3 0x85A JUMP JUMPDEST DUP2 PUSH3 0x797 JUMPI PUSH1 0x0 SWAP1 POP PUSH3 0x85A JUMP JUMPDEST DUP2 PUSH1 0x1 DUP2 EQ PUSH3 0x7B0 JUMPI PUSH1 0x2 DUP2 EQ PUSH3 0x7BB JUMPI PUSH3 0x7F1 JUMP JUMPDEST PUSH1 0x1 SWAP2 POP POP PUSH3 0x85A JUMP JUMPDEST PUSH1 0xFF DUP5 GT ISZERO PUSH3 0x7D0 JUMPI PUSH3 0x7CF PUSH3 0x6DE JUMP JUMPDEST JUMPDEST DUP4 PUSH1 0x2 EXP SWAP2 POP DUP5 DUP3 GT ISZERO PUSH3 0x7EA JUMPI PUSH3 0x7E9 PUSH3 0x6DE JUMP JUMPDEST JUMPDEST POP PUSH3 0x85A JUMP JUMPDEST POP PUSH1 0x20 DUP4 LT PUSH2 0x133 DUP4 LT AND PUSH1 0x4E DUP5 LT PUSH1 0xB DUP5 LT AND OR ISZERO PUSH3 0x82B JUMPI DUP3 DUP3 EXP SWAP1 POP DUP4 DUP2 GT ISZERO PUSH3 0x825 JUMPI PUSH3 0x824 PUSH3 0x6DE JUMP JUMPDEST JUMPDEST PUSH3 0x85A JUMP JUMPDEST PUSH3 0x83A DUP5 DUP5 DUP5 PUSH1 0x1 PUSH3 0x71A JUMP JUMPDEST SWAP3 POP SWAP1 POP DUP2 DUP5 DIV DUP2 GT ISZERO PUSH3 0x854 JUMPI PUSH3 0x853 PUSH3 0x6DE JUMP JUMPDEST JUMPDEST DUP2 DUP2 MUL SWAP1 POP JUMPDEST SWAP4 SWAP3 POP POP POP JUMP JUMPDEST PUSH1 0x0 PUSH3 0x86E DUP3 PUSH3 0x2CB JUMP JUMPDEST SWAP2 POP PUSH3 0x87B DUP4 PUSH3 0x2CB JUMP JUMPDEST SWAP3 POP PUSH3 0x8AA PUSH32 0xFFFFFFFFFFFFFFFFFFFFFFFFFFFFFFFFFFFFFFFFFFFFFFFFFFFFFFFFFFFFFFFF DUP5 DUP5 PUSH3 0x775 JUMP JUMPDEST SWAP1 POP SWAP3 SWAP2 POP POP JUMP JUMPDEST PUSH1 0x0 PUSH3 0x8BF DUP3 PUSH3 0x2CB JUMP JUMPDEST SWAP2 POP PUSH3 0x8CC DUP4 PUSH3 0x2CB JUMP JUMPDEST SWAP3 POP DUP3 DUP3 MUL PUSH3 0x8DC DUP2 PUSH3 0x2CB JUMP JUMPDEST SWAP2 POP DUP3 DUP3 DIV DUP5 EQ DUP4 ISZERO OR PUSH3 0x8F6 JUMPI PUSH3 0x8F5 PUSH3 0x6DE JUMP JUMPDEST JUMPDEST POP SWAP3 SWAP2 POP POP JUMP JUMPDEST PUSH2 0x14C5 DUP1 PUSH3 0x90D PUSH1 0x0 CODECOPY PUSH1 0x0 RETURN INVALID PUSH1 0x80 PUSH1 0x40 MSTORE CALLVALUE DUP1 ISZERO PUSH2 0x10 JUMPI PUSH1 0x0 DUP1 REVERT JUMPDEST POP PUSH1 0x4 CALLDATASIZE LT PUSH2 0xB4 JUMPI PUSH1 0x0 CALLDATALOAD PUSH1 0xE0 SHR DUP1 PUSH4 0x7AA2BDD4 GT PUSH2 0x71 JUMPI DUP1 PUSH4 0x7AA2BDD4 EQ PUSH2 0x1A3 JUMPI DUP1 PUSH4 0x95D89B41 EQ PUSH2 0x1D3 JUMPI DUP1 PUSH4 0xA9059CBB EQ PUSH2 0x1F1 JUMPI DUP1 PUSH4 0xAFCDD813 EQ PUSH2 0x221 JUMPI DUP1 PUSH4 0xDB52B4EA EQ PUSH2 0x251 JUMPI DUP1 PUSH4 0xDD62ED3E EQ PUSH2 0x281 JUMPI PUSH2 0xB4 JUMP JUMPDEST DUP1 PUSH4 0x6FDDE03 EQ PUSH2 0xB9 JUMPI DUP1 PUSH4 0x95EA7B3 EQ PUSH2 0xD7 JUMPI DUP1 PUSH4 0x18160DDD EQ PUSH2 0x107 JUMPI DUP1 PUSH4 0x23B872DD EQ PUSH2 0x125 JUMPI DUP1 PUSH4 0x313CE567 EQ PUSH2 0x155 JUMPI DUP1 PUSH4 0x70A08231 EQ PUSH2 0x173 JUMPI JUMPDEST PUSH1 0x0 DUP1 REVERT JUMPDEST PUSH2 0xC1 PUSH2 0x2B1 JUMP JUMPDEST PUSH1 0x40 MLOAD PUSH2 0xCE SWAP2 SWAP1 PUSH2 0xE98 JUMP JUMPDEST PUSH1 0x40 MLOAD DUP1 SWAP2 SUB SWAP1 RETURN JUMPDEST PUSH2 0xF1 PUSH1 0x4 DUP1 CALLDATASIZE SUB DUP2 ADD SWAP1 PUSH2 0xEC SWAP2 SWAP1 PUSH2 0xF53 JUMP JUMPDEST PUSH2 0x33F JUMP JUMPDEST PUSH1 0x40 MLOAD PUSH2 0xFE SWAP2 SWAP1 PUSH2 0xFAE JUMP JUMPDEST PUSH1 0x40 MLOAD DUP1 SWAP2 SUB SWAP1 RETURN JUMPDEST PUSH2 0x10F PUSH2 0x431 JUMP JUMPDEST PUSH1 0x40 MLOAD PUSH2 0x11C SWAP2 SWAP1 PUSH2 0xFD8 JUMP JUMPDEST PUSH1 0x40 MLOAD DUP1 SWAP2 SUB SWAP1 RETURN JUMPDEST PUSH2 0x13F PUSH1 0x4 DUP1 CALLDATASIZE SUB DUP2 ADD SWAP1 PUSH2 0x13A SWAP2 SWAP1 PUSH2 0xFF3 JUMP JUMPDEST PUSH2 0x437 JUMP JUMPDEST PUSH1 0x40 MLOAD PUSH2 0x14C SWAP2 SWAP1 PUSH2 0xFAE JUMP JUMPDEST PUSH1 0x40 MLOAD DUP1 SWAP2 SUB SWAP1 RETURN JUMPDEST PUSH2 0x15D PUSH2 0x797 JUMP JUMPDEST PUSH1 0x40 MLOAD PUSH2 0x16A SWAP2 SWAP1 PUSH2 0x1062 JUMP JUMPDEST PUSH1 0x40 MLOAD DUP1 SWAP2 SUB SWAP1 RETURN JUMPDEST PUSH2 0x18D PUSH1 0x4 DUP1 CALLDATASIZE SUB DUP2 ADD SWAP1 PUSH2 0x188 SWAP2 SWAP1 PUSH2 0x107D JUMP JUMPDEST PUSH2 0x7AA JUMP JUMPDEST PUSH1 0x40 MLOAD PUSH2 0x19A SWAP2 SWAP1 PUSH2 0xFD8 JUMP JUMPDEST PUSH1 0x40 MLOAD DUP1 SWAP2 SUB SWAP1 RETURN JUMPDEST PUSH2 0x1BD PUSH1 0x4 DUP1 CALLDATASIZE SUB DUP2 ADD SWAP1 PUSH2 0x1B8 SWAP2 SWAP1 PUSH2 0x107D JUMP JUMPDEST PUSH2 0x7C2 JUMP JUMPDEST PUSH1 0x40 MLOAD PUSH2 0x1CA SWAP2 SWAP1 PUSH2 0xFD8 JUMP JUMPDEST PUSH1 0x40 MLOAD DUP1 SWAP2 SUB SWAP1 RETURN JUMPDEST PUSH2 0x1DB PUSH2 0x7DA JUMP JUMPDEST PUSH1 0x40 MLOAD PUSH2 0x1E8 SWAP2 SWAP1 PUSH2 0xE98 JUMP JUMPDEST PUSH1 0x40 MLOAD DUP1 SWAP2 SUB SWAP1 RETURN JUMPDEST PUSH2 0x20B PUSH1 0x4 DUP1 CALLDATASIZE SUB DUP2 ADD SWAP1 PUSH2 0x206 SWAP2 SWAP1 PUSH2 0xF53 JUMP JUMPDEST PUSH2 0x868 JUMP JUMPDEST PUSH1 0x40 MLOAD PUSH2 0x218 SWAP2 SWAP1 PUSH2 0xFAE JUMP JUMPDEST PUSH1 0x40 MLOAD DUP1 SWAP2 SUB SWAP1 RETURN JUMPDEST PUSH2 0x23B PUSH1 0x4 DUP1 CALLDATASIZE SUB DUP2 ADD SWAP1 PUSH2 0x236 SWAP2 SWAP1 PUSH2 0xF53 JUMP JUMPDEST PUSH2 0xA75 JUMP JUMPDEST PUSH1 0x40 MLOAD PUSH2 0x248 SWAP2 SWAP1 PUSH2 0xFAE JUMP JUMPDEST PUSH1 0x40 MLOAD DUP1 SWAP2 SUB SWAP1 RETURN JUMPDEST PUSH2 0x26B PUSH1 0x4 DUP1 CALLDATASIZE SUB DUP2 ADD SWAP1 PUSH2 0x266 SWAP2 SWAP1 PUSH2 0xF53 JUMP JUMPDEST PUSH2 0xC82 JUMP JUMPDEST PUSH1 0x40 MLOAD PUSH2 0x278 SWAP2 SWAP1 PUSH2 0xFAE JUMP JUMPDEST PUSH1 0x40 MLOAD DUP1 SWAP2 SUB SWAP1 RETURN JUMPDEST PUSH2 0x29B PUSH1 0x4 DUP1 CALLDATASIZE SUB DUP2 ADD SWAP1 PUSH2 0x296 SWAP2 SWAP1 PUSH2 0x10AA JUMP JUMPDEST PUSH2 0xDE3 JUMP JUMPDEST PUSH1 0x40 MLOAD PUSH2 0x2A8 SWAP2 SWAP1 PUSH2 0xFD8 JUMP JUMPDEST PUSH1 0x40 MLOAD DUP1 SWAP2 SUB SWAP1 RETURN JUMPDEST PUSH1 0x0 DUP1 SLOAD PUSH2 0x2BE SWAP1 PUSH2 0x1119 JUMP JUMPDEST DUP1 PUSH1 0x1F ADD PUSH1 0x20 DUP1 SWAP2 DIV MUL PUSH1 0x20 ADD PUSH1 0x40 MLOAD SWAP1 DUP2 ADD PUSH1 0x40 MSTORE DUP1 SWAP3 SWAP2 SWAP1 DUP2 DUP2 MSTORE PUSH1 0x20 ADD DUP3 DUP1 SLOAD PUSH2 0x2EA SWAP1 PUSH2 0x1119 JUMP JUMPDEST DUP1 ISZERO PUSH2 0x337 JUMPI DUP1 PUSH1 0x1F LT PUSH2 0x30C JUMPI PUSH2 0x100 DUP1 DUP4 SLOAD DIV MUL DUP4 MSTORE SWAP2 PUSH1 0x20 ADD SWAP2 PUSH2 0x337 JUMP JUMPDEST DUP3 ADD SWAP2 SWAP1 PUSH1 0x0 MSTORE PUSH1 0x20 PUSH1 0x0 KECCAK256 SWAP1 JUMPDEST DUP2 SLOAD DUP2 MSTORE SWAP1 PUSH1 0x1 ADD SWAP1 PUSH1 0x20 ADD DUP1 DUP4 GT PUSH2 0x31A JUMPI DUP3 SWAP1 SUB PUSH1 0x1F AND DUP3 ADD SWAP2 JUMPDEST POP POP POP POP POP DUP2 JUMP JUMPDEST PUSH1 0x0 DUP2 PUSH1 0x5 PUSH1 0x0 CALLER PUSH20 0xFFFFFFFFFFFFFFFFFFFFFFFFFFFFFFFFFFFFFFFF AND PUSH20 0xFFFFFFFFFFFFFFFFFFFFFFFFFFFFFFFFFFFFFFFF AND DUP2 MSTORE PUSH1 0x20 ADD SWAP1 DUP2 MSTORE PUSH1 0x20 ADD PUSH1 0x0 KECCAK256 PUSH1 0x0 DUP6 PUSH20 0xFFFFFFFFFFFFFFFFFFFFFFFFFFFFFFFFFFFFFFFF AND PUSH20 0xFFFFFFFFFFFFFFFFFFFFFFFFFFFFFFFFFFFFFFFF AND DUP2 MSTORE PUSH1 0x20 ADD SWAP1 DUP2 MSTORE PUSH1 0x20 ADD PUSH1 0x0 KECCAK256 DUP2 SWAP1 SSTORE POP DUP3 PUSH20 0xFFFFFFFFFFFFFFFFFFFFFFFFFFFFFFFFFFFFFFFF AND CALLER PUSH20 0xFFFFFFFFFFFFFFFFFFFFFFFFFFFFFFFFFFFFFFFF AND PUSH32 0x8C5BE1E5EBEC7D5BD14F71427D1E84F3DD0314C0F7B2291E5B200AC8C7C3B925 DUP5 PUSH1 0x40 MLOAD PUSH2 0x41F SWAP2 SWAP1 PUSH2 0xFD8 JUMP JUMPDEST PUSH1 0x40 MLOAD DUP1 SWAP2 SUB SWAP1 LOG3 PUSH1 0x1 SWAP1 POP SWAP3 SWAP2 POP POP JUMP JUMPDEST PUSH1 0x3 SLOAD DUP2 JUMP JUMPDEST PUSH1 0x0 DUP1 PUSH20 0xFFFFFFFFFFFFFFFFFFFFFFFFFFFFFFFFFFFFFFFF AND DUP4 PUSH20 0xFFFFFFFFFFFFFFFFFFFFFFFFFFFFFFFFFFFFFFFF AND SUB PUSH2 0x4A7 JUMPI PUSH1 0x40 MLOAD PUSH32 0x8C379A000000000000000000000000000000000000000000000000000000000 DUP2 MSTORE PUSH1 0x4 ADD PUSH2 0x49E SWAP1 PUSH2 0x1196 JUMP JUMPDEST PUSH1 0x40 MLOAD DUP1 SWAP2 SUB SWAP1 REVERT JUMPDEST DUP2 PUSH1 0x4 PUSH1 0x0 DUP7 PUSH20 0xFFFFFFFFFFFFFFFFFFFFFFFFFFFFFFFFFFFFFFFF AND PUSH20 0xFFFFFFFFFFFFFFFFFFFFFFFFFFFFFFFFFFFFFFFF AND DUP2 MSTORE PUSH1 0x20 ADD SWAP1 DUP2 MSTORE PUSH1 0x20 ADD PUSH1 0x0 KECCAK256 SLOAD LT ISZERO PUSH2 0x529 JUMPI PUSH1 0x40 MLOAD PUSH32 0x8C379A000000000000000000000000000000000000000000000000000000000 DUP2 MSTORE PUSH1 0x4 ADD PUSH2 0x520 SWAP1 PUSH2 0x1202 JUMP JUMPDEST PUSH1 0x40 MLOAD DUP1 SWAP2 SUB SWAP1 REVERT JUMPDEST DUP2 PUSH1 0x5 PUSH1 0x0 DUP7 PUSH20 0xFFFFFFFFFFFFFFFFFFFFFFFFFFFFFFFFFFFFFFFF AND PUSH20 0xFFFFFFFFFFFFFFFFFFFFFFFFFFFFFFFFFFFFFFFF AND DUP2 MSTORE PUSH1 0x20 ADD SWAP1 DUP2 MSTORE PUSH1 0x20 ADD PUSH1 0x0 KECCAK256 PUSH1 0x0 CALLER PUSH20 0xFFFFFFFFFFFFFFFFFFFFFFFFFFFFFFFFFFFFFFFF AND PUSH20 0xFFFFFFFFFFFFFFFFFFFFFFFFFFFFFFFFFFFFFFFF AND DUP2 MSTORE PUSH1 0x20 ADD SWAP1 DUP2 MSTORE PUSH1 0x20 ADD PUSH1 0x0 KECCAK256 SLOAD LT ISZERO PUSH2 0x5E8 JUMPI PUSH1 0x40 MLOAD PUSH32 0x8C379A000000000000000000000000000000000000000000000000000000000 DUP2 MSTORE PUSH1 0x4 ADD PUSH2 0x5DF SWAP1 PUSH2 0x126E JUMP JUMPDEST PUSH1 0x40 MLOAD DUP1 SWAP2 SUB SWAP1 REVERT JUMPDEST DUP2 PUSH1 0x4 PUSH1 0x0 DUP7 PUSH20 0xFFFFFFFFFFFFFFFFFFFFFFFFFFFFFFFFFFFFFFFF AND PUSH20 0xFFFFFFFFFFFFFFFFFFFFFFFFFFFFFFFFFFFFFFFF AND DUP2 MSTORE PUSH1 0x20 ADD SWAP1 DUP2 MSTORE PUSH1 0x20 ADD PUSH1 0x0 KECCAK256 PUSH1 0x0 DUP3 DUP3 SLOAD PUSH2 0x637 SWAP2 SWAP1 PUSH2 0x12BD JUMP JUMPDEST SWAP3 POP POP DUP2 SWAP1 SSTORE POP DUP2 PUSH1 0x4 PUSH1 0x0 DUP6 PUSH20 0xFFFFFFFFFFFFFFFFFFFFFFFFFFFFFFFFFFFFFFFF AND PUSH20 0xFFFFFFFFFFFFFFFFFFFFFFFFFFFFFFFFFFFFFFFF AND DUP2 MSTORE PUSH1 0x20 ADD SWAP1 DUP2 MSTORE PUSH1 0x20 ADD PUSH1 0x0 KECCAK256 PUSH1 0x0 DUP3 DUP3 SLOAD PUSH2 0x68D SWAP2 SWAP1 PUSH2 0x12F1 JUMP JUMPDEST SWAP3 POP POP DUP2 SWAP1 SSTORE POP DUP2 PUSH1 0x5 PUSH1 0x0 DUP7 PUSH20 0xFFFFFFFFFFFFFFFFFFFFFFFFFFFFFFFFFFFFFFFF AND PUSH20 0xFFFFFFFFFFFFFFFFFFFFFFFFFFFFFFFFFFFFFFFF AND DUP2 MSTORE PUSH1 0x20 ADD SWAP1 DUP2 MSTORE PUSH1 0x20 ADD PUSH1 0x0 KECCAK256 PUSH1 0x0 CALLER PUSH20 0xFFFFFFFFFFFFFFFFFFFFFFFFFFFFFFFFFFFFFFFF AND PUSH20 0xFFFFFFFFFFFFFFFFFFFFFFFFFFFFFFFFFFFFFFFF AND DUP2 MSTORE PUSH1 0x20 ADD SWAP1 DUP2 MSTORE PUSH1 0x20 ADD PUSH1 0x0 KECCAK256 PUSH1 0x0 DUP3 DUP3 SLOAD PUSH2 0x720 SWAP2 SWAP1 PUSH2 0x12BD JUMP JUMPDEST SWAP3 POP POP DUP2 SWAP1 SSTORE POP DUP3 PUSH20 0xFFFFFFFFFFFFFFFFFFFFFFFFFFFFFFFFFFFFFFFF AND DUP5 PUSH20 0xFFFFFFFFFFFFFFFFFFFFFFFFFFFFFFFFFFFFFFFF AND PUSH32 0xDDF252AD1BE2C89B69C2B068FC378DAA952BA7F163C4A11628F55A4DF523B3EF DUP5 PUSH1 0x40 MLOAD PUSH2 0x784 SWAP2 SWAP1 PUSH2 0xFD8 JUMP JUMPDEST PUSH1 0x40 MLOAD DUP1 SWAP2 SUB SWAP1 LOG3 PUSH1 0x1 SWAP1 POP SWAP4 SWAP3 POP POP POP JUMP JUMPDEST PUSH1 0x2 PUSH1 0x0 SWAP1 SLOAD SWAP1 PUSH2 0x100 EXP SWAP1 DIV PUSH1 0xFF AND DUP2 JUMP JUMPDEST PUSH1 0x4 PUSH1 0x20 MSTORE DUP1 PUSH1 0x0 MSTORE PUSH1 0x40 PUSH1 0x0 KECCAK256 PUSH1 0x0 SWAP2 POP SWAP1 POP SLOAD DUP2 JUMP JUMPDEST PUSH1 0x6 PUSH1 0x20 MSTORE DUP1 PUSH1 0x0 MSTORE PUSH1 0x40 PUSH1 0x0 KECCAK256 PUSH1 0x0 SWAP2 POP SWAP1 POP SLOAD DUP2 JUMP JUMPDEST PUSH1 0x1 DUP1 SLOAD PUSH2 0x7E7 SWAP1 PUSH2 0x1119 JUMP JUMPDEST DUP1 PUSH1 0x1F ADD PUSH1 0x20 DUP1 SWAP2 DIV MUL PUSH1 0x20 ADD PUSH1 0x40 MLOAD SWAP1 DUP2 ADD PUSH1 0x40 MSTORE DUP1 SWAP3 SWAP2 SWAP1 DUP2 DUP2 MSTORE PUSH1 0x20 ADD DUP3 DUP1 SLOAD PUSH2 0x813 SWAP1 PUSH2 0x1119 JUMP JUMPDEST DUP1 ISZERO PUSH2 0x860 JUMPI DUP1 PUSH1 0x1F LT PUSH2 0x835 JUMPI PUSH2 0x100 DUP1 DUP4 SLOAD DIV MUL DUP4 MSTORE SWAP2 PUSH1 0x20 ADD SWAP2 PUSH2 0x860 JUMP JUMPDEST DUP3 ADD SWAP2 SWAP1 PUSH1 0x0 MSTORE PUSH1 0x20 PUSH1 0x0 KECCAK256 SWAP1 JUMPDEST DUP2 SLOAD DUP2 MSTORE SWAP1 PUSH1 0x1 ADD SWAP1 PUSH1 0x20 ADD DUP1 DUP4 GT PUSH2 0x843 JUMPI DUP3 SWAP1 SUB PUSH1 0x1F AND DUP3 ADD SWAP2 JUMPDEST POP POP POP POP POP DUP2 JUMP JUMPDEST PUSH1 0x0 DUP1 PUSH20 0xFFFFFFFFFFFFFFFFFFFFFFFFFFFFFFFFFFFFFFFF AND DUP4 PUSH20 0xFFFFFFFFFFFFFFFFFFFFFFFFFFFFFFFFFFFFFFFF AND SUB PUSH2 0x8D8 JUMPI PUSH1 0x40 MLOAD PUSH32 0x8C379A000000000000000000000000000000000000000000000000000000000 DUP2 MSTORE PUSH1 0x4 ADD PUSH2 0x8CF SWAP1 PUSH2 0x1196 JUMP JUMPDEST PUSH1 0x40 MLOAD DUP1 SWAP2 SUB SWAP1 REVERT JUMPDEST DUP2 PUSH1 0x4 PUSH1 0x0 CALLER PUSH20 0xFFFFFFFFFFFFFFFFFFFFFFFFFFFFFFFFFFFFFFFF AND PUSH20 0xFFFFFFFFFFFFFFFFFFFFFFFFFFFFFFFFFFFFFFFF AND DUP2 MSTORE PUSH1 0x20 ADD SWAP1 DUP2 MSTORE PUSH1 0x20 ADD PUSH1 0x0 KECCAK256 SLOAD LT ISZERO PUSH2 0x95A JUMPI PUSH1 0x40 MLOAD PUSH32 0x8C379A000000000000000000000000000000000000000000000000000000000 DUP2 MSTORE PUSH1 0x4 ADD PUSH2 0x951 SWAP1 PUSH2 0x1202 JUMP JUMPDEST PUSH1 0x40 MLOAD DUP1 SWAP2 SUB SWAP1 REVERT JUMPDEST DUP2 PUSH1 0x4 PUSH1 0x0 CALLER PUSH20 0xFFFFFFFFFFFFFFFFFFFFFFFFFFFFFFFFFFFFFFFF AND PUSH20 0xFFFFFFFFFFFFFFFFFFFFFFFFFFFFFFFFFFFFFFFF AND DUP2 MSTORE PUSH1 0x20 ADD SWAP1 DUP2 MSTORE PUSH1 0x20 ADD PUSH1 0x0 KECCAK256 PUSH1 0x0 DUP3 DUP3 SLOAD PUSH2 0x9A9 SWAP2 SWAP1 PUSH2 0x12BD JUMP JUMPDEST SWAP3 POP POP DUP2 SWAP1 SSTORE POP DUP2 PUSH1 0x4 PUSH1 0x0 DUP6 PUSH20 0xFFFFFFFFFFFFFFFFFFFFFFFFFFFFFFFFFFFFFFFF AND PUSH20 0xFFFFFFFFFFFFFFFFFFFFFFFFFFFFFFFFFFFFFFFF AND DUP2 MSTORE PUSH1 0x20 ADD SWAP1 DUP2 MSTORE PUSH1 0x20 ADD PUSH1 0x0 KECCAK256 PUSH1 0x0 DUP3 DUP3 SLOAD PUSH2 0x9FF SWAP2 SWAP1 PUSH2 0x12F1 JUMP JUMPDEST SWAP3 POP POP DUP2 SWAP1 SSTORE POP DUP3 PUSH20 0xFFFFFFFFFFFFFFFFFFFFFFFFFFFFFFFFFFFFFFFF AND CALLER PUSH20 0xFFFFFFFFFFFFFFFFFFFFFFFFFFFFFFFFFFFFFFFF AND PUSH32 0xDDF252AD1BE2C89B69C2B068FC378DAA952BA7F163C4A11628F55A4DF523B3EF DUP5 PUSH1 0x40 MLOAD PUSH2 0xA63 SWAP2 SWAP1 PUSH2 0xFD8 JUMP JUMPDEST PUSH1 0x40 MLOAD DUP1 SWAP2 SUB SWAP1 LOG3 PUSH1 0x1 SWAP1 POP SWAP3 SWAP2 POP POP JUMP JUMPDEST PUSH1 0x0 DUP1 PUSH20 0xFFFFFFFFFFFFFFFFFFFFFFFFFFFFFFFFFFFFFFFF AND DUP4 PUSH20 0xFFFFFFFFFFFFFFFFFFFFFFFFFFFFFFFFFFFFFFFF AND SUB PUSH2 0xAE5 JUMPI PUSH1 0x40 MLOAD PUSH32 0x8C379A000000000000000000000000000000000000000000000000000000000 DUP2 MSTORE PUSH1 0x4 ADD PUSH2 0xADC SWAP1 PUSH2 0x1196 JUMP JUMPDEST PUSH1 0x40 MLOAD DUP1 SWAP2 SUB SWAP1 REVERT JUMPDEST DUP2 PUSH1 0x6 PUSH1 0x0 CALLER PUSH20 0xFFFFFFFFFFFFFFFFFFFFFFFFFFFFFFFFFFFFFFFF AND PUSH20 0xFFFFFFFFFFFFFFFFFFFFFFFFFFFFFFFFFFFFFFFF AND DUP2 MSTORE PUSH1 0x20 ADD SWAP1 DUP2 MSTORE PUSH1 0x20 ADD PUSH1 0x0 KECCAK256 SLOAD LT ISZERO PUSH2 0xB67 JUMPI PUSH1 0x40 MLOAD PUSH32 0x8C379A000000000000000000000000000000000000000000000000000000000 DUP2 MSTORE PUSH1 0x4 ADD PUSH2 0xB5E SWAP1 PUSH2 0x1371 JUMP JUMPDEST PUSH1 0x40 MLOAD DUP1 SWAP2 SUB SWAP1 REVERT JUMPDEST DUP2 PUSH1 0x6 PUSH1 0x0 CALLER PUSH20 0xFFFFFFFFFFFFFFFFFFFFFFFFFFFFFFFFFFFFFFFF AND PUSH20 0xFFFFFFFFFFFFFFFFFFFFFFFFFFFFFFFFFFFFFFFF AND DUP2 MSTORE PUSH1 0x20 ADD SWAP1 DUP2 MSTORE PUSH1 0x20 ADD PUSH1 0x0 KECCAK256 PUSH1 0x0 DUP3 DUP3 SLOAD PUSH2 0xBB6 SWAP2 SWAP1 PUSH2 0x12BD JUMP JUMPDEST SWAP3 POP POP DUP2 SWAP1 SSTORE POP DUP2 PUSH1 0x6 PUSH1 0x0 DUP6 PUSH20 0xFFFFFFFFFFFFFFFFFFFFFFFFFFFFFFFFFFFFFFFF AND PUSH20 0xFFFFFFFFFFFFFFFFFFFFFFFFFFFFFFFFFFFFFFFF AND DUP2 MSTORE PUSH1 0x20 ADD SWAP1 DUP2 MSTORE PUSH1 0x20 ADD PUSH1 0x0 KECCAK256 PUSH1 0x0 DUP3 DUP3 SLOAD PUSH2 0xC0C SWAP2 SWAP1 PUSH2 0x12F1 JUMP JUMPDEST SWAP3 POP POP DUP2 SWAP1 SSTORE POP DUP3 PUSH20 0xFFFFFFFFFFFFFFFFFFFFFFFFFFFFFFFFFFFFFFFF AND CALLER PUSH20 0xFFFFFFFFFFFFFFFFFFFFFFFFFFFFFFFFFFFFFFFF AND PUSH32 0x7E95113809DAF6B378CB1CAF9641A894A32FC97BFA22EDAFFD31D92564400EC0 DUP5 PUSH1 0x40 MLOAD PUSH2 0xC70 SWAP2 SWAP1 PUSH2 0xFD8 JUMP JUMPDEST PUSH1 0x40 MLOAD DUP1 SWAP2 SUB SWAP1 LOG3 PUSH1 0x1 SWAP1 POP SWAP3 SWAP2 POP POP JUMP JUMPDEST PUSH1 0x0 DUP3 PUSH20 0xFFFFFFFFFFFFFFFFFFFFFFFFFFFFFFFFFFFFFFFF AND CALLER PUSH20 0xFFFFFFFFFFFFFFFFFFFFFFFFFFFFFFFFFFFFFFFF AND EQ PUSH2 0xCF2 JUMPI PUSH1 0x40 MLOAD PUSH32 0x8C379A000000000000000000000000000000000000000000000000000000000 DUP2 MSTORE PUSH1 0x4 ADD PUSH2 0xCE9 SWAP1 PUSH2 0x1403 JUMP JUMPDEST PUSH1 0x40 MLOAD DUP1 SWAP2 SUB SWAP1 REVERT JUMPDEST PUSH1 0x0 DUP3 GT PUSH2 0xD35 JUMPI PUSH1 0x40 MLOAD PUSH32 0x8C379A000000000000000000000000000000000000000000000000000000000 DUP2 MSTORE PUSH1 0x4 ADD PUSH2 0xD2C SWAP1 PUSH2 0x146F JUMP JUMPDEST PUSH1 0x40 MLOAD DUP1 SWAP2 SUB SWAP1 REVERT JUMPDEST DUP2 PUSH1 0x6 PUSH1 0x0 DUP6 PUSH20 0xFFFFFFFFFFFFFFFFFFFFFFFFFFFFFFFFFFFFFFFF AND PUSH20 0xFFFFFFFFFFFFFFFFFFFFFFFFFFFFFFFFFFFFFFFF AND DUP2 MSTORE PUSH1 0x20 ADD SWAP1 DUP2 MSTORE PUSH1 0x20 ADD PUSH1 0x0 KECCAK256 PUSH1 0x0 DUP3 DUP3 SLOAD PUSH2 0xD84 SWAP2 SWAP1 PUSH2 0x12F1 JUMP JUMPDEST SWAP3 POP POP DUP2 SWAP1 SSTORE POP DUP3 PUSH20 0xFFFFFFFFFFFFFFFFFFFFFFFFFFFFFFFFFFFFFFFF AND PUSH32 0xB187454DA3DA066362CC9F4981C0CA94F6FA47F422FF91D4FCE8A1CA73064B92 DUP4 PUSH1 0x40 MLOAD PUSH2 0xDD1 SWAP2 SWAP1 PUSH2 0xFD8 JUMP JUMPDEST PUSH1 0x40 MLOAD DUP1 SWAP2 SUB SWAP1 LOG2 PUSH1 0x1 SWAP1 POP SWAP3 SWAP2 POP POP JUMP JUMPDEST PUSH1 0x5 PUSH1 0x20 MSTORE DUP2 PUSH1 0x0 MSTORE PUSH1 0x40 PUSH1 0x0 KECCAK256 PUSH1 0x20 MSTORE DUP1 PUSH1 0x0 MSTORE PUSH1 0x40 PUSH1 0x0 KECCAK256 PUSH1 0x0 SWAP2 POP SWAP2 POP POP SLOAD DUP2 JUMP JUMPDEST PUSH1 0x0 DUP2 MLOAD SWAP1 POP SWAP2 SWAP1 POP JUMP JUMPDEST PUSH1 0x0 DUP3 DUP3 MSTORE PUSH1 0x20 DUP3 ADD SWAP1 POP SWAP3 SWAP2 POP POP JUMP JUMPDEST PUSH1 0x0 JUMPDEST DUP4 DUP2 LT ISZERO PUSH2 0xE42 JUMPI DUP1 DUP3 ADD MLOAD DUP2 DUP5 ADD MSTORE PUSH1 0x20 DUP2 ADD SWAP1 POP PUSH2 0xE27 JUMP JUMPDEST PUSH1 0x0 DUP5 DUP5 ADD MSTORE POP POP POP POP JUMP JUMPDEST PUSH1 0x0 PUSH1 0x1F NOT PUSH1 0x1F DUP4 ADD AND SWAP1 POP SWAP2 SWAP1 POP JUMP JUMPDEST PUSH1 0x0 PUSH2 0xE6A DUP3 PUSH2 0xE08 JUMP JUMPDEST PUSH2 0xE74 DUP2 DUP6 PUSH2 0xE13 JUMP JUMPDEST SWAP4 POP PUSH2 0xE84 DUP2 DUP6 PUSH1 0x20 DUP7 ADD PUSH2 0xE24 JUMP JUMPDEST PUSH2 0xE8D DUP2 PUSH2 0xE4E JUMP JUMPDEST DUP5 ADD SWAP2 POP POP SWAP3 SWAP2 POP POP JUMP JUMPDEST PUSH1 0x0 PUSH1 0x20 DUP3 ADD SWAP1 POP DUP2 DUP2 SUB PUSH1 0x0 DUP4 ADD MSTORE PUSH2 0xEB2 DUP2 DUP5 PUSH2 0xE5F JUMP JUMPDEST SWAP1 POP SWAP3 SWAP2 POP POP JUMP JUMPDEST PUSH1 0x0 DUP1 REVERT JUMPDEST PUSH1 0x0 PUSH20 0xFFFFFFFFFFFFFFFFFFFFFFFFFFFFFFFFFFFFFFFF DUP3 AND SWAP1 POP SWAP2 SWAP1 POP JUMP JUMPDEST PUSH1 0x0 PUSH2 0xEEA DUP3 PUSH2 0xEBF JUMP JUMPDEST SWAP1 POP SWAP2 SWAP1 POP JUMP JUMPDEST PUSH2 0xEFA DUP2 PUSH2 0xEDF JUMP JUMPDEST DUP2 EQ PUSH2 0xF05 JUMPI PUSH1 0x0 DUP1 REVERT JUMPDEST POP JUMP JUMPDEST PUSH1 0x0 DUP2 CALLDATALOAD SWAP1 POP PUSH2 0xF17 DUP2 PUSH2 0xEF1 JUMP JUMPDEST SWAP3 SWAP2 POP POP JUMP JUMPDEST PUSH1 0x0 DUP2 SWAP1 POP SWAP2 SWAP1 POP JUMP JUMPDEST PUSH2 0xF30 DUP2 PUSH2 0xF1D JUMP JUMPDEST DUP2 EQ PUSH2 0xF3B JUMPI PUSH1 0x0 DUP1 REVERT JUMPDEST POP JUMP JUMPDEST PUSH1 0x0 DUP2 CALLDATALOAD SWAP1 POP PUSH2 0xF4D DUP2 PUSH2 0xF27 JUMP JUMPDEST SWAP3 SWAP2 POP POP JUMP JUMPDEST PUSH1 0x0 DUP1 PUSH1 0x40 DUP4 DUP6 SUB SLT ISZERO PUSH2 0xF6A JUMPI PUSH2 0xF69 PUSH2 0xEBA JUMP JUMPDEST JUMPDEST PUSH1 0x0 PUSH2 0xF78 DUP6 DUP3 DUP7 ADD PUSH2 0xF08 JUMP JUMPDEST SWAP3 POP POP PUSH1 0x20 PUSH2 0xF89 DUP6 DUP3 DUP7 ADD PUSH2 0xF3E JUMP JUMPDEST SWAP2 POP POP SWAP3 POP SWAP3 SWAP1 POP JUMP JUMPDEST PUSH1 0x0 DUP2 ISZERO ISZERO SWAP1 POP SWAP2 SWAP1 POP JUMP JUMPDEST PUSH2 0xFA8 DUP2 PUSH2 0xF93 JUMP JUMPDEST DUP3 MSTORE POP POP JUMP JUMPDEST PUSH1 0x0 PUSH1 0x20 DUP3 ADD SWAP1 POP PUSH2 0xFC3 PUSH1 0x0 DUP4 ADD DUP5 PUSH2 0xF9F JUMP JUMPDEST SWAP3 SWAP2 POP POP JUMP JUMPDEST PUSH2 0xFD2 DUP2 PUSH2 0xF1D JUMP JUMPDEST DUP3 MSTORE POP POP JUMP JUMPDEST PUSH1 0x0 PUSH1 0x20 DUP3 ADD SWAP1 POP PUSH2 0xFED PUSH1 0x0 DUP4 ADD DUP5 PUSH2 0xFC9 JUMP JUMPDEST SWAP3 SWAP2 POP POP JUMP JUMPDEST PUSH1 0x0 DUP1 PUSH1 0x0 PUSH1 0x60 DUP5 DUP7 SUB SLT ISZERO PUSH2 0x100C JUMPI PUSH2 0x100B PUSH2 0xEBA JUMP JUMPDEST JUMPDEST PUSH1 0x0 PUSH2 0x101A DUP7 DUP3 DUP8 ADD PUSH2 0xF08 JUMP JUMPDEST SWAP4 POP POP PUSH1 0x20 PUSH2 0x102B DUP7 DUP3 DUP8 ADD PUSH2 0xF08 JUMP JUMPDEST SWAP3 POP POP PUSH1 0x40 PUSH2 0x103C DUP7 DUP3 DUP8 ADD PUSH2 0xF3E JUMP JUMPDEST SWAP2 POP POP SWAP3 POP SWAP3 POP SWAP3 JUMP JUMPDEST PUSH1 0x0 PUSH1 0xFF DUP3 AND SWAP1 POP SWAP2 SWAP1 POP JUMP JUMPDEST PUSH2 0x105C DUP2 PUSH2 0x1046 JUMP JUMPDEST DUP3 MSTORE POP POP JUMP JUMPDEST PUSH1 0x0 PUSH1 0x20 DUP3 ADD SWAP1 POP PUSH2 0x1077 PUSH1 0x0 DUP4 ADD DUP5 PUSH2 0x1053 JUMP JUMPDEST SWAP3 SWAP2 POP POP JUMP JUMPDEST PUSH1 0x0 PUSH1 0x20 DUP3 DUP5 SUB SLT ISZERO PUSH2 0x1093 JUMPI PUSH2 0x1092 PUSH2 0xEBA JUMP JUMPDEST JUMPDEST PUSH1 0x0 PUSH2 0x10A1 DUP5 DUP3 DUP6 ADD PUSH2 0xF08 JUMP JUMPDEST SWAP2 POP POP SWAP3 SWAP2 POP POP JUMP JUMPDEST PUSH1 0x0 DUP1 PUSH1 0x40 DUP4 DUP6 SUB SLT ISZERO PUSH2 0x10C1 JUMPI PUSH2 0x10C0 PUSH2 0xEBA JUMP JUMPDEST JUMPDEST PUSH1 0x0 PUSH2 0x10CF DUP6 DUP3 DUP7 ADD PUSH2 0xF08 JUMP JUMPDEST SWAP3 POP POP PUSH1 0x20 PUSH2 0x10E0 DUP6 DUP3 DUP7 ADD PUSH2 0xF08 JUMP JUMPDEST SWAP2 POP POP SWAP3 POP SWAP3 SWAP1 POP JUMP JUMPDEST PUSH32 0x4E487B7100000000000000000000000000000000000000000000000000000000 PUSH1 0x0 MSTORE PUSH1 0x22 PUSH1 0x4 MSTORE PUSH1 0x24 PUSH1 0x0 REVERT JUMPDEST PUSH1 0x0 PUSH1 0x2 DUP3 DIV SWAP1 POP PUSH1 0x1 DUP3 AND DUP1 PUSH2 0x1131 JUMPI PUSH1 0x7F DUP3 AND SWAP2 POP JUMPDEST PUSH1 0x20 DUP3 LT DUP2 SUB PUSH2 0x1144 JUMPI PUSH2 0x1143 PUSH2 0x10EA JUMP JUMPDEST JUMPDEST POP SWAP2 SWAP1 POP JUMP JUMPDEST PUSH32 0x496E76616C696420616464726573730000000000000000000000000000000000 PUSH1 0x0 DUP3 ADD MSTORE POP JUMP JUMPDEST PUSH1 0x0 PUSH2 0x1180 PUSH1 0xF DUP4 PUSH2 0xE13 JUMP JUMPDEST SWAP2 POP PUSH2 0x118B DUP3 PUSH2 0x114A JUMP JUMPDEST PUSH1 0x20 DUP3 ADD SWAP1 POP SWAP2 SWAP1 POP JUMP JUMPDEST PUSH1 0x0 PUSH1 0x20 DUP3 ADD SWAP1 POP DUP2 DUP2 SUB PUSH1 0x0 DUP4 ADD MSTORE PUSH2 0x11AF DUP2 PUSH2 0x1173 JUMP JUMPDEST SWAP1 POP SWAP2 SWAP1 POP JUMP JUMPDEST PUSH32 0x496E73756666696369656E742062616C616E6365000000000000000000000000 PUSH1 0x0 DUP3 ADD MSTORE POP JUMP JUMPDEST PUSH1 0x0 PUSH2 0x11EC PUSH1 0x14 DUP4 PUSH2 0xE13 JUMP JUMPDEST SWAP2 POP PUSH2 0x11F7 DUP3 PUSH2 0x11B6 JUMP JUMPDEST PUSH1 0x20 DUP3 ADD SWAP1 POP SWAP2 SWAP1 POP JUMP JUMPDEST PUSH1 0x0 PUSH1 0x20 DUP3 ADD SWAP1 POP DUP2 DUP2 SUB PUSH1 0x0 DUP4 ADD MSTORE PUSH2 0x121B DUP2 PUSH2 0x11DF JUMP JUMPDEST SWAP1 POP SWAP2 SWAP1 POP JUMP JUMPDEST PUSH32 0x416C6C6F77616E63652065786365656465640000000000000000000000000000 PUSH1 0x0 DUP3 ADD MSTORE POP JUMP JUMPDEST PUSH1 0x0 PUSH2 0x1258 PUSH1 0x12 DUP4 PUSH2 0xE13 JUMP JUMPDEST SWAP2 POP PUSH2 0x1263 DUP3 PUSH2 0x1222 JUMP JUMPDEST PUSH1 0x20 DUP3 ADD SWAP1 POP SWAP2 SWAP1 POP JUMP JUMPDEST PUSH1 0x0 PUSH1 0x20 DUP3 ADD SWAP1 POP DUP2 DUP2 SUB PUSH1 0x0 DUP4 ADD MSTORE PUSH2 0x1287 DUP2 PUSH2 0x124B JUMP JUMPDEST SWAP1 POP SWAP2 SWAP1 POP JUMP JUMPDEST PUSH32 0x4E487B7100000000000000000000000000000000000000000000000000000000 PUSH1 0x0 MSTORE PUSH1 0x11 PUSH1 0x4 MSTORE PUSH1 0x24 PUSH1 0x0 REVERT JUMPDEST PUSH1 0x0 PUSH2 0x12C8 DUP3 PUSH2 0xF1D JUMP JUMPDEST SWAP2 POP PUSH2 0x12D3 DUP4 PUSH2 0xF1D JUMP JUMPDEST SWAP3 POP DUP3 DUP3 SUB SWAP1 POP DUP2 DUP2 GT ISZERO PUSH2 0x12EB JUMPI PUSH2 0x12EA PUSH2 0x128E JUMP JUMPDEST JUMPDEST SWAP3 SWAP2 POP POP JUMP JUMPDEST PUSH1 0x0 PUSH2 0x12FC DUP3 PUSH2 0xF1D JUMP JUMPDEST SWAP2 POP PUSH2 0x1307 DUP4 PUSH2 0xF1D JUMP JUMPDEST SWAP3 POP DUP3 DUP3 ADD SWAP1 POP DUP1 DUP3 GT ISZERO PUSH2 0x131F JUMPI PUSH2 0x131E PUSH2 0x128E JUMP JUMPDEST JUMPDEST SWAP3 SWAP2 POP POP JUMP JUMPDEST PUSH32 0x496E73756666696369656E7420636172626F6E20637265646974730000000000 PUSH1 0x0 DUP3 ADD MSTORE POP JUMP JUMPDEST PUSH1 0x0 PUSH2 0x135B PUSH1 0x1B DUP4 PUSH2 0xE13 JUMP JUMPDEST SWAP2 POP PUSH2 0x1366 DUP3 PUSH2 0x1325 JUMP JUMPDEST PUSH1 0x20 DUP3 ADD SWAP1 POP SWAP2 SWAP1 POP JUMP JUMPDEST PUSH1 0x0 PUSH1 0x20 DUP3 ADD SWAP1 POP DUP2 DUP2 SUB PUSH1 0x0 DUP4 ADD MSTORE PUSH2 0x138A DUP2 PUSH2 0x134E JUMP JUMPDEST SWAP1 POP SWAP2 SWAP1 POP JUMP JUMPDEST PUSH32 0x4F6E6C7920746865206163636F756E7420686F6C6465722063616E2069737375 PUSH1 0x0 DUP3 ADD MSTORE PUSH32 0x6520636172626F6E206372656469747300000000000000000000000000000000 PUSH1 0x20 DUP3 ADD MSTORE POP JUMP JUMPDEST PUSH1 0x0 PUSH2 0x13ED PUSH1 0x30 DUP4 PUSH2 0xE13 JUMP JUMPDEST SWAP2 POP PUSH2 0x13F8 DUP3 PUSH2 0x1391 JUMP JUMPDEST PUSH1 0x40 DUP3 ADD SWAP1 POP SWAP2 SWAP1 POP JUMP JUMPDEST PUSH1 0x0 PUSH1 0x20 DUP3 ADD SWAP1 POP DUP2 DUP2 SUB PUSH1 0x0 DUP4 ADD MSTORE PUSH2 0x141C DUP2 PUSH2 0x13E0 JUMP JUMPDEST SWAP1 POP SWAP2 SWAP1 POP JUMP JUMPDEST PUSH32 0x416D6F756E74206D7573742062652067726561746572207468616E2030000000 PUSH1 0x0 DUP3 ADD MSTORE POP JUMP JUMPDEST PUSH1 0x0 PUSH2 0x1459 PUSH1 0x1D DUP4 PUSH2 0xE13 JUMP JUMPDEST SWAP2 POP PUSH2 0x1464 DUP3 PUSH2 0x1423 JUMP JUMPDEST PUSH1 0x20 DUP3 ADD SWAP1 POP SWAP2 SWAP1 POP JUMP JUMPDEST PUSH1 0x0 PUSH1 0x20 DUP3 ADD SWAP1 POP DUP2 DUP2 SUB PUSH1 0x0 DUP4 ADD MSTORE PUSH2 0x1488 DUP2 PUSH2 0x144C JUMP JUMPDEST SWAP1 POP SWAP2 SWAP1 POP JUMP INVALID LOG2 PUSH5 0x6970667358 0x22 SLT KECCAK256 SWAP13 LOG4 MOD 0x2E DIV 0xC PUSH19 0xA22B28F9308A6223573852821B1D09E08C064 BALANCE 0xE4 MSTORE8 DUP12 PUSH22 0xAC64736F6C6343000812003300000000000000000000 "
				},
				"gasEstimates": {
					"creation": {
						"codeDepositCost": "1063400",
						"executionCost": "infinite",
						"totalCost": "infinite"
					},
					"external": {
						"allowance(address,address)": "infinite",
						"approve(address,uint256)": "infinite",
						"balanceOf(address)": "2925",
						"carbonCredits(address)": "2814",
						"decimals()": "2560",
						"issueCarbonCredits(address,uint256)": "infinite",
						"name()": "infinite",
						"symbol()": "infinite",
						"totalSupply()": "2474",
						"transfer(address,uint256)": "infinite",
						"transferCarbonCredits(address,uint256)": "infinite",
						"transferFrom(address,address,uint256)": "infinite"
					}
				},
				"methodIdentifiers": {
					"allowance(address,address)": "dd62ed3e",
					"approve(address,uint256)": "095ea7b3",
					"balanceOf(address)": "70a08231",
					"carbonCredits(address)": "7aa2bdd4",
					"decimals()": "313ce567",
					"issueCarbonCredits(address,uint256)": "db52b4ea",
					"name()": "06fdde03",
					"symbol()": "95d89b41",
					"totalSupply()": "18160ddd",
					"transfer(address,uint256)": "a9059cbb",
					"transferCarbonCredits(address,uint256)": "afcdd813",
					"transferFrom(address,address,uint256)": "23b872dd"
				}
			},
			"storageLayout": {
				"storage": [
					{
						"astId": 3,
						"contract": "src/contracts/CarbonCredit.sol:CarbonCredit",
						"label": "name",
						"offset": 0,
						"slot": "0",
						"type": "t_string_storage"
					},
					{
						"astId": 5,
						"contract": "src/contracts/CarbonCredit.sol:CarbonCredit",
						"label": "symbol",
						"offset": 0,
						"slot": "1",
						"type": "t_string_storage"
					},
					{
						"astId": 7,
						"contract": "src/contracts/CarbonCredit.sol:CarbonCredit",
						"label": "decimals",
						"offset": 0,
						"slot": "2",
						"type": "t_uint8"
					},
					{
						"astId": 9,
						"contract": "src/contracts/CarbonCredit.sol:CarbonCredit",
						"label": "totalSupply",
						"offset": 0,
						"slot": "3",
						"type": "t_uint256"
					},
					{
						"astId": 13,
						"contract": "src/contracts/CarbonCredit.sol:CarbonCredit",
						"label": "balanceOf",
						"offset": 0,
						"slot": "4",
						"type": "t_mapping(t_address,t_uint256)"
					},
					{
						"astId": 19,
						"contract": "src/contracts/CarbonCredit.sol:CarbonCredit",
						"label": "allowance",
						"offset": 0,
						"slot": "5",
						"type": "t_mapping(t_address,t_mapping(t_address,t_uint256))"
					},
					{
						"astId": 23,
						"contract": "src/contracts/CarbonCredit.sol:CarbonCredit",
						"label": "carbonCredits",
						"offset": 0,
						"slot": "6",
						"type": "t_mapping(t_address,t_uint256)"
					}
				],
				"types": {
					"t_address": {
						"encoding": "inplace",
						"label": "address",
						"numberOfBytes": "20"
					},
					"t_mapping(t_address,t_mapping(t_address,t_uint256))": {
						"encoding": "mapping",
						"key": "t_address",
						"label": "mapping(address => mapping(address => uint256))",
						"numberOfBytes": "32",
						"value": "t_mapping(t_address,t_uint256)"
					},
					"t_mapping(t_address,t_uint256)": {
						"encoding": "mapping",
						"key": "t_address",
						"label": "mapping(address => uint256)",
						"numberOfBytes": "32",
						"value": "t_uint256"
					},
					"t_string_storage": {
						"encoding": "bytes",
						"label": "string",
						"numberOfBytes": "32"
					},
					"t_uint256": {
						"encoding": "inplace",
						"label": "uint256",
						"numberOfBytes": "32"
					},
					"t_uint8": {
						"encoding": "inplace",
						"label": "uint8",
						"numberOfBytes": "1"
					}
				}
			},
			"userdoc": {
				"kind": "user",
				"methods": {},
				"version": 1
			}
		}
	}
}